:020000040000FA
:060000000A128A110C280F
:10000800FE00030EF4000A08F5000A128A112828D7
:100018000A128A110F2883133030FD000130FE00C8
:100028000930FF00203084000A128A11FA200A12CF
:100038008A11B001F801F901FA01FB01FC01FD0187
:1000480083010A128A11CF280B1C2B282C285C2824
:100058008312031306183128322846288230F1000B
:10006800DD30F000F00B3628F10B36283B288312E0
:100078000313061C4028412846280130F000700868
:1000880087070B10861849284A285C288230F10017
:10009800DD30F000F00B4E28F10B4E285328831268
:1000A8000313861C582859285C28013087020B1036
:1000B800831203130C1F612862288B281E08F00086
:1000C8007008FC007C080F39F0007008FB007C0801
:1000D800F00004300310F00CFF3E031D6E280F30B3
:1000E8007005F1007C080F39F20003300310F20D9F
:1000F800FF3E031D7A280310720D7104F300730884
:10010800FD007D080F39F0007008FA000C130B1D74
:100118008E288F289F28091C922893289828091030
:100128008914780888009C2809148910790888009F
:10013800B03081000B1175088A00740E8300FE0E22
:100148007E0E0900831603138901831203138901A4
:1001580001308316031788008901033083160313BF
:100168008600831203138601831603138701831203
:10017800031387018316031388018312031388016D
:10018800850101308316031385008B178B150B101F
:100198000330960008000A128A11A6200A128A1152
:1001A8000A128A1126210A128A110A128A111921A1
:1001B8000A128A110A128A1133210A128A117A083C
:1001C800203E840083130008F7007708F9007B08B5
:1001D800203E84000008F7007708F800DE280A129D
:1001E8008A110C287E088A007F0882000A128A1168
:1001F800F6200A128A118000840A04087D06031971
:100208000034FF0A0319FE0AFA283F3406345B3427
:100218004F3466346D347D3407347F346F3477342B
:100228007C3439345E34793471348B170B178B1660
:100238000B118530831603138100B030831203132A
:10024800810008000B17831603130C17831203137E
:100258000C1341309F00831603139F0108000530DB
:0E026800F600F60B3529831203139F140800CD
:04400E00D120FF3F7F
:00000001FF
