:020000040000FA
:060000000A128A110C280F
:10000800FE00030EF4000A08F5000A128A112628D9
:100018000A128A110F2883133030FD000030FE00C9
:10002800DF30FF00203084000A128A11BD200A1236
:100038008A11F701F801F901FA01FB0183010A129B
:100048008A11CC280B1C29282A285A288312031322
:1000580006182F28302844288230F100DD30F000BF
:10006800F00B3428F10B3428392883120313061CAB
:100078003E283F2844280130F000700887070B10FD
:100088008618472848285A288230F100DD30F000C9
:10009800F00B4C28F10B4C28512883120313861CB3
:1000A800562857285A28013087020B108312031349
:1000B8000C1F5F28602889281E08F0007008F900C6
:1000C80079080F39F0007008F8007908F00004305A
:1000D8000310F00CFF3E031D6C280F307005F10073
:1000E80079080F39F20003300310F20DFF3E031DAB
:1000F80078280310720D7104F3007308FA007A0867
:100108000F39F0007008F7000C1375088A00740E98
:100118008300FE0E7E0E09008316031389018312E5
:1001280003138901013083160317880089010330FE
:1001380083160313860083120313860183160313A1
:10014800870183120313870183160313880183121F
:1001580003138801850101308316031385008B176B
:100168008B150B100330960008007E088A007F0864
:1001780082000A128A11B9200A128A118000840AA0
:1001880004087D0603190034FF0A0319FE0ABD2876
:100198000A128A1190200A128A110A128A11EF2073
:1001A8000A128A110A128A11FC200A128A11D62808
:1001B8000A128A110C283F3406345B344F346634F3
:1001C8006D347D3407347F346F3477347C3439347C
:1001D8005E34793471340B17831603130C178312AA
:1001E80003130C1341309F00831603139F0108006B
:1001F8000530F600F60BFE28831203139F1408003F
:04400E00D120FF3F7F
:00000001FF
