:020000040000FA
:060000000A128A110C280F
:10000800FE00030EF2000A08F3000A128A111328F0
:100018000A128A110F2883010A128A1177280B1CE9
:100028001628172847288312031306181C281D288A
:1000380031288230F100DD30F000F00B2128F10B7F
:100048002128262883120313061C2B282C28312844
:100058000130F000700887070B0886183428352807
:1000680047288230F100DD30F000F00B3928F10B21
:1000780039283E2883120313861C4328442847281E
:10008800013087020B0873088A00720E8300FE0E87
:100098007E0E090083160313890183120313890155
:1000A800831603178801890103308316031386001A
:1000B8008312031386018316031387018312031324
:1000C80087018316031388018312031388018501AE
:1000D80001308316031385008B178B150B10033023
:1000E80096000B1708000A128A114E200A128A116C
:0800F8007C280A128A110C2871
:04400E00D120FF3F7F
:00000001FF
