:020000040000FA
:060000000A128A110C280F
:10000800FE00030EF3000A08F4000A128A111428ED
:100018000A128A110F28F80183010A128A11DE28B0
:10002800831203138C1D19281A28232878080A120A
:100038008A11F7200A128A11831203138C110B1CE0
:1000480026282728552806182A282B283F288230B2
:10005800F200DD30F100F10B2F28F20B2F283428A5
:1000680083120313061C39283A283F280130F1006F
:100078007108F8070B108618422843285528823043
:10008800F200DD30F100F10B4728F20B47284C282D
:1000980083120313861C5128522855280130F80270
:1000A8000B1074088A00730E8300FE0E7E0E090082
:1000B800F7008B178B150B107D2883160313161466
:1000C8008316031396148316031316158316031346
:1000D800961583160313161683160313961683169E
:1000E8000313161783160313961783160313161490
:1000F8009F287708F500F6017608003A0319852845
:1001080079287508003A03196128013A0319642807
:10011800033A03196728013A03196A28073A0319A9
:100128006D28013A03197028033A03197328013A14
:10013800031976287928080083160317880189018E
:100148008316031385010330860088018312031385
:100158008501860188018B170B178C1183160313F1
:100168008C158516F501F601F70124300A128A115B
:10017800C0200A128A11080083120313A0008316F4
:100188000313871283120313201DCB28CC28D228EF
:1001980077088316031394008715D8287508770401
:1001A800831603139400871183120313200876041F
:1001B800940008000A128A11A0200A128A1100303D
:1001C8000A128A115C200A128A1101300A128A1155
:1001D8005C200A128A117808831203138800EF281A
:1001E8000A128A110C28F000700883120313930076
:0201F8000800FD
:04400E00D620FF3F7A
:00000001FF
