:020000040000FA
:060000000A128A110E280D
:10000800FE00030E83120313A7000A08A8000A12B1
:100018008A11BE280A128A111128FB0183120313C0
:10002800AD0183010A128A11822883120313A101E8
:10003800F71F1F2820282728F609F709F60A0319A9
:10004800F70AA101A10AF91F2A282B283428F80940
:10005800F909F80A0319F90A0130FA007A08A10621
:10006800A201A3017608770403193B283C287328CA
:10007800A001A00A4A2801300310F60DF70DFF3E33
:10008800031D40280130FA007A08A007F71F4D2801
:100098004E283F2801300310A20DA30DFF3E031D7B
:1000A8004F2877087902031D5B2876087802031C1D
:1000B8005E285F2866287608F8027708031CF9038B
:1000C800F902221401300310F70CF60CFF3E031D51
:1000D80067280130A002031D722873284E282108C2
:1000E8000319772878287D28A209A309A20A0319E9
:1000F800A30A2308F7002208F60008000A128A114A
:10010800FA200A128A110A128A1162210A128A1125
:10011800831603131F160A128A116F210A128A11F5
:100128001930831203132D0203189B289C28A0283A
:100138000815881008108F2819302D02031CA528CF
:10014800A628B02824302D020318AB28AC28B028E4
:100158000811881408108F2824302D02031CB52894
:10016800B628BA280811881008148F288F280A1270
:100178008A110E288C1DC128C228CB287B080A1298
:100188008A117A210A128A11831203138C110C1F07
:10019800CE28CF28F328FF30F6000030F7001E08DD
:1001A800A400A5012408F0002508F1009630F2000B
:1001B8000030F3000A128A111F210A128A117108ED
:1001C800F9007008F8000A128A1119200A128A1117
:1001D800760883120313A6002608AD000C1328081E
:1001E8008A00270E8300FE0E7E0E0900013083165A
:1001F80003178800890101308316031385008601DF
:10020800870188018312031385018601870188010C
:100218008B170B178C11831603138C1585168312F5
:100228000313A901AA01AB0124300A128A1144213F
:100238000A128A110800F401F501701C24292529E5
:100248002B297208F4070318F50A7308F50701301B
:100258000310F20DF30DFF3E031D2C29013003108E
:10026800F10CF00CFF3E031D332970087104031DC7
:100278003E293F2921297508F1007408F00008007B
:1002880083120313AC00831603138712831203131C
:100298002C1D4F29502956292B0883160313940027
:1002A80087155C2929082B048316031394008711EA
:1002B800831203132C082A04940008000B178316D2
:1002C80003130C17831203130C1341309F0083167A
:1002D80003139F010800043083120313A900A90B1C
:1002E80073290000831203139F140800F00070089C
:0802F8008312031393000800B8
:04400E00D620FF3F7A
:00000001FF
