:020000040000FA
:060000000A128A110E280D
:10000800FE00030E83120313A7000A08A8000A12B1
:100018008A1146290A128A111128FB01FC01830161
:100028000A128A11002983120313AB006228C33015
:100038009F0596281F08C33904389F0096281F0873
:10004800C33908389F0096281F08C3390C389F0009
:1000580096281F08C33910389F0096281F08C339EF
:1000680014389F0096281F08C33918389F0096280F
:100078001F08C3391C389F0096281F08C339203829
:100088009F0096281F08C33924389F0096281F0808
:10009800C33928389F0096281F08C3392C389F0079
:1000A80096281F08C33930389F0096281F08C3397F
:1000B80034389F009628C3309F0596282B08A9003E
:1000C800AA012A08003A03196A285F282908003A71
:1000D80003191B28013A03191E28033A0319232878
:1000E800013A03192828073A03192D28013A031958
:1000F8003228033A03193728013A03193C280F3AE2
:1001080003194128013A03194628033A03194B28D1
:10011800013A03195028073A03195528013A0319D7
:100128005A285F28080083120313A101F71F9D288E
:100138009E28A528F609F709F60A0319F70AA10166
:10014800A10AF91FA828A928B228F809F909F80A64
:100158000319F90A0130FA007A08A106A201A301DD
:10016800760877040319B928BA28F128A001A00A4B
:10017800C82801300310F60DF70DFF3E031DBE28F9
:100188000130FA007A08A007F71FCB28CC28BD2831
:1001980001300310A20DA30DFF3E031DCD287708E3
:1001A8007902031DD92876087802031CDC28DD288B
:1001B800E4287608F8027708031CF903F9022214E8
:1001C80001300310F70CF60CFF3E031DE528013043
:1001D800A002031DF028F128CC2821080319F528CE
:1001E800F628FB28A209A309A20A0319A30A2308CF
:1001F800F7002208F60008000A128A1182210A1262
:100208008A110A128A11EA210A128A1100300A1286
:100218008A1117200A128A11831603131F160A124D
:100228008A11F7210A128A1119307B0203181D2935
:100238001E2924298312031308158810081013296E
:1002480019307B02031C29292A29362924307B02EC
:1002580003182F293029362983120313081188140B
:100268000810132924307B02031C3B293C2942290E
:1002780083120313081188100814132913290A126A
:100288008A110E288C1D49294A2953297B080A12EC
:100298008A1102220A128A11831203138C110C1F6D
:1002A800562957297B29FF30F6000030F7001E0831
:1002B800A400A5012408F0002508F1009630F200FA
:1002C8000030F3000A128A11A7210A128A11710854
:1002D800F9007008F8000A128A1197200A128A1188
:1002E800760883120313A6002608FB000C132808BF
:1002F8008A00270E8300FE0E7E0E09000130831649
:1003080003178800890101308316031385008601CD
:1003180087018801831203138501860187018801FB
:100328008B170B178C11831603138C1585168312E4
:100338000313A901AA01AB0124300A128A11CC21A6
:100348000A128A110800F401F501701CAC29AD29C4
:10035800B3297208F4070318F50A7308F507013082
:100368000310F20DF30DFF3E031DB42901300310F5
:10037800F10CF00CFF3E031DBB2970087104031D2E
:10038800C629C729A9297508F1007408F0000800D2
:1003980083120313AC00831603138712831203130B
:1003A8002C1DD729D829DE292B088316031394007E
:1003B8008715E42929082B04831603139400871151
:1003C800831203132C082A04940008000B178316C1
:1003D80003130C17831203130C1341309F00831669
:1003E80003139F010800043083120313A900A90B0B
:1003F800FB290000831203139F140800F000700803
:080408008312031393000800A6
:04400E00D620FF3F7A
:00000001FF
