:020000040000FA
:060000000A128A110C280F
:10000800FE00030EF2000A08F3000A128A11D12832
:100018000A128A110F28F80183010A128A11F0289E
:10002800F6007B28C330831203139F05AF28831281
:1000380003131F08C33904389F00AF288312031322
:100048001F08C33908389F00AF28831203131F08FD
:10005800C3390C389F00AF28831203131F08C33914
:1000680010389F00AF28831203131F08C3391438B0
:100078009F00AF28831203131F08C33918389F0045
:10008800AF28831203131F08C3391C389F00AF28F9
:10009800831203131F08C33920389F00AF28831227
:1000A80003131F08C33924389F00AF288312031392
:1000B8001F08C33928389F00AF28831203131F086D
:1000C800C3392C389F00AF28831203131F08C33984
:1000D80030389F00AF28831203131F08C339343800
:1000E8009F00AF28C330831203139F05AF287608FB
:1000F800F400F5017508003A031983287628740876
:10010800003A03191628013A03191B28033A031960
:100118002228013A03192928073A03193028013AF5
:1001280003193728033A03193E28013A03194528C9
:100138000F3A03194C28013A03195328033A0319B3
:100148005A28013A03196128073A03196828013A1D
:1001580003196F28762808000130831603178800D2
:1001680089010130831603138500860188018312F3
:1001780003138501860188018B170B178C118316D1
:1001880003138C158516F401F501F60124300A12C3
:100198008A110D210A128A110800831203138C1D7B
:1001A800D628D728E02878080A128A1138210A1296
:1001B8008A11831203138C110C1FE328E428E92801
:1001C8001E08F1007108F8000C1373088A00720EFB
:1001D8008300FE0E7E0E09000A128A11B0200A1250
:1001E8008A110A128A1123210A128A1100300A126E
:1001F8008A1114200A128A110A128A1130210A124D
:100208008A11780883120313880000290A128A11B8
:100218000C28F700831603138712771D1429152954
:1002280019297608940087151D2974087604940006
:1002380087117708750483120313940008000B17BD
:10024800831603130C17831203130C1341309F00FA
:10025800831603139F0108000530F400F40B3229BC
:10026800831203139F140800F0007008831203130D
:0402780093000800E7
:04400E00D620FF3F7A
:00000001FF
