:020000040000FA
:060000000A128A11F92F1B
:100E1C0083160313890183120313890183160317A5
:100E2C00880189010730831603138600831203138C
:100E3C00860183160313870183120313870183161C
:100E4C00031388018312031388018501831603138E
:100E5C00850108000A128A110E270A128A118312C0
:100E6C00031306183A2F3B2F352F8230F400DD3058
:100E7C00F300F30B3F2FF40B3F2F442F831203137C
:100E8C00061C492F4A2F352F0A128A1158270A128D
:100E9C008A110A128A1190270A128A11352F0A1206
:100EAC008A11002883120313870188018501091414
:100EBC000230F2008630F1009930F000F00B642F14
:100ECC00F10B642FF20B642F831203130910891496
:100EDC000230F2008630F1009930F000F00B742FE4
:100EEC00F10B742FF20B742F831203138910091555
:100EFC000230F2008630F1009930F000F00B842FB4
:100F0C00F10B842FF20B842F831203130911F701B9
:100F1C00F70A0800F32F831203138618962F972FC6
:100F2C00C32F8230F100DD30F000F00B9B2FF10B62
:100F3C009B2FA02F83120313861CA52FA62FC32F24
:100F4C000708031DAA2FAB2FB02FF601F60A0130AC
:100F5C008700BD2F07080319B42FB52FBD2F7608B6
:100F6C00F0007007F1007108F60076088700871F03
:100F7C00C02FC12FC32FF70105140619C62FC72F79
:100F8C00F32F8230F100DD30F000F00BCB2FF10BA2
:100F9C00CB2FD02F83120313061DD52FD62FF32F53
:100FAC000808031DDA2FDB2FE02FF501F50A0130BD
:100FBC008800ED2F08080319E42FE52FED2F750895
:100FCC00F0007007F1007108F50075088800881FA3
:100FDC00F02FF12F902FF701851477030319F72FBA
:100FEC00F82F912F0800F501F601F70183010A1281
:040FFC008A11302FF7
:04400E00D120FF3F7F
:00000001FF
