:020000040000FA
:060000000A128A110C280F
:10000800FE00030EF1000A08F2000A168A1592296A
:100018000A128A110F28F901FA018313D3308400D8
:10002800F0300A168A155C200A128A1183010A1216
:100038008A11A02E831603134E0883120313A300FC
:10004800831603134D0883120313A20083160313A8
:100058004C0883120313A100831603134B08831261
:100068000313A0000030A7000030A6000030A50050
:100078000030A4000A168A15D4220A128A1103181D
:10008800462847282929831603134E088312031389
:10009800DA00831603134D0883120313D90083165D
:1000A80003134C0883120313D800831603134B0859
:1000B80083120313D7000A128A1177270A128A11AA
:1000C800831203135A08590458045704031D6D2852
:1000D8006E282929831603134A08803AFF008030C6
:1000E8007F02031D792802304902031C7C287D28E1
:1000F800292983160313440883120313A3008316C4
:100108000313430883120313A20083160313420840
:1001180083120313A10083160313410883120313E8
:10012800A0004030A7008930A6007030A5005F30DD
:10013800A4000A168A1525250A128A110318A5286B
:10014800A628AF28F73083160313C9070318CA0A6D
:10015800FF30CA07B728F83083160313C9070318F6
:10016800CA0AFF30CA0749080A128A159D240A12CA
:100178008A1183120313470883160313C4008312DA
:100188000313460883160313C30083120313450899
:1001980083160313C2008312031344088316031340
:1001A800C1004E0883120313A300831603134D08DE
:1001B80083120313A200831603134C08831203133C
:1001C800A100831603134B0883120313A0008316A0
:1001D8000313440883120313A70083160313430869
:1001E80083120313A6008316031342088312031312
:1001F800A50083160313410883120313A4000A16EB
:100208008A1542270A128A118312031323088316B8
:100218000313C80083120313220883160313C700AD
:1002280083120313210883160313C60083120313D2
:10023800200883160313C5000030CE000030CD001F
:100248000030CC000030CB008F29831603134E08F2
:1002580083120313DA00831603134D088312031362
:10026800D900831603134C0883120313D80083168E
:1002780003134B0883120313D7000A128A11772736
:100288000A128A11831203135A0883160313C8002B
:1002980083120313590883160313C7008312031329
:1002A800580883160313C6008312031357088316CE
:1002B8000313C5004808F6004708F5004608F4008F
:1002C8004508F30000300A168A15C9250A128A1152
:1002D800760883160313A3007508A2007408A1000A
:1002E8007308A0004E08A7004D08A6004C08A500FA
:1002F8004B08A4000A168A1524230A128A118316A9
:1003080003132308CE002208CD002108CC002008C2
:10031800CB00C901CA01D201D20A5208B300013088
:100328000310B30DFF3E031D94290310330D693EDE
:1003380084000A128A150A200A128A11B4000A12C5
:100348008A150A200A128A11B5000A128A150A208B
:100358000A128A11B6000A128A150A200A128A118C
:10036800B70037084802031DC32936084702031D92
:10037800C32935084602031DC3293408450203185A
:10038800C629C729C829D2290130B3003308D207A2
:100398000A305206031DD129D22991295208500743
:1003A800B30051080318510AB40049083307B500CF
:1003B8004A0803184A0A3407B6003508BF02360847
:1003C800031CC003C002500851040319EC29ED298D
:1003D800F329FF30BF070318C00AFF30C0070330F6
:1003E8003D05B30000303E05B4003308340403195A
:1003F800FE29FF29142AFF30BF070318C00AFF305F
:10040800C007142A203083160313B3004F08840052
:100418003308831380000130B3003308CF07FF2966
:100428004008803AFF0080307F02031D1D2A0130FA
:100438003F020318202A212A062A033083160313B1
:100448003D05B30000303E05B400330834040319F9
:100458002E2A2F2AE12A2D30B3004F0884003308B2
:10046800831380000130B3003308CF07E12A520814
:10047800B30001300310B30DFF3E031D3E2A0310E5
:10048800330D693E84000A128A150A200A128A115D
:1004980083120313A0000A128A150A200A128A116D
:1004A800A1000A128A150A200A128A11A2000A1249
:1004B8008A150A200A128A11A30083160313480812
:1004C80083120313A7008316031347088312031329
:1004D800A60083160313460883120313A500831688
:1004E8000313450883120313A4000A168A1521244E
:1004F8000A128A1183120313230883160313C400F4
:1005080083120313220883160313C30083120313F1
:10051800210883160313C2008312031320088316CD
:100528000313C100003083120313AB000030AA008C
:100538000030A9000A30A800831603134408831268
:100548000313AF0083160313430883120313AE008B
:1005580083160313420883120313AD008316031393
:10056800410883120313AC000A168A1574230A1271
:100578008A11831203132B0883160313C4008312F2
:1005880003132A0883160313C300831203132908CD
:1005980083160313C2008312031328088316031358
:1005A800C1004108303EB3004F088400330883136C
:1005B80080000130B3003308CF070130D202520A5D
:1005C800031DE72AE82A3B2AFC2A30308316031346
:1005D800B3004F0884003308831380000130B30050
:1005E8003308CF07FF30C9070318CA0AFF30CA0704
:1005F8004A08803AFF0080307F02031D052B013036
:1006080049020318082B092BE92A831603135108FA
:10061800803AFF0080307F02031D142B09305002FE
:10062800031C172B182B1F2B083083160313B3003A
:100638003308D200252B831603135008B300330860
:10064800D2005208B300B4013308D0023408031CA6
:10065800D103D10252080319322B332B3E2B2E30F3
:10066800B3004F0884003308831380000130B300BF
:100678003308CF0752080A128A159D240A128A11D4
:1006880083120313470883160313BB008312031353
:10069800460883160313BA0083120313450883160A
:1006A8000313B90083120313440883160313B80015
:1006B8003B0883120313B100831603133A0883120D
:1006C8000313B00083160313390883120313AF0012
:1006D80083160313380883120313AE00831603131B
:1006E8004E0883120313AD00831603134D088312BB
:1006F8000313AC00831603134C0883120313AB00D7
:10070800831603134B0883120313AA000A128A15CF
:100718003C210A128A11831203132D08DA002C08CF
:10072800D9002B08D8002A08D7000A128A1177277F
:100738000A128A11831203135A0883160313C80076
:1007480083120313590883160313C7008312031374
:10075800580883160313C600831203135708831619
:100768000313C500B82C5208B30001300310B30DB1
:10077800FF3E031DBA2B0310330D693E84000A1295
:100788008A150A200A128A1183120313A0000A127A
:100798008A150A200A128A11A1000A128A150A204B
:1007A8000A128A11A2000A128A150A200A128A114C
:1007B800A30083160313480883120313A7008316A4
:1007C8000313470883120313A6008316031346086E
:1007D80083120313A500831603134508831203131A
:1007E800A4000A168A1521240A128A1183120313F7
:1007F800230883160313C4008312031322088316E5
:100808000313C30083120313210883160313C200C2
:1008180083120313200883160313C10000308312C8
:100828000313AB000030AA000030A9000A30A8006A
:1008380083160313440883120313AF0083160313AC
:10084800430883120313AE0083160313420883126E
:100858000313AD0083160313410883120313AC007E
:100868000A168A1574230A128A11831203132B0895
:1008780083160313C400831203132A088316031371
:10088800C30083120313290883160313C2008312BB
:100898000313280883160313C1004108303EB30030
:1008A8004F0884003308831380000130B3003308F5
:1008B800CF075208B30001300310B30DFF3E031DEC
:1008C800602C0310330D693E84000A128A150A2031
:1008D8000A128A1183120313A8000A128A150A2021
:1008E8000A128A11A9000A128A150A200A128A1104
:1008F800AA000A128A150A200A128A11AB00831666
:100908000313480883120313AF0083160313470821
:1009180083120313AE0083160313460883120313CE
:10092800AD0083160313450883120313AC000A169F
:100938008A1574230A128A11831203132B0883164B
:100948000313C800831203132A0883160313C7006E
:1009580083120313290883160313C6008312031393
:10096800280883160313C5000130D202520A031D5A
:10097800BE2CBF2CB72BD12C3030B3004F088400CD
:100988003308831380000130B3003308CF07FF30EA
:10099800D0070318D10AFF30D10750085104031DAE
:1009A800D62CD72CC02C872E3C0884008313000833
:1009B800B300840A0008B4003308C5003408C60030
:1009C8000030C61BFF30C700C8000230B300330830
:1009D800BC07C81FF02CF12C002D0330BD040030DB
:1009E800BE04C509C609C709C809C50A0319C60A44
:1009F8000319C70A0319C80A50085104031D052D15
:100A0800062D142D4808470446044504031D0D2DE2
:100A18000E2D142D0130D0070318D10A0030D1074C
:100A2800D201D20A5208B30001300310B30DFF3EC1
:100A3800031D192D0310330D693E84000A128A150F
:100A48000A200A128A11B4000A128A150A200A1208
:100A58008A11B5000A128A150A200A128A11B600EC
:100A68000A128A150A200A128A11B70037084802A2
:100A7800031D482D36084702031D482D3508460238
:100A8800031D482D3408450203184B2D4C2D4D2DC0
:100A9800572D0130B3003308D2070A305206031D20
:100AA800562D572D162D5108803A803C031D5E2D7A
:100AB800500852020318612D622D692D8316031305
:100AC8005008B3003308D200812D83160313510850
:100AD800803AB30080303302031D742D520850024F
:100AE8000318772D782D812D831603135208B30030
:100AF800B4013308D0003408D100831603133F082B
:100B080040040319882D892D9B2D03303D05B30022
:100B180000303E05B400330834040319942D952D94
:100B28009B2DFF30BF070318C00AFF30C0073E1FC8
:100B38009E2D9F2DBA2D5108803AB3004008803A67
:100B48003302031DA92D3F0850020318AC2DAD2D0B
:100B5800B62D831603135008BF025108031CC003A7
:100B6800C002BA2D83160313BF01C0014008803AA2
:100B7800803C031DC12D3F0852020318C42DC52D0A
:100B8800D12D831603135208B300B4013308BF02F2
:100B98003408031CC003C002D52D83160313BF01FC
:100BA800C0013F0840040319DA2DDB2DF22D203057
:100BB800B3004F0884003308831380000130B3006A
:100BC8003308CF07FF30BF070318C00AFF30C0073C
:100BD8003F084004031DF12DF22DDB2D03303D05A8
:100BE800B30000303E05B400330834040319FD2D6A
:100BF800FE2D792E2D30B3004F088400330883135F
:100C080080000130B3003308CF07792E00308312FB
:100C18000313AB000030AA000030A9000A30A80076
:100C2800831603135008B30001300310B30DFF3EC1
:100C3800031D192E0310330D693E84000A128A150C
:100C48000A200A128A1183120313A0000A128A15B5
:100C58000A200A128A11A1000A128A150A200A1209
:100C68008A11A2000A128A150A200A128A11A30000
:100C780083160313480883120313A700831603136C
:100C8800470883120313A60083160313460883122A
:100C98000313A50083160313450883120313A40046
:100CA8000A168A1521240A128A11831203132308AB
:100CB800AF002208AE002108AD002008AC000A16DB
:100CC8008A1574230A128A11831203132808303EE6
:100CD80083160313B4003408D2005208B3004F0837
:100CE8008400330883138000052EFF30D0070318D3
:100CF800D10AFF30D107500A031D862E510A031D61
:100D0800862E872E0A2E0130A807FF302807840078
:100D18000A128A150A200A128A11B3003308D2006F
:100D28005208031D982E9B2E0A168A11002D4F0873
:100D380084008313800108000A168A1568210A12A4
:100D48008A110A128A11F3270A128A110A168A15B9
:100D580085220A128A110A168A157B200A128A111C
:100D68000A168A1547200A128A110A128A15C520FE
:100D78000A128A110A168A1554200A128A1100309A
:100D88000A168A15CA230A128A11831203134708FE
:100D980083160313DA00831203134608831603131A
:100DA800D90083120313450883160313D80083124E
:100DB8000313440883160313D70001300A168A1553
:100DC800CA230A128A1183120313470883160313CE
:100DD800D60083120313460883160313D500831223
:100DE8000313450883160313D4008312031344081E
:100DF80083160313D300913083120313EC006C089D
:100E080083160313A8005A08AC005908AB00580809
:100E1800AA005708A9005608B0005508AF005408A2
:100E2800AE005308AD005B0883120313ED00EE011A
:100E38006D0883160313B100831203136E0883161B
:100E48000313B200DC300A168A11F6240A128A113A
:100E5800DC300A168A15B3200A128A110D300A16D8
:100E68008A156F200A128A110A300A168A156F200D
:100E78000A128A110A168A157B200A128A11F701AA
:100E8800F70A01300A168A1519210A128A11A430A4
:100E9800F6008030F7000A168A15F9210A128A111D
:100EA800F701F70A02300A168A1519210A128A115F
:100EB800DC30F6000030F7000A168A15F9210A120C
:100EC8008A11063083120313EE001330ED00AD30A3
:100ED800EC00EC0B6D2FED0B6D2FEE0B6D2FC32E71
:100EE8000A128A110C28031083120313590D5A0D84
:100EF800DB005B08E1006108031D832F842F8D2F21
:100F08000030DA000030D9000030D8000030D700B7
:100F1800F22F5708DB005808DC005908DD005A0892
:100F2800DE001F300310DE0CDD0CDC0CDB0CFF3E9A
:100F3800031D962F5B08DF005F08E000D917FF301C
:100F4800D705FF30D805FF30D9050030DA059630CF
:100F5800E102E11FB02FB12FCB2F6108803A973EF5
:100F68000318B72FB82FB92F842F01300310DA0CCC
:100F7800D90CD80CD70CFF3E031DBA2F0130DB006B
:100F88005B08E107031DC92FCA2FB92FE22F2030B4
:100F98006102031CD02FD12FDD2F842F0130DB00FD
:100FA8000310D70DD80DD90DDA0DDB0BD42F013076
:100FB800E1026108031DE12FE22FD22F6008031917
:100FC800E62FE72FF22FD709D809D909DA09D70A66
:100FD8000319D80A0319D90A0319DA0A08000B17E2
:100FE800831603130C17831203130C1341309F004D
:100FF800831603139F010800FF1B0A2883137F1819
:1010080083170008840A0319FF0A080008308A00B9
:101018000408840A820700340034003480343F34E2
:10102800003400342034413400340034C8344234AD
:10103800003400347A344434003440341C344634A8
:1010480000345034C33447340034243474344934BD
:101058008034963418344B342034BC34BE344C3489
:1010680028346B346E344E34F93402341534503429
:10107800EC347834AD346034CA34F23449347134E1
:101088000034003480343F34CD34CC34CC343D3457
:101098000A34D73423343C346F34123483343A342A
:1010A8001734B734D1343834AC34C53427343734F2
:1010B800BD343734863435349534BF34D63433347C
:1010C8007734CC342B3432345F3470348934303450
:1010D800FF34E634DB342E340834E5343C341E3433
:1010E80060344234A2340D34013400340034003406
:1010F8000A340034003400346434003400340034DA
:10110800E834033400340034103427340034003415
:10111800A034863401340034403442340F3400346F
:1011280080349634983400340034E134F53405348E
:101138000034CA349A343B34253431342E343234B2
:101148006634203420342034253431342E3432347B
:101158006634203420342034253464340034563442
:10116800313420342034203456343234203420347E
:0C117800203443344F344E3454340034DF
:10118A00831603139816831203130C128316031380
:10119A000C128B130B138717071308008312031300
:1011AA00A701A31FD928DA28E128A209A309A20ABC
:1011BA000319A30AA701A70AA51FE428E528EE2810
:1011CA00A409A509A40A0319A50A0130F800780898
:1011DA00A706A801A901220823040319F528F6285D
:1011EA002D29A601A60A042901300310A20DA30D78
:1011FA00FF3E031DFA280130F8007808A607A31F4E
:10120A0007290829F92801300310A80DA90DFF3E66
:10121A00031D092923082502031D15292208240272
:10122A00031C1829192920292208A4022308031CAF
:10123A00A503A502281401300310A30CA20CFF3E3B
:10124A00031D21290130A602031D2C292D29082955
:10125A0027080319312932293729A809A909A80A0F
:10126A000319A90A2908A3002808A2000800831262
:10127A0003132D088039B2003208B7002D08B200D6
:10128A003207B3003308BD00AC1F4C294D294E2943
:10129A003D143D0803195229532962293D0A031DA9
:1012AA005729582960290030AD000030AC000030C1
:1012BA00AB000030AA00AC176A290030AD0000303C
:1012CA00AC000030AB000030AA0031088039B2000F
:1012DA003208B7063108B2003207B3003308BC003F
:1012EA00B01F782979297A293C143C0803197E29E8
:1012FA007F298E293C0A031D832984298C290030E1
:10130A00B1000030B0000030AF000030AE00B017BE
:10131A0096290030B1000030B0000030AF00003034
:10132A00AE003C0803199A299B29A0293D08031DF0
:10133A009F29A029A9290030AD000030AC00003057
:10134A00AB000030AA009C2C2A08B2003208F30035
:10135A0030080A168A153F210A128A157408831260
:10136A000313C3007308C2004208B200B301B401F8
:10137A00B5013508BB003408BA003308B900320891
:10138A00B8004308B200B301B401B5013508C10081
:10139A003408C0003308BF003208BE002B08B20070
:1013AA003208F3002F080A168A153F210A128A15F5
:1013BA00740883120313C3007308C2004208B20000
:1013CA00B301B401B5013208B80733080311031891
:1013DA00013E0319F129B907340803110318013E24
:1013EA000319F829BA07350803110318013E03192E
:1013FA00FF29BB074308B200B301B401B5013208A3
:10140A00BE07330803110318013E03190D2ABF074B
:10141A00340803110318013E0319142AC0073508BA
:10142A0003110318013E03191B2AC1072C08B20035
:10143A003208F3002E080A168A153F210A128A1565
:10144A00740883120313C3007308C2004208B2006F
:10145A00B301B401B5013208B80733080311031800
:10146A00013E0319392AB907340803110318013E4A
:10147A000319402ABA07350803110318013E031954
:10148A00472ABB074308B200B301B401B5013208C9
:10149A00BE07330803110318013E0319552ABF0773
:1014AA00340803110318013E03195C2AC0073508E2
:1014BA0003110318013E0319632AC1070830B20059
:1014CA000310B80DB90DBA0DBB0DB20B652A2B0866
:1014DA00B2003208F3002E080A168A153F210A12B2
:1014EA008A15740883120313C3007308C2004208E2
:1014FA00B2004308B300B401B5013208B807330893
:10150A0003110318013E03198B2AB9073408031182
:10151A000318013E0319922ABA0735080311031862
:10152A00013E0319992ABB072A08B2003208F300C0
:10153A002F080A168A153F210A128A15740883127F
:10154A000313C3007308C2004208B2004308B30081
:10155A00B401B5013208B807330803110318013E74
:10156A000319B82AB907340803110318013E0319ED
:10157A00BF2ABA07350803110318013E0319C62A00
:10158A00BB070830B2000310B80DB90DBA0DBB0D78
:10159A00B20BC82A2A08B2003208F3002E080A162B
:1015AA008A153F210A128A15740883120313C3008D
:1015BA007308C2004208B2004308B300B401B5017F
:1015CA003208B807330803110318013E0319EE2A3B
:1015DA00B907340803110318013E0319F52ABA079B
:1015EA00350803110318013E0319FC2ABB072B080F
:1015FA00B2003208F30030080A168A153F210A128F
:10160A008A15740883120313C3007308C2004208C0
:10161A00B2004308B300B401B5013208BE0733086B
:10162A0003110318013E03191B2BBF0734080311CA
:10163A000318013E0319222BC007350803110318AA
:10164A00013E0319292BC1072C08B2003208F30006
:10165A002F080A168A153F210A128A15740883125E
:10166A000313C3007308C2004208B2004308B30060
:10167A00B401B5013208BE07330803110318013E4D
:10168A000319482BBF07340803110318013E031935
:10169A004F2BC007350803110318013E0319562BB7
:1016AA00C1072C08B2003208F30030080A168A155E
:1016BA003F210A128A15740883120313C3007308A0
:1016CA00C2004208B2004308B300B401B5010830B1
:1016DA000310B20DB30DB40DB50DFF3E031D6D2BF6
:1016EA003208BE07330803110318013E03197E2B83
:1016FA00BF07340803110318013E0319852BC007DD
:10170A00350803110318013E03198C2BC107380849
:10171A00B2003908B3003A08B4003B08B5001830E3
:10172A000310B50CB40CB30CB20CFF3E031D952B81
:10173A003208BE07330803110318013E0319A62B0A
:10174A00BF07340803110318013E0319AD2BC00764
:10175A00350803110318013E0319B42BC1070830D9
:10176A00B2000310B80DB90DBA0DBB0DB20BB62BF2
:10177A003D083C07B200B301B30D3208823EC200F5
:10178A0033080318013EFF3EC300E82B0130B200C4
:10179A000310BE0DBF0DC00DC10DB20BCD2BBB1F6B
:1017AA00D72BD82BD92B3E140130B2000310B80D19
:1017BA00B90DBA0DBB0DB20BDB2BFF30C2070318F4
:1017CA00C30AFF30C307C01FEB2BEC2BCB2BBC018A
:1017DA00BB1FF02BF12B0D2CFF303805B200FF3068
:1017EA003905B300FF303A05B4007F303B05B50038
:1017FA0035083404330432040319042C052C082C4C
:10180A00BC01BC0A0D2C3E1C0B2C0C2C0D2C052CDF
:10181A003C080319112C122C432C0130BE0700304E
:10182A0003180130BF07003003180130C007003029
:10183A0003180130C107411C232C242C432C3E08D9
:10184A00B2003F08B3004008B4004108B5000130B7
:10185A00B600350DB50CB40CB30CB20CB60B2E2C6D
:10186A003508C1003408C0003308BF003208BE0082
:10187A000130C2070318C30A0030C3074308803A7D
:10188A00FF0080307F02031D4C2CFF304202031CF4
:10189A004F2C502C5B2C7F3083120313C1008030F5
:1018AA00C0000030BF000030BE00902C831203132A
:1018BA004308803AFF0080307F02031D662C013006
:1018CA0042020318692C6A2C762C00308312031307
:1018DA00C1000030C0000030BF000030BE00B701B8
:1018EA00902C831203134208B2003208BD00FF3065
:1018FA00BE05FF30BF057F30C0050030C1053D1C65
:10190A00872C882C892CC0173D08B2000310320C92
:10191A00B3003308C1003708B2003208C1044108D5
:10192A00AD004008AC003F08AB003E08AA00080022
:10193A0083120313D600D61FA32CA42C532ED60928
:10194A00D60A5608803A123E031CAC2CAD2C972DB1
:10195A000A30A2000030A3005608F500F601F51B74
:10196A00F6036430F3000030F4000A168A110620E8
:10197A000A128A15740883120313A5007308A400B7
:10198A000A128A15D3200A128A158312031322080F
:10199A00C80001300310C80DFF3E031DCF2C0310F1
:1019AA00480D593E84000A128A150A200A128A151D
:1019BA00C9000A128A150A200A128A15CA000A12CE
:1019CA008A150A200A128A15CB000A128A150A20D9
:1019DA000A128A15CC004C08AD004B08AC004A0824
:1019EA00AB004908AA006430A2000030A3005608E0
:1019FA00A400A501A41BA5030A128A15D3200A1262
:101A0A008A15831203132208CD0001300310CD0D6D
:101A1A00FF3E031D0B2D03104D0D7D3E84000A125F
:101A2A008A150A200A128A15CE000A128A150A2075
:101A3A000A128A15CF000A128A150A200A128A1572
:101A4A00D0000A128A150A200A128A15D1005108F2
:101A5A00B1005008B0004F08AF004E08AE000A129D
:101A6A008A153C210A128A15831203132D08D50000
:101A7A002C08D4002B08D3002A08D2000A30F3001D
:101A8A000030F4005608F500F601F51BF6030A16B5
:101A9A008A1106200A128A15730883120313C800D2
:101AAA0001300310C80DFF3E031D562D0310480DCB
:101ABA00353E84000A128A150A200A128A15C900BC
:101ACA000A128A150A200A128A15CA000A128A15E7
:101ADA000A200A128A15CB000A128A150A200A124B
:101AEA008A15CC004C08AD004B08AC004A08AB0084
:101AFA004908AA005508B1005408B0005308AF00BD
:101B0A005208AE000A128A153C210A128A1583125B
:101B1A0003132D08C7002C08C6002B08C5002A0885
:101B2A00C400FF2F5608803A753E031C9D2D9E2D3A
:101B3A00262E0A30F3000030F4005608F500F601AC
:101B4A00F51BF6030A168A1106200A128A1573086B
:101B5A0083120313C80001300310C80DFF3E031D92
:101B6A00B12D0310480D353E84000A128A150A2049
:101B7A000A128A15C9000A128A150A200A128A1537
:101B8A00CA000A128A150A200A128A15CB000A12FA
:101B9A008A150A200A128A15CC004C08AD004B0897
:101BAA00AC004A08AB004908AA000A30A20000307B
:101BBA00A3005608A400A501A41BA5030A128A15AE
:101BCA00D3200A128A15831203132208CD0001308A
:101BDA000310CD0DFF3E031DED2D03104D0D593E93
:101BEA0084000A128A150A200A128A15CE000A12DD
:101BFA008A150A200A128A15CF000A128A150A20A3
:101C0A000A128A15D0000A128A150A200A128A159F
:101C1A00D1005108B1005008B0004F08AF004E087B
:101C2A00AE000A128A153C210A128A15831203137E
:101C3A002D08C7002C08C6002B08C5002A08C400B6
:101C4A00FF2F5608C80001300310C80DFF3E031DC0
:101C5A00292E0310480D353E84000A128A150A20DF
:101C6A000A128A15C9000A128A150A200A128A1546
:101C7A00CA000A128A150A200A128A15CB000A1209
:101C8A008A150A200A128A15CC004C08C7004B088C
:101C9A00C6004A08C5004908C400FF2F5608803A02
:101CAA00123E031C592E5A2E442F0A30A20000302D
:101CBA00A3005608F500F601F51BF6036430F3009D
:101CCA000030F4000A168A1106200A128A157408CE
:101CDA0083120313A5007308A4000A128A15D320DD
:101CEA000A128A15831203132208C800013003104E
:101CFA00C80DFF3E031D7C2E0310480D253E8400AF
:101D0A000A128A150A200A128A15C9000A128A15A5
:101D1A000A200A128A15CA000A128A150A200A1209
:101D2A008A15CB000A128A150A200A128A15CC00D3
:101D3A004C08AD004B08AC004A08AB004908AA00A1
:101D4A006430A2000030A3005608A400A501A41B19
:101D5A00A5030A128A15D3200A128A1583120313BD
:101D6A002208CD0001300310CD0DFF3E031DB82E11
:101D7A0003104D0D493E84000A128A150A200A12E0
:101D8A008A15CE000A128A150A200A128A15CF006D
:101D9A000A128A150A200A128A15D0000A128A150E
:101DAA000A200A128A15D1005108B1005008B00061
:101DBA004F08AF004E08AE000A128A153C210A12DB
:101DCA008A15831203132D08D5002C08D4002B087A
:101DDA00D3002A08D2000A30F3000030F400560873
:101DEA00F500F601F51BF6030A168A1106200A12F7
:101DFA008A15730883120313C80001300310C80D33
:101E0A00FF3E031D032F0310480D013E84000A12F2
:101E1A008A150A200A128A15C9000A128A150A2086
:101E2A000A128A15CA000A128A150A200A128A1583
:101E3A00CB000A128A150A200A128A15CC004C080D
:101E4A00AD004B08AC004A08AB004908AA00550887
:101E5A00B1005408B0005308AF005208AE000A128D
:101E6A008A153C210A128A15831203132D08C7000A
:101E7A002C08C6002B08C5002A08C400FF2F5608E4
:101E8A00803A753E031C4A2F4B2FD32F0A30F3009A
:101E9A000030F4005608F500F601F51BF6030A16A1
:101EAA008A1106200A128A15730883120313C800BE
:101EBA0001300310C80DFF3E031D5E2F0310480DAD
:101ECA00013E84000A128A150A200A128A15C900DC
:101EDA000A128A150A200A128A15CA000A128A15D3
:101EEA000A200A128A15CB000A128A150A200A1237
:101EFA008A15CC004C08AD004B08AC004A08AB0070
:101F0A004908AA000A30A2000030A3005608A4001B
:101F1A00A501A41BA5030A128A15D3200A128A1541
:101F2A00831203132208CD0001300310CD0DFF3EAA
:101F3A00031D9A2F03104D0D253E84000A128A159F
:101F4A000A200A128A15CE000A128A150A200A12D3
:101F5A008A15CF000A128A150A200A128A15D00099
:101F6A000A128A150A200A128A15D1005108B100EC
:101F7A005008B0004F08AF004E08AE000A128A158A
:101F8A003C210A128A15831203132D08C7002C0854
:101F9A00C6002B08C5002A08C400FF2F5608C8002F
:101FAA0001300310C80DFF3E031DD62F0310480D44
:101FBA00013E84000A128A150A200A128A15C900EB
:101FCA000A128A150A200A128A15CA000A128A15E2
:101FDA000A200A128A15CB000A128A150A200A1246
:101FEA008A15CC004C08C7004B08C6004A08C50031
:101FFA004908C4000800F300730883120313880019
:10200A00080083120313A101F61F0C280D281428B7
:10201A00F509F609F50A0319F60AA101A10AF41F3E
:10202A00172818281D28F309F409F30A0319F40AD2
:10203A00730874040319222823285228A001A00A2D
:10204A00312801300310F30DF40DFF3E031D27283C
:10205A000130F7007708A007F41F3428352826280E
:10206A0074087602031D3B2873087502031C3E2878
:10207A003F2845287308F5027408031CF603F60284
:10208A0001300310F40CF30CFF3E031D4628013007
:10209A00A002031D51285228352821080319562861
:1020AA0057285C28F509F609F50A0319F60A76088D
:1020BA00F4007508F300080083120313D7006E308A
:1020CA005702031C69286A2879293F30AD0000307D
:1020DA00AC000030AB000030AA006430A000003031
:1020EA00A1005708C800C9014808A2004908A3006E
:1020FA000A168A153F220A168A1183120313200828
:10210A00CA0001300310CA0DFF3E031D87280310C1
:10211A004A0D7D3E84000A128A150A200A168A117F
:10212A00CB000A128A150A200A168A11CC000A1252
:10213A008A150A200A168A11CD000A128A150A205F
:10214A000A168A11CE004E08B1004D08B0004C089C
:10215A00AF004B08AE000A128A153C210A168A11F2
:10216A00831203132D08D6002C08D5002B08D4009F
:10217A002A08D3000A30A0000030A1005708C8007E
:10218A00C9014808F5004908F6006430F300003038
:10219A00F4000A168A15BF210A168A1174088312D6
:1021AA000313A3007308A2000A168A153F220A160F
:1021BA008A11831203132008CA0001300310CA0DC2
:1021CA00FF3E031DE32803104A0D593E84000A12FC
:1021DA008A150A200A168A11CB000A128A150A20C1
:1021EA000A168A11CC000A128A150A200A168A11BE
:1021FA00CD000A128A150A200A168A11CE004E0844
:10220A00AD004D08AC004C08AB004B08AA005608BC
:10221A00B1005508B0005408AF005308AE000A12C6
:10222A008A153C210A168A11831203132D08D2003B
:10223A002C08D1002B08D0002A08CF000A30F3005E
:10224A000030F4005708C800C9014808F5004908D9
:10225A00F6000A168A15BF210A168A117308831214
:10226A000313CA0001300310CA0DFF3E031D3829AB
:10227A0003104A0D353E84000A128A150A200A16EE
:10228A008A11CB000A128A150A200A168A11CC0072
:10229A000A128A150A200A168A11CD000A128A150C
:1022AA000A200A168A11CE004E08AD004D08AC006D
:1022BA004C08AB004B08AA005208B1005108B00004
:1022CA005008AF004F08AE000A128A153C210A16C0
:1022DA008A11831203132D08C7002C08C6002B0885
:1022EA00C5002A08C4006D2A0B305702031C7E2938
:1022FA007F292A2A3F30AD000030AC000030AB0005
:10230A000030AA000A30A0000030A1005708C80017
:10231A00C9014808A2004908A3000A168A153F22E3
:10232A000A168A11831203132008CA000130031007
:10233A00CA0DFF3E031D9C2903104A0D593E840015
:10234A000A128A150A200A168A11CB000A128A155D
:10235A000A200A168A11CC000A128A150A200A16BD
:10236A008A11CD000A128A150A200A168A11CE008D
:10237A004E08B1004D08B0004C08AF004B08AE0043
:10238A000A128A153C210A168A11831203132D0890
:10239A00D6002C08D5002B08D4002A08D3000A300E
:1023AA00F3000030F4005708C800C9014808F500D6
:1023BA004908F6000A168A15BF210A168A117308F7
:1023CA0083120313CA0001300310CA0DFF3E031D16
:1023DA00E92903104A0D353E84000A128A150A209B
:1023EA000A168A11CB000A128A150A200A168A11BD
:1023FA00CC000A128A150A200A168A11CD000A127E
:10240A008A150A200A168A11CE004E08AD004D0818
:10241A00AC004C08AB004B08AA005608B10055089E
:10242A00B0005408AF005308AE000A128A153C21C6
:10243A000A168A11831203132D08C7002C08C60036
:10244A002B08C5002A08C4006D2A3F30AD000030B1
:10245A00AC000030AB000030AA005708C8000130B9
:10246A000310C80DFF3E031D352A0310480D353EE3
:10247A0084000A128A150A200A168A11C9000A1249
:10248A008A150A200A168A11CA000A128A150A200F
:10249A000A168A11CB000A128A150A200A168A110C
:1024AA00CC004C08B1004B08B0004A08AF004908FC
:1024BA00AE000A128A153C210A168A1183120313E6
:1024CA002D08C7002C08C6002B08C5002A08C4001E
:1024DA000800831203135B088039E0006008E800F3
:1024EA005B08E0006007E1006108EA00DA1F7E2A63
:1024FA007F2A802A6A146A080319842A852A952A57
:10250A006A0A031D892A8A2A922A0030DB000030CF
:10251A00DA000030D9000030D800DA17DB019D2A32
:10252A000030DB000030DA000030D9000030D8007B
:10253A005F088039E0006008E90069086806031945
:10254A00A72AA82AA92A68175F08E0006007E100FD
:10255A006108E900DE1FB22AB32AB42A691469089D
:10256A000319B82AB92AC92A690A031DBD2ABE2A2B
:10257A00C62A0030DF000030DE000030DD00003007
:10258A00DC00DE17DF01D12A0030DF000030DE0078
:10259A000030DD000030DC006A0869020318D62A20
:1025AA00D72A1B2B681FDA2ADB2ADF2A8030E000B1
:1025BA006008E8066A08E0006008EB006908E000C5
:1025CA006008EA006B08E0006008E9005808E000CB
:1025DA006008EB005C08E0006008D8006B08E000C7
:1025EA006008DC005908E0006008EB005D08E000C4
:1025FA006008D9006B08E0006008DD005A08E000B6
:10260A006008EB005E08E0006008DA006B08E00092
:10261A006008DE005B08E0006008EB005F08E0008D
:10262A006008DB006B08E0006008DF00EB01690866
:10263A00E000E1016108E3006A086002E200031CAD
:10264A00E3036308803AFF0080307F02031D2F2BCB
:10265A001A306202031C322B332B702B83120313A2
:10266A005B085A0459045804031D3C2B3E2B0130C5
:10267A003F2B0030E0006008EB000030DB00003048
:10268A00DA000030D9000030D8006908E00060089C
:10269A00EA00782B6B1C522B532B5C2B6B08E00047
:1026AA000310600C0138E1006108EB005E2B031097
:1026BA00EB0C581C612B622B632BEB170130E000EB
:1026CA005B0DDB0CDA0CD90CD80CE00B652B013056
:1026DA00E0006008EA078312031369086A02031C10
:1026EA00772B782B4F2B681B7B2B7C2BC72B6A08ED
:1026FA00031D802B812B8A2B0030DB000030DA008F
:10270A000030D9000030D800F52C5C08D8075D08E5
:10271A0003110318013E0319932BD9075E0803110D
:10272A000318013E03199A2BDA075F0803110318ED
:10273A00013E0319A12BDB075B1CA42BA52B7B2CC9
:10274A006B1CA82BA92BB22B6B08E0000310600CA2
:10275A000138E1006108EB00B42B0310EB0C581CA4
:10276A00B72BB82BB92BEB170130E0005B0DDB0C54
:10277A00DA0CD90CD80CE00BBB2B0130E000600856
:10278A00EA077B2C5B08803AFF005F08803A7F02E9
:10279A00031DD92B5E085A02031DD92B5D08590265
:1027AA00031DD92B5C0858020318DC2BDD2B352CB2
:1027BA00FF30E000FF30E100FF30E200FF30E300CD
:1027CA005C08E4005D08E5005E08E6005F08E700D3
:1027DA005808E4025908031C590FF42BF52BE5029B
:1027EA005A08031C5A0FFA2BFB2BE6025B08031C40
:1027FA005B0F002C012CE7026408E0076508031848
:10280A00650F082C092CE10766080318660F0E2CC1
:10281A000F2CE20767080318670AE3076308DB005F
:10282A006208DA006108D9006008D8008030E00048
:10283A006008E806EB09EB0A6B08031D252C262C19
:10284A00432C0130D807003003180130D907003073
:10285A0003180130DA07003003180130DB07432C74
:10286A005C08D8025D08031C5D0FD9025E08031CD0
:10287A005E0FDA025F08031C5F0FDB025B085A0473
:10288A0059045804031D4A2C4B2C772C6B08031D42
:10289A004F2C502C772C0030DB000030DA0000304F
:1028AA00D9000030D800F52C0130E0000310D80D13
:1028BA00D90DDA0DDB0DE00B5B2CEB1F652C662CBA
:1028CA00672C58146B1C6A2C6B2C6E2C0314EB0DA2
:1028DA00702C0310EB0D6A080319742C752C772CD5
:1028EA000130EA02DA1F7A2C7B2C592CE901EB1F02
:1028FA007F2C802C8E2C6B087F390319852C862C13
:10290A00892CE901E90A8E2C581C8C2C8D2C8E2CD2
:10291A00862C69080319922C932CC72C0130D807EE
:10292A00003003180130D907003003180130DA07E4
:10293A00003003180130DB075B1CA42CA52CC72C24
:10294A005808E0005908E1005A08E2005B08E30071
:10295A000130E400630DE30CE20CE10CE00CE40B43
:10296A00AF2C6308DB006208DA006108D90060084E
:10297A00D8006A0A0319C22CC32CC72C0130E00004
:10298A006008EA076A0A0319CB2CCC2CD12C6A08F6
:10299A00031DD02CD12CDF2C0030DB000030DA00F4
:1029AA000030D9000030D8006A08031DDD2CDE2C67
:1029BA00DF2CE8016A1CE22CE32CE52CDA17E92C5F
:1029CA007F30E0006008DA056A08E0000310600C56
:1029DA00E1006108DB00E81FF32CF42CF52CDB176F
:1029EA00080083160313CF00A930B3003308BC00D4
:1029FA000A128A11872E253052060319052D062D33
:102A0A00122D5208B3004F08840033088313800044
:102A1A000130B3003308CF07FD2CBF01C001BD014F
:102A2A00BE01280884000A128A150A200A168A1189
:102A3A000A168A1588200A168A11031C252D262DA6
:102A4A00662D83160313BF01C0010A30F30000305C
:102A5A00F400831603134008F6003F08F5000A162F
:102A6A008A15F4200A168A11740883160313C00003
:102A7A007308BF00280884000A128A150A200A1659
:102A8A008A11D03EB300FF3003180030B400330877
:102A9A00BF070318C00A3408C0070130B30033085F
:102AAA00A807280884000A128A150A200A168A1119
:102ABA000A168A1588200A168A110318652D662DAA
:102ACA002A2D83160313280884000A128A150A205D
:102ADA000A168A112E3A031D732D742DB92D3E172D
:102AEA000130B3003308A807D001D101A82D0A305C
:102AFA00F3000030F400831603135108F60050085F
:102B0A00F5000A168A15F4200A168A117408831623
:102B1A000313D1007308D000280884000A128A150A
:102B2A000A200A168A11D03EB300FF30031800307B
:102B3A00B4003308D0070318D10A3408D10701308A
:102B4A00B3003308A807280884000A128A150A2045
:102B5A000A168A110A168A1588200A168A11031873
:102B6A00B72DB82D7C2DBF2DD001D1013E16BF2D1A
:102B7A003E15E12D013083160313A807FF302807FD
:102B8A0084000A128A150A200A168A11D200B30092
:102B9A00B4013408003A0319D32DFD2C3308003A46
:102BAA000319FD2F643A0319E12D023A0319BD2DC9
:102BBA000F3A0319E12DFD2C00303D05B300073013
:102BCA003E05B400330834040319EC2DEF2D0A1224
:102BDA008A11D82C3E1EF22DF32DF72D0630D00087
:102BEA000030D1003C08840083130008CB00840A1B
:102BFA000008CC00840A0008CD00840A0008CE0030
:102C0A000430B3003308BC074E0883120313A30031
:102C1A00831603134D0883120313A20083160313AA
:102C2A004C0883120313A100831603134B08831263
:102C3A000313A0000030A7000030A6000030A50052
:102C4A000030A4000A168A1525250A168A110318C7
:102C5A002F2E302E4D2E831603134E08F6004D08E4
:102C6A00F5004C08F4004B08F3000A168A15642094
:102C7A000A168A11760883160313CE007508CD004A
:102C8A007408CC007308CB000330BD040030BE04C6
:102C9A0083160313C901CA014E0883120313A30042
:102CAA00831603134D0883120313A200831603131A
:102CBA004C0883120313A100831603134B088312D3
:102CCA000313A0000030A7000030A6000030A500C2
:102CDA000030A4000A168A15D4220A168A1103188B
:102CEA00772E782E942F0310831603134D0D4E0D55
:102CFA00823EC900FF3003180030CA00FF30C907FE
:102D0A000318CA0AFF30CA070330F3000030F40080
:102D1A004A08F6004908F5000A168A15F4200A1628
:102D2A008A11740883160313CA007308C9000A308B
:102D3A0083120313A2000030A300831603134A0868
:102D4A0083120313A500831603134908831203137E
:102D5A00A4000A128A15D3200A168A1183120313B1
:102D6A00230883160313CA00831203132208831647
:102D7A000313C900CA1FC22EC32EC92EFF30C907AA
:102D8A000318CA0AFF30CA074903FF3A0A128A150A
:102D9A009D240A168A118312031347088316031304
:102DAA00C40083120313460883160313C300831255
:102DBA000313450883160313C2008312031344083E
:102DCA0083160313C1004E0883120313AD00831642
:102DDA0003134D0883120313AC00831603134C0824
:102DEA0083120313AB00831603134B0883120313D6
:102DFA00AA0083160313440883120313B10083162F
:102E0A000313430883120313B00083160313420803
:102E1A0083120313AF0083160313410883120313AB
:102E2A00AE000A128A153C210A168A11831203136C
:102E3A002D0883160313C400831203132C08831668
:102E4A000313C300831203132B0883160313C20050
:102E5A00831203132A0883160313C100440883123A
:102E6A000313A30083160313430883120313A20058
:102E7A0083160313420883120313A1008316031354
:102E8A00410883120313A0003F30A7008030A60038
:102E9A000030A5000030A4000A168A1525250A1656
:102EAA008A110318592F5A2F632FFF3083160313E1
:102EBA00C9070318CA0AFF30CA07942F83160313D7
:102ECA00440883120313A3008316031343088312CF
:102EDA000313A20083160313420883120313A100EB
:102EEA0083160313410883120313A0004130A7007D
:102EFA002030A6000030A5000030A4000A168A156A
:102F0A0025250A168A11031C8B2F8C2F942F01302A
:102F1A0083160313C9070318CA0A0030CA0783169F
:102F2A0003135108803AFF0080307F02031D9F2F50
:102F3A000D3050020318A22FA32FEA2F8316031372
:102F4A0050080A168A1161200A168A11831203137D
:102F5A004708DB004608DA004508D9004408D800CB
:102F6A00831603134E0883120313DF008316031319
:102F7A004D0883120313DE00831603134C088312D1
:102F8A000313DD00831603134B0883120313DC00BB
:102F9A000A168A116E220A168A11831203135B0813
:102FAA0083160313CE00831203135A0883160313DE
:102FBA00CD0083120313590883160313CC0083121E
:102FCA000313580883160313CB00831603134A0806
:102FDA00803AFF0080307F02031DF52F0A30490234
:102FEA000318FA2F0A128A111E280A128A117D283A
:062FFA000A128A119B2E51
:10308E000C308316031399000800831203138C1E51
:10309E00512852284C281A080800831603131812B8
:1030AE008312031398171816080064008001840A0F
:1030BE0004060319003404065D28760875047404AA
:1030CE00730403196B286C286E288030F6060800EE
:1030DE00F30083160313981C75287628702873083E
:1030EE00831203139900080000300A168A15D120A6
:1030FE000A168A1501300A168A15D1200A168A1563
:10310E000800F400F3013A30740203188F28902857
:10311E00982830307402031C952896289828F301BD
:10312E00F30A730C0800F5008312031309147508D3
:10313E000A168A1100200A168A158312031389149F
:10314E000D30F400F40BA9288312031389100330F9
:10315E00F400F40BB0280800F500F601C528760837
:10316E007507F4007408840000080A168A156F208B
:10317E000A168A150130F4007408F60776087507EA
:10318E00F4007408840083130008031DCF28D02890
:10319E00B6280800F60083120313091076080A16E3
:1031AE008A1100200A168A15831203138914063019
:1031BE00F5003030F400F40BE228F50BE2280000A5
:1031CE008312031389100330F5009730F400F40BCB
:1031DE00EE28F50BEE28F3280800F701F801731C12
:1031EE00F928FA2800297508F7070318F80A76084F
:1031FE00F80701300310F50DF60DFF3E031D0129F2
:10320E0001300310F40CF30CFF3E031D0829730864
:10321E007404031D13291429F6287808F40077087E
:10322E00F300080083120313A0002003031D2029BE
:10323E0021292D297708803EF8007808A100210861
:10324E000A168A15D1200A168A153E290230200642
:10325E00031D322933293E297708C03EF80078082D
:10326E00A10021080A168A15D1200A168A1508000F
:10327E0083120313A400A001A1017308F500F60147
:10328E007508A2007608A300241C4E294F29552943
:10329E002208A0070318A10A2308A1070130031072
:1032AE00A20DA30DFF3E031D56290310A40C2408E6
:1032BE00031D622963294B292108F4002008F3001D
:1032CE000800831603138901831203138901033047
:1032DE008316031788008901831603138601831250
:1032EE0003138601803083160313870083120313A2
:1032FE008701831603138801831203138801850146
:10330E0003308316031385000B178C1683120313D9
:10331E008C128B170800831203138C1E9729982981
:10332E00B8298C120A168A154C200A168A15F00036
:10333E007008F9002B307906031DA629A729AE299E
:10334E000130F000700883160313DB07B8292D3007
:10335E007906031DB329B429B82901308316031346
:10336E00DB0272088A00710E8300FE0E7E0E0900CB
:10337E00730874040319C429C529F429F801F80A3D
:10338E00D32901300310F30DF40DFF3E031DC9299F
:10339E000130F7007708F807F41FD629D729C82976
:1033AE0074087602031DDD2973087502031CE029DB
:1033BE00E129E7297308F5027408031CF603F602E7
:1033CE0001300310F40CF30CFF3E031DE82901300D
:1033DE00F802031DF329F429D7297608F40075089D
:1033EE00F300080083120313A301A401222A230869
:1033FE007607A1007708A0000318A00AA31F082AC9
:10340E00A003831203132008A2002208FF00210844
:10341E0084000A128A1500200A168A150A168A15C1
:10342E009A200A168A15013083120313A307031874
:10343E00A40A0030A40723087607A1007708A0008D
:10344E000318A00AA31F2C2AA0038312031320081B
:10345E00A2002208FF00210884000A128A1500200B
:10346E000A168A15003A031D3D2A3E2AFE29080037
:10347E0083120313A601A701200821040319482A69
:10348E00492A802AA501A50A572A01300310A00D4A
:10349E00A10DFF3E031D4D2A0130A4002408A507EF
:1034AE00A11F5A2A5B2A4C2A01300310A60DA70D24
:1034BE00FF3E031D5C2A21082302031D682A2008F3
:1034CE002202031C6B2A6C2A732A2008A2022108EE
:1034DE00031CA303A302261401300310A10CA00C9D
:1034EE00FF3E031D742A0130A502031D7F2A802A88
:1034FE005B2A2708A1002608A000080083120313E8
:10350E000910891000300A168A1100200A168A1531
:10351E001A30F800F830F700F70B932AF80B932ABD
:10352E00000030300A168A15D1200A168A15073087
:10353E00F8007D30F700F70BA22AF80BA22A3030E4
:10354E000A168A15D1200A168A150F30F800473050
:10355E00F700F70BB02AF80BB02AB52A30300A164E
:10356E008A15D1200A168A1538300A168A15D120E6
:10357E000A168A150C300A168A15D1200A168A15D3
:10358E0001300A168A15D1200A168A1506300A1637
:10359E008A15D1200A168A150800003083120313EB
:1035AE002005F30000302105F40080302205F500DF
:1035BE007F302305F6007608750474047304031D2A
:1035CE00E92AEA2AF22A0030A3000030A2000030D5
:1035DE00A1000030A00000302405F30000302505C6
:1035EE00F40080302605F5007F302705F6007608BA
:1035FE00750474047304031D052B062B0E2B00306B
:10360E00A7000030A6000030A5000030A400270857
:10361E002306031D1C2B26082206031D1C2B250822
:10362E002106031D1C2B2408200603191F2B202BFB
:10363E00222B0310232B0314080080308316031350
:10364E00A306270883120313DB0083160313260831
:10365E0083120313DA008316031325088312031350
:10366E00D90083160313240883120313D80083167C
:10367E000313230883120313DF0083160313220898
:10368E0083120313DE008316031321088312031320
:10369E00DD0083160313200883120313DC000A16C1
:1036AE008A116E220A168A15831203135B0883167B
:1036BE000313A300831203135A0883160313A200E5
:1036CE0083120313590883160313A10083120313E5
:1036DE00580883160313A0000800831203132B0847
:1036EE002A042904280403197D2B7E2BC12BB1013A
:1036FE00B10A8E2B0130B0000310A80DA90DAA0D32
:10370E00AB0DB00B832B0130B0003008B107AB1FEF
:10371E00912B922B812B2B082F02031DA02B2A08F5
:10372E002E02031DA02B29082D02031DA02B2808F5
:10373E002C02031CA32BA42BB22B2808AC022908A5
:10374E00031C290FAD022A08031C2A0FAE022B08F8
:10375E00031C2B0FAF0201300310AB0CAA0CA90CEB
:10376E00A80CFF3E031DB32B0130B102031DC02B6D
:10377E00C12B922B2F08AB002E08AA002D08A900F2
:10378E002C08A800080083120313CC004C080A165C
:10379E008A1589240A168A15831203131F140C30F6
:1037AE0083120313C800C80BDA2B00008312031315
:1037BE009F149F18E32BE42BE02B3C30AD00A03080
:1037CE00AC009030AB002E30AA001E08C800C90114
:1037DE00CA01CB014B08F6004A08F5004908F4006F
:1037EE004808F30001300A168A15C9250A168A15EB
:1037FE00760883120313B1007508B0007408AF0089
:10380E007308AE000A128A153C210A168A15831215
:10381E0003132D08D0002C08CF002B08CE002A0849
:10382E00CD005008C7004F08C6004E08C5004D0811
:10383E00C40008000030F7000030F6000030F5003C
:10384E000030F40083120313230822042104200401
:10385E000319322C332C802CF801F80A432C01303A
:10386E00F3000310A00DA10DA20DA30DF30B382C28
:10387E000130F3007308F807A31F462C472C362C93
:10388E000130F3000310F40DF50DF60DF70DF30BEB
:10389E00492C23082702031D5E2C22082602031D35
:1038AE005E2C21082502031D5E2C20082402031C19
:1038BE00612C622C712C2008A4022108031C210FFC
:1038CE00A5022208031C220FA6022308031C230FA5
:1038DE00A702741401300310A30CA20CA10CA00CAF
:1038EE00FF3E031D722C0130F802031D7F2C802C2D
:1038FE00472C7708A3007608A2007508A10074086B
:10390E00A0000800F500F02CC330831203139F05AE
:10391E00242D831203131F08C33904389F00242D4E
:10392E00831203131F08C33908389F00242D8312F6
:10393E0003131F08C3390C389F00242D8312031361
:10394E001F08C33910389F00242D831203131F083C
:10395E00C33914389F00242D831203131F08C33953
:10396E0018389F00242D831203131F08C3391C38E7
:10397E009F00242D831203131F08C33920389F0084
:10398E00242D831203131F08C33924389F00242DBE
:10399E00831203131F08C33928389F00242D831266
:1039AE0003131F08C3392C389F00242D83120313D1
:1039BE001F08C33930389F00242D831203131F08AC
:1039CE00C33934389F00242DC330831203139F054F
:1039DE00242D7508F300F4017408003A0319F82C2D
:1039EE00EB2C7308003A03198B2C013A0319902C17
:1039FE00033A0319972C013A03199E2C073A03191F
:103A0E00A52C013A0319AC2C033A0319B32C013A35
:103A1E000319BA2C0F3A0319C12C013A0319C82CF9
:103A2E00033A0319CF2C013A0319D62C073A03197E
:103A3E00DD2C013A0319E42CEB2C08000030831224
:103A4E0003132005F30000302105F4008030220519
:103A5E00F5007F302305F6007608750474047304B0
:103A6E00031D3A2D3B2D432D0030A3000030A20044
:103A7E000030A1000030A00000302405F30000301B
:103A8E002505F40080302605F5007F302705F60069
:103A9E007608750474047304031D562D572D5F2D7F
:103AAE000030A7000030A6000030A5000030A400B2
:103ABE00A31F622D632D872D0030F3000030F4001C
:103ACE000030F5008030F6002008F3022108031CB8
:103ADE00210F722D732DF4022208031C220F782D54
:103AEE00792DF5022308031C230F7E2D7F2DF60260
:103AFE007608A3007508A2007408A1007308A00040
:103B0E00A71F8A2D8B2DAF2D0030F3000030F4004F
:103B1E000030F5008030F6002408F3022508031C5F
:103B2E00250F9A2D9B2DF4022608031C260FA02D7F
:103B3E00A12DF5022708031C270FA62DA72DF6028F
:103B4E007608A7007508A6007408A5007308A400DF
:103B5E008030A3068030A70627082302031DC12D3F
:103B6E0026082202031DC12D25082102031DC12D89
:103B7E00240820020318C42DC52DC72D0310C82DEF
:103B8E000314080083120313A40024080319D02D74
:103B9E00D12DE52DF61FD42DD52DE52D7309A600BB
:103BAE007409A7007509A8007609A900A60A0319C9
:103BBE00A70A0319A80A0319A90AED2D7608A90068
:103BCE007508A8007408A7007308A6007608750487
:103BDE0074047304031DF42DF52DFE2D0030F60034
:103BEE000030F5000030F4000030F300842E9630E3
:103BFE00A0002008A500102E0130A0002008A50767
:103C0E0001300310A90CA80CA70CA60CFF3E031D37
:103C1E00082EFE302905031D152E162E032E322ECC
:103C2E000130A0002008A5070130A60700300318B8
:103C3E000130A707003003180130A8070030031821
:103C4E000130A90701300310A90CA80CA70CA60C73
:103C5E00FF3E031D2A2EFF302905031D372E382E59
:103C6E00172E442E0130A5020130A0000310A60D20
:103C7E00A70DA80DA90DA00B3D2EA81B472E482E53
:103C8E004E2E0230250203184D2E4E2E392E25189B
:103C9E00512E522E5A2EFF30A605FF30A7057F302B
:103CAE00A805FF30A9050310A50C2508A000A10149
:103CBE00A201A30118300310A00DA10DA20DA30D9A
:103CCE00FF3E031D622E2008A6042108A704220829
:103CDE00A8042308A90424080319762E772E7C2E17
:103CEE00F61F7A2E7B2E7C2EA9172908F60028089F
:103CFE00F5002708F4002608F300080083120313CA
:103D0E002008F3002108F4002208F5000310740DBA
:103D1E00750DF6007608AD002D08031D972E982E12
:103D2E00A12E0030A3000030A2000030A100003010
:103D3E00A000412F2408F3002508F4002608F50002
:103D4E000310740D750DF6007608AC002C08031DDB
:103D5E00B12EB22EB32E982EA117FF30A005FF3034
:103D6E00A1050030A205A517FF30A405FF30A5055B
:103D7E000030A6050030AB000030AA000030A900CC
:103D8E000030A8007F30AD0298302C07F300730886
:103D9E00AD021830F3007308AC000130F3000310CD
:103DAE00A80DA90DAA0DAB0DF30BD62E26082202D7
:103DBE00031DE72E25082102031DE72E24082002ED
:103DCE00031CEA2EEB2EF62E2408A0022508031C57
:103DDE00250FA1022608031C260AA2022814013070
:103DEE000310A00DA10DA20DFF3E031DF72E0130F5
:103DFE00AC02031D032F042FD42EAD1F072F082F47
:103E0E00222F2D08803A973E03180E2F0F2F102FBA
:103E1E00982E01300310AB0CAA0CA90CA80CFF3E77
:103E2E00031D112F0130F3007308AD07031D202F62
:103E3E00212F102F392F18302D02031C272F282F3A
:103E4E00342F982E0130F3000310A80DA90DAA0DE2
:103E5E00AB0DF30B2B2F0130AD022D08031D382FA8
:103E6E00392F292F2B08A3002A08A2002908A10008
:103E7E002808A0000800031083120313220D230D3F
:103E8E00F3007308AD002D08031D4E2F4F2F582F32
:103E9E000030A3000030A2000030A1000030A000CE
:103EAE00FF2F0310260D270DF3007308AC002C080E
:103EBE00031D622F632F642F4F2FA217FF30A00513
:103ECE00FF30A105FF30A2050030A305A617FF3075
:103EDE00A405FF30A505FF30A6050030A70500306C
:103EEE00AB000030AA000030A9000030A8007F30DF
:103EFE00AD02A0302C07F3007308AD022030F300A2
:103F0E007308AC000130F3000310A80DA90DAA0D23
:103F1E00AB0DF30B8B2F27082302031DA02F2608B2
:103F2E002202031DA02F25082102031DA02F240805
:103F3E002002031CA32FA42FB32F2408A0022508B0
:103F4E00031C250FA1022608031C260FA202270818
:103F5E00031C270FA30228140130F3000310A00D39
:103F6E00A10DA20DA30DF30BB52F0130AC02031D55
:103F7E00C12FC22F892FAD1FC52FC62FE02F2D08A1
:103F8E00803A9F3E0318CC2FCD2FCE2F4F2F0130CE
:103F9E000310AB0CAA0CA90CA80CFF3E031DCF2FCF
:103FAE000130F3007308AD07031DDE2FDF2FCE2F78
:103FBE00F72F20302D02031CE52FE62FF22F4F2F67
:103FCE000130F3000310A80DA90DAA0DAB0DF30BD4
:103FDE00E92F0130AD022D08031DF62FF72FE72F25
:103FEE002B08A3002A08A2002908A1002808A00077
:023FFE000800B9
:04400E00D120FF3F7F
:00000001FF
