:020000040000FA
:060000000A128A110C280F
:10000800FE00030EF0000A08F1000A168A1593286C
:100018000A128A110F28FB018313D1308400EE30B5
:100028000A168A159A200A128A1183010A168A1555
:10003800E12D831603134908F5004808F400470822
:10004800F3004608F2000030F9000030F8000030F4
:10005800F7000030F6000A168A1583220A128A1160
:10006800031837283828E028831603134908831211
:100078000313D80083160313480883120313D70009
:1000880083160313470883120313D600831603133A
:10009800460883120313D5000A128A1502200A1291
:1000A8008A11831203135808570456045504031D74
:1000B8005E285F28E028831603134508803AFF006E
:1000C80080307F02031D6A2802304402031C6D2819
:1000D8006E28E028831603133F08F5003E08F40055
:1000E8003D08F3003C08F2004030F9008930F80080
:1000F8007030F7005F30F6000A168A153D250A129F
:100108008A110318882889289228F7308316031340
:10011800C4070318C50AFF30C5079A28F8308316A4
:100128000313C4070318C50AFF30C50744080A1299
:100138008A159D240A128A1183120313450883160F
:100148000313BF0083120313440883160313BE006E
:1001580083120313430883160313BD00831203138A
:10016800420883160313BC004908F5004808F40048
:100178004708F3004608F2003F08F9003E08F80077
:100188003D08F7003C08F6000A128A157E200A127C
:100198008A11750883160313C3007408C200730814
:1001A800C1007208C0000030C9000030C80000302B
:1001B800C7000030C6004629831603134908831276
:1001C8000313D80083160313480883120313D700B8
:1001D80083160313470883120313D60083160313E9
:1001E800460883120313D5000A128A1502200A1240
:1001F8008A1183120313580883160313C30083124A
:100208000313570883160313C200831203135608F7
:1002180083160313C10083120313550883160313AF
:10022800C0004308F5004208F4004108F300400804
:10023800F20000300A168A1587260A128A117508F4
:1002480083160313A3007408A2007308A1007208A0
:10025800A0004908A7004808A6004708A5004608C6
:10026800A4000A168A15D3220A128A1183160313C8
:100278002308C9002208C8002108C7002008C600B2
:10028800C401C501CD01CD0A4D0883120313EA004C
:1002980001300310EA0DFF3E031D4D2903106A0DBE
:1002A800693E84000A128A110A270A128A11EB0091
:1002B8000A128A110A270A128A11EC000A128A11F4
:1002C8000A270A128A11ED000A128A110A270A124D
:1002D8008A11EE006E08831603134302031D8A2950
:1002E800831203136D08831603134202031D8A2920
:1002F800831203136C08831603134102031D8A2912
:10030800831203136B0883160313400203188D2905
:100318008E298F299D29013083120313EA006A0868
:1003280083160313CD070A304D06031D9C299D290A
:1003380048294D084B0783120313EA008316031359
:100348004C0803184C0A83120313EB00831603139B
:100358004408831203136A07EC0083160313450845
:100368000318450A831203136B07ED006C08831604
:100378000313BA02831203136D0883160313031CB5
:10038800BB03BB024B084C040319CB29CC29D22947
:10039800FF30BA070318BB0AFF30BB070330380524
:1003A80083120313EA0000308316031339058312FE
:1003B8000313EB006A086B040319E329E429012AF3
:1003C800FF3083160313BA070318BB0AFF30BB07B5
:1003D800012A203083120313EA00831603134A0804
:1003E8008400831203136A08831380000130EA0033
:1003F8006A0883160313CA07E429831603133B0804
:10040800803AFF0080307F02031D0C2A01303A0237
:1004180003180F2A102AED29033083160313380511
:1004280083120313EA00003083160313390583127D
:100438000313EB006A086B040319232A242AC82A29
:100448002D30EA00831603134A088400831203132D
:100458006A08831380000130EA006A0883160313D0
:10046800CA07C82A4D0883120313EA000130031093
:10047800EA0DFF3E031D3B2A03106A0D693E840006
:100488000A128A110A270A128A11F2000A128A111C
:100498000A270A128A11F3000A128A110A270A1275
:1004A8008A11F4000A128A110A270A128A11F50021
:1004B800831603134308F9004208F8004108F700BF
:1004C8004008F6000A168A15D0230A128A11750800
:1004D80083160313BF007408BE007308BD007208BA
:1004E800BC00003083120313A8000030A7000030BE
:1004F800A6000A30A500831603133F0883120313CE
:10050800AC00831603133E0883120313AB00831653
:1005180003133D0883120313AA00831603133C0830
:1005280083120313A9000A168A1523230A128A11B3
:1005380083120313280883160313BF0083120313BF
:10054800270883160313BE00831203132608831695
:100558000313BD0083120313250883160313BC007D
:100568003C08303E83120313EA00831603134A083B
:100578008400831203136A08831380000130EA00A1
:100588006A0883160313CA07013083160313CD02C2
:100598004D0A031DD02AD12A362AEB2A303083127D
:1005A8000313EA00831603134A0884008312031313
:1005B8006A08831380000130EA006A08831603136F
:1005C800CA07FF30C4070318C50AFF30C507450826
:1005D800803AFF0080307F02031DF42A0130440274
:1005E8000318F72AF82AD22A831603134C08803AEC
:1005F800FF0080307F02031D032B09304B02031CD0
:10060800062B072B102B083083120313EA006A0805
:1006180083160313CD001A2B831603134B0883127A
:100628000313EA006A0883160313CD004D088312EA
:100638000313EA00EB016A0883160313CB02831243
:1006480003136B0883160313031CCC03CC024D0859
:1006580003192F2B302B432B2E3083120313EA0060
:10066800831603134A088400831203136A0883134A
:1006780080000130EA006A0883160313CA074D0890
:100688000A128A159D240A128A1183120313450837
:1006980083160313B6008312031344088316031347
:1006A800B50083120313430883160313B40083129F
:1006B8000313420883160313B30036088312031387
:1006C800AF0083160313350883120313AE00831695
:1006D8000313340883120313AD008316031333087E
:1006E80083120313AC008316031349088312031300
:1006F800AB0083160313480883120313AA0083165A
:100708000313470883120313A9008316031346082B
:1007180083120313A8000A128A153C210A128A11AF
:10072800831203132B08D8002A08D7002908D600FB
:100738002808D5000A128A1502200A128A11831283
:100748000313580883160313C300831203135708AF
:1007580083160313C2008312031356088316031368
:10076800C10083120313550883160313C000A92C74
:100778004D0883120313EA0001300310EA0DFF3E0F
:10078800031DC12B03106A0D693E84000A128A11E9
:100798000A270A128A11F2000A128A110A270A1273
:1007A8008A11F3000A128A110A270A128A11F40020
:1007B8000A128A110A270A128A11F50083160313EE
:1007C8004308F9004208F8004108F7004008F6001D
:1007D8000A168A15D0230A128A117508831603137C
:1007E800BF007408BE007308BD007208BC0000306A
:1007F80083120313A8000030A7000030A6000A30B7
:10080800A500831603133F0883120313AC00831655
:1008180003133E0883120313AB00831603133D082A
:1008280083120313AA00831603133C0883120313CD
:10083800A9000A168A1523230A128A1183120313A0
:10084800280883160313BF0083120313270883168F
:100858000313BE0083120313260883160313BD0077
:1008680083120313250883160313BC003C08303E8B
:1008780083120313EA00831603134A0884008312C1
:1008880003136A08831380000130EA006A0883169C
:100898000313CA074D0883120313EA00013003103B
:1008A800EA0DFF3E031D532C03106A0D693E8400B8
:1008B8000A128A110A270A128A11A5000A128A1135
:1008C8000A270A128A11A6000A128A110A270A128E
:1008D8008A11A7000A128A110A270A128A11A80087
:1008E80083160313430883120313AC008316031300
:1008F800420883120313AB008316031341088312C3
:100908000313AA0083160313400883120313A900D4
:100918000A168A1523230A128A1183120313280838
:1009280083160313C30083120313270883160313C4
:10093800C20083120313260883160313C10083120F
:100948000313250883160313C0000130CD024D0A96
:10095800031DAF2CB02CBC2BCA2C303083120313D0
:10096800EA00831603134A088400831203136A08F3
:10097800831380000130EA006A0883160313CA074C
:10098800FF30CB070318CC0AFF30CC074B084C04C8
:10099800031DCF2CD02CB12CDA2E83160313370865
:1009A80084008313000883120313EA00840A0008F2
:1009B800EB006A0883160313C000831203136B0845
:1009C80083160313C1000030C11BFF30C200C300EF
:1009D800023083120313EA006A0883160313B70769
:1009E800C31FF72CF82C072D0330B8040030B904C6
:1009F800C009C109C209C309C00A0319C10A0319F8
:100A0800C20A0319C30A4B084C04031D0C2D0D2DF3
:100A18001B2D4308420441044004031D142D152DC9
:100A28001B2D0130CB070318CC0A0030CC07CD01B1
:100A3800CD0A4D0883120313EA0001300310EA0DB2
:100A4800FF3E031D222D03106A0D693E84000A1221
:100A58008A110A270A128A11EB000A128A110A2738
:100A68000A128A11EC000A128A110A270A128A113C
:100A7800ED000A128A110A270A128A11EE006E087E
:100A8800831603134302031D5F2D831203136D089E
:100A9800831603134202031D5F2D831203136C0890
:100AA800831603134102031D5F2D831203136B0882
:100AB8008316031340020318622D632D642D722DD3
:100AC800013083120313EA006A0883160313CD0763
:100AD8000A304D06031D712D722D1D2D4C08803ACC
:100AE800803C031D792D4B084D0203187C2D7D2D6C
:100AF800882D831603134B0883120313EA006A0830
:100B080083160313CD00AC2D831603134C08803ACB
:100B180083120313EA0080306A02031D972D83169F
:100B280003134D084B0203189A2D9B2DAC2D8316E9
:100B380003134D0883120313EA00EB016A088316B6
:100B48000313CB00831203136B0883160313CC0023
:100B5800831603133A083B040319B32DB42DCE2D85
:100B68000330380583120313EA0000308316031399
:100B7800390583120313EB006A086B040319C52DAA
:100B8800C62DCE2DFF3083160313BA070318BB0AF0
:100B9800FF30BB0783160313391FD32DD42DF72D30
:100BA8004C08803A83120313EA00831603133B08A8
:100BB800803A831203136A02031DE62D831603137A
:100BC8003A084B020318E92DEA2DF32D8316031377
:100BD8004B08BA024C08031CBB03BB02F72D831653
:100BE8000313BA01BB013B08803A803C031DFE2D6C
:100BF8003A084D020318012E022E162E83160313EF
:100C08004D0883120313EA00EB016A0883160313E5
:100C1800BA02831203136B0883160313031CBB0366
:100C2800BB021A2E83160313BA01BB013A083B0410
:100C380003191F2E202E3F2E203083120313EA00A3
:100C4800831603134A088400831203136A08831364
:100C580080000130EA006A0883160313CA07FF30D0
:100C6800BA070318BB0AFF30BB073A083B04031D49
:100C78003E2E3F2E202E0330380583120313EA0040
:100C8800003083160313390583120313EB006A0837
:100C98006B040319502E512ECA2E2D30EA008316EC
:100CA80003134A088400831203136A08831380001D
:100CB8000130EA006A0883160313CA07CA2E0030F7
:100CC80083120313A8000030A7000030A6000A30E2
:100CD800A500831603134B0883120313EA0001309F
:100CE8000310EA0DFF3E031D742E03106A0D693EC2
:100CF80084000A128A110A270A128A11F2000A12BB
:100D08008A110A270A128A11F3000A128A110A277D
:100D18000A128A11F4000A128A110A270A128A1181
:100D2800F500831603134308F9004208F800410848
:100D3800F7004008F6000A168A15D0230A128A110D
:100D4800750883120313AC007408AB007308AA007B
:100D58007208A9000A168A1523230A128A11831217
:100D680003132508303EEB006B0883160313CD00F0
:100D78004D0883120313EA00831603134A088400FC
:100D8800831203136A08831380005C2EFF308316D6
:100D98000313CB070318CC0AFF30CC074B0A031DFB
:100DA800D92E4C0A031DD92EDA2E632E0130831654
:100DB8000313A807FF30280784000A128A110A279C
:100DC8000A128A1183120313EA006A0883160313AE
:100DD800CD004D08031DF12EF42E0A168A11022D9E
:0E0DE800831603134A08840083138001080059
:100E0000FF1B0A2F83137F1883170008840A031916
:100E1000FF0A080007308A000408840A82070034A9
:100E20000034003480343F34003400342034413402
:100E300000340034C8344234003400347A3444344A
:100E4000003440341C34463400345034C334473406
:100E500000342434743449348034963418344B3498
:100E60002034BC34BE344C3428346B346E344E34AD
:100E7000F934023415345034EC347834AD34603401
:100E8000CA34F234493471340034003480343F348D
:100E9000CD34CC34CC343D340A34D73423343C34D0
:100EA0006F34123483343A341734B734D13438348D
:100EB000AC34C53427343734BD3437348634353414
:100EC0009534BF34D63433347734CC342B34323485
:100ED0005F34703489343034FF34E634DB342E34FC
:100EE0000834E5343C341E3460344234A2340D34CA
:100EF00001340034003400340A3400340034003447
:100F00006434003400340034E834033400340034F2
:100F10001034273400340034A034863401340034D3
:100F2000403442340F3400348034963498340034E2
:100F30000034E134F53405340034CA349A343B3497
:100F4000253431342E343234663420342034203485
:100F5000253431342E343234663420342034203475
:100F60002534643400345634313420342034203471
:100F70005634323420342034203443344F344E3409
:100F800054340034720873040319C72FC82FF72F85
:100F9000F701F70AD62F01300310F20DF30DFF3ED3
:100FA000031DCC2F0130F6007608F707F31FD92F69
:100FB000DA2FCB2F73087502031DE02F720874021D
:100FC000031CE32FE42FEA2F7208F4027308031CBA
:100FD000F503F50201300310F30CF20CFF3E031D84
:100FE000EB2F0130F702031DF62FF72FDA2F7508CC
:080FF000F3007408F200080090
:10100400031083120313570D580DD9005908DF003C
:101014005F08031D0E280F2818280030D800003060
:10102400D7000030D6000030D5007D285508D900FF
:101034005608DA005708DB005808DC001F3003109C
:10104400DC0CDB0CDA0CD90CFF3E031D21285908FB
:10105400DD005D08DE00D717FF30D505FF30D6056B
:10106400FF30D7050030D8059630DF02DF1F3B285C
:101074003C2856285F08803A973E031842284328A4
:1010840044280F2801300310D80CD70CD60CD50CEB
:10109400FF3E031D45280130D9005908DF07031D11
:1010A4005428552844286D2820305F02031C5B28EF
:1010B4005C2868280F280130D9000310D50DD60DFF
:1010C400D70DD80DD90B5F280130DF025F08031D4F
:1010D4006C286D285D285E080319712872287D2804
:1010E400D509D609D709D809D50A0319D60A031987
:1010F400D70A0319D80A08000310740D750DFA00F5
:101104007A0883120313A5002508031D8A288B2857
:1011140094280030F5000030F4000030F300003073
:10112400F2003B290310780D790DFA007A08A40027
:101134002408031D9E289F28A0288B28F417FF301D
:10114400F205FF30F305FF30F4050030F505F8171C
:10115400FF30F605FF30F705FF30F8050030F905DC
:101164000030A3000030A2000030A1000030A00035
:101174007F30A502A0302407FA007A08A5022030A7
:10118400FA007A08A4000130FA000310A00DA10DA2
:10119400A20DA30DFA0BC72879087502031DDC28DC
:1011A40078087402031DDC2877087302031DDC2809
:1011B40076087202031CDF28E028EF287608F20282
:1011C4007708031C770FF3027808031C780FF402E6
:1011D4007908031C790FF50220140130FA0003107A
:1011E400F20DF30DF40DF50DFA0BF1280130A40204
:1011F400031DFD28FE28C528A51F012902291C2935
:101204002508803A9F3E0318082909290A298B28B2
:1012140001300310A30CA20CA10CA00CFF3E031D73
:101224000B290130FA007A08A507031D1A291B2986
:101234000A29332920302502031C212922292E2999
:101244008B280130FA000310A00DA10DA20DA30DEF
:10125400FA0B25290130A5022508031D322933295B
:1012640023292308F5002208F4002108F3002008AC
:10127400F2000800831203132B088039B0003008F1
:10128400B5002B08B0003007B1003108BB00AA1F1D
:101294004C294D294E293B143B0803195229532943
:1012A40062293B0A031D5729582960290030AB00E5
:1012B4000030AA000030A9000030A800AA176A294B
:1012C4000030AB000030AA000030A9000030A800B4
:1012D4002F088039B0003008B5062F08B000300759
:1012E400B1003108BA00AE1F782979297A293A1455
:1012F4003A0803197E297F298E293A0A031D832976
:1013040084298C290030AF000030AE000030AD00DD
:101314000030AC00AE1796290030AF000030AE00AC
:101324000030AD000030AC003A0803199A299B291B
:10133400A0293B08031D9F29A029A9290030AB003F
:101344000030AA000030A9000030A8009C2C280816
:10135400B0003008F2002E080A168A1581210A12FC
:101364008A15730883120313C1007208C000400871
:10137400B000B101B201B3013308B9003208B800BA
:101384003108B7003008B6004108B000B101B2011D
:10139400B3013308BF003208BE003108BD00300875
:1013A400BC002908B0003008F2002D080A168A157E
:1013B40081210A128A15730883120313C10072086B
:1013C400C0004008B000B101B201B3013008B60753
:1013D400310803110318013E0319F129B707320834
:1013E40003110318013E0319F829B8073308031140
:1013F4000318013E0319FF29B9074108B000B101E0
:10140400B201B3013008BC07310803110318013ECF
:1014140003190D2ABD07320803110318013E0319ED
:10142400142ABE07330803110318013E03191B2AAB
:10143400BF072A08B0003008F2002C080A168A15E3
:1014440081210A128A15730883120313C1007208DA
:10145400C0004008B000B101B201B3013008B607C2
:10146400310803110318013E0319392AB70732085A
:1014740003110318013E0319402AB8073308031166
:101484000318013E0319472AB9074108B000B10106
:10149400B201B3013008BC07310803110318013E3F
:1014A4000319552ABD07320803110318013E031915
:1014B4005C2ABE07330803110318013E0319632A8B
:1014C400BF070830B0000310B60DB70DB80DB90D45
:1014D400B00B652A2908B0003008F2002C080A165F
:1014E4008A1581210A128A15730883120313C10015
:1014F4007208C0004008B0004108B100B201B30155
:101504003008B607310803110318013E03198B2A6A
:10151400B707320803110318013E0319922AB807CA
:10152400330803110318013E0319992AB90728083F
:10153400B0003008F2002D080A168A1581210A121B
:101544008A15730883120313C1007208C00040088F
:10155400B0004108B100B201B3013008B607310848
:1015640003110318013E0319B82AB70732080311FF
:101574000318013E0319BF2AB807330803110318DF
:10158400013E0319C62AB9070830B0000310B60D8E
:10159400B70DB80DB90DB00BC82A2808B000300833
:1015A400F2002C080A168A1581210A128A1573087A
:1015B40083120313C1007208C0004008B000410840
:1015C400B100B201B3013008B607310803110318A2
:1015D400013E0319EE2AB707320803110318013E2E
:1015E4000319F52AB807330803110318013E031938
:1015F400FC2AB9072908B0003008F2002E080A16A0
:101604008A1581210A128A15730883120313C100F3
:101614007208C0004008B0004108B100B201B30133
:101624003008BC07310803110318013E03191B2BB2
:10163400BD07320803110318013E0319222BBE070C
:10164400330803110318013E0319292BBF072A0885
:10165400B0003008F2002D080A168A1581210A12FA
:101664008A15730883120313C1007208C00040086E
:10167400B0004108B100B201B3013008BC07310821
:1016840003110318013E0319482BBD073208031147
:101694000318013E03194F2BBE0733080311031827
:1016A400013E0319562BBF072A08B0003008F20088
:1016B4002E080A168A1581210A128A1573088312C4
:1016C4000313C1007208C0004008B0004108B10013
:1016D400B201B30108300310B00DB10DB20DB30D5A
:1016E400FF3E031D6D2B3008BC073108031103189E
:1016F400013E03197E2BBD07320803110318013E76
:101704000319852BBE07330803110318013E03197F
:101714008C2BBF073608B0003708B1003808B20078
:101724003908B30018300310B30CB20CB10CB00C70
:10173400FF3E031D952B3008BC0731080311031825
:10174400013E0319A62BBD07320803110318013EFD
:101754000319AD2BBE07330803110318013E031907
:10176400B42BBF070830B0000310B60DB70DB80D89
:10177400B90DB00BB62B3B083A07B000B101B10D5F
:101784003008823EC00031080318013EFF3EC1000C
:10179400E82B0130B0000310BC0DBD0DBE0DBF0D14
:1017A400B00BCD2BB91FD72BD82BD92B3C14013020
:1017B400B0000310B60DB70DB80DB90DB00BDB2B8F
:1017C400FF30C0070318C10AFF30C107BE1FEB2B4F
:1017D400EC2BCB2BBA01B91FF02BF12B0D2CFF30C6
:1017E4003605B000FF303705B100FF303805B200D0
:1017F4007F303905B300330832043104300403194F
:10180400042C052C082CBA01BA0A0D2C3C1C0B2CF8
:101814000C2C0D2C052C3A080319112C122C432CDA
:101824000130BC07003003180130BD070030031835
:101834000130BE07003003180130BF073F1C232CC2
:10184400242C432C3C08B0003D08B1003E08B200F3
:101854003F08B3000130B400330DB30CB20CB10C2B
:10186400B00CB40B2E2C3308BF003208BE00310874
:10187400BD003008BC000130C0070318C10A0030A5
:10188400C1074108803AFF0080307F02031D4C2CC1
:10189400FF304002031C4F2C502C5B2C7F308312F2
:1018A4000313BF008030BE000030BD000030BC0018
:1018B400902C831203134108803AFF0080307F028A
:1018C400031D662C013040020318692C6A2C762C07
:1018D400003083120313BF000030BE000030BD008F
:1018E4000030BC00B501902C831203134008B000F3
:1018F4003008BB00FF30BC05FF30BD057F30BE059E
:101904000030BF053B1C872C882C892CBE173B0854
:10191400B0000310300CB1003108BF003508B0002E
:101924003008BF043F08AB003E08AA003D08A900E8
:101934003C08A800080083120313D400D41FA32C6E
:10194400A42C532ED409D40A5408803A123E031C02
:10195400AC2CAD2C972D0A30A0000030A100540807
:10196400F400F501F41BF5036430F2000030F300D9
:101974000A168A1106200A128A15730883120313A1
:10198400A3007208A2000A168A1538240A128A15BE
:10199400831203132008C60001300310C60DFF3E56
:1019A400031DCF2C0310460D593E84000A128A11E0
:1019B4000A270A128A15C7000A128A110A270A126C
:1019C4008A15C8000A128A110A270A128A15C90040
:1019D4000A128A110A270A128A15CA004A08AB0099
:1019E4004908AA004808A9004708A8006430A000D4
:1019F4000030A1005408A200A301A21BA3030A16ED
:101A04008A1538240A128A15831203132008CB007E
:101A140001300310CB0DFF3E031D0B2D03104B0DA6
:101A24007D3E84000A128A110A270A128A15CC0004
:101A34000A128A110A270A128A15CD000A128A117B
:101A44000A270A128A15CE000A128A110A270A12D4
:101A54008A15CF004F08AF004E08AE004D08AD0008
:101A64004C08AC000A128A153C210A128A1583120A
:101A740003132B08D3002A08D2002908D100280810
:101A8400D0000A30F2000030F3005408F400F501ED
:101A9400F41BF5030A168A1106200A128A15720825
:101AA40083120313C60001300310C60DFF3E031D4D
:101AB400562D0310460D353E84000A128A110A275A
:101AC4000A128A15C7000A128A110A270A128A15ED
:101AD400C8000A128A110A270A128A15C9000A12B2
:101AE4008A110A270A128A15CA004A08AB00490853
:101AF400AA004808A9004708A8005308AF005208E4
:101B0400AE005108AD005008AC000A128A153C2101
:101B14000A128A15831203132B08C5002A08C4006D
:101B24002908C3002808C200FF2F5408803A753ED4
:101B3400031C9D2D9E2D262E0A30F2000030F3004A
:101B44005408F400F501F41BF5030A168A11062063
:101B54000A128A15720883120313C6000130031097
:101B6400C60DFF3E031DB12D0310460D353E840006
:101B74000A128A110A270A128A15C7000A128A1140
:101B84000A270A128A15C8000A128A110A270A1299
:101B94008A15C9000A128A110A270A128A15CA006C
:101BA4004A08AB004908AA004808A9004708A80049
:101BB4000A30A0000030A1005408A200A301A21B17
:101BC400A3030A168A1538240A128A1583120313EA
:101BD4002008CB0001300310CB0DFF3E031DED2D7B
:101BE40003104B0D593E84000A128A110A270A1267
:101BF4008A15CC000A128A110A270A128A15CD0006
:101C04000A128A110A270A128A15CE000A128A11A8
:101C14000A270A128A15CF004F08AF004E08AE00FB
:101C24004D08AD004C08AC000A128A153C210A127A
:101C34008A15831203132B08C5002A08C400290837
:101C4400C3002808C200FF2F5408C6000130031047
:101C5400C60DFF3E031D292E0310460D353E84009C
:101C64000A128A110A270A128A15C7000A128A114F
:101C74000A270A128A15C8000A128A110A270A12A8
:101C84008A15C9000A128A110A270A128A15CA007B
:101C94004A08C5004908C4004808C3004708C200F0
:101CA400FF2F5408803A123E031C592E5A2E442FFB
:101CB4000A30A0000030A1005408F400F501F41B20
:101CC400F5036430F2000030F3000A168A1106208E
:101CD4000A128A15730883120313A3007208A20060
:101CE4000A168A1538240A128A1583120313200847
:101CF400C60001300310C60DFF3E031D7C2E0310E9
:101D0400460D253E84000A128A110A270A128A15F2
:101D1400C7000A128A110A270A128A15C8000A1271
:101D24008A110A270A128A15C9000A128A110A2777
:101D34000A128A15CA004A08AB004908AA004808D2
:101D4400A9004708A8006430A0000030A10054088E
:101D5400A200A301A21BA3030A168A1538240A129F
:101D64008A15831203132008CB0001300310CB0D16
:101D7400FF3E031DB82E03104B0D493E84000A128A
:101D84008A110A270A128A15CC000A128A110A2714
:101D94000A128A15CD000A128A110A270A128A1514
:101DA400CE000A128A110A270A128A15CF004F0898
:101DB400AF004E08AE004D08AD004C08AC000A124E
:101DC4008A153C210A128A15831203132B08D300A7
:101DD4002A08D2002908D1002808D0000A30F200CD
:101DE4000030F3005408F400F501F41BF5030A165F
:101DF4008A1106200A128A15720883120313C60078
:101E040001300310C60DFF3E031D032F0310460DC2
:101E1400013E84000A128A110A270A128A15C70091
:101E24000A128A110A270A128A15C8000A128A118C
:101E34000A270A128A15C9000A128A110A270A12E5
:101E44008A15CA004A08AB004908AA004808A90034
:101E54004708A8005308AF005208AE005108AD006F
:101E64005008AC000A128A153C210A128A15831202
:101E740003132B08C5002A08C4002908C300280836
:101E8400C200FF2F5408803A753E031C4A2F4B2F83
:101E9400D32F0A30F2000030F3005408F400F501A7
:101EA400F41BF5030A168A1106200A128A15720811
:101EB40083120313C60001300310C60DFF3E031D39
:101EC4005E2F0310460D013E84000A128A110A2770
:101ED4000A128A15C7000A128A110A270A128A15D9
:101EE400C8000A128A110A270A128A15C9000A129E
:101EF4008A110A270A128A15CA004A08AB0049083F
:101F0400AA004808A9004708A8000A30A000003029
:101F1400A1005408A200A301A21BA3030A168A1558
:101F240038240A128A15831203132008CB000130C7
:101F34000310CB0DFF3E031D9A2F03104B0D253EBE
:101F440084000A128A110A270A128A15CC000A127E
:101F54008A110A270A128A15CD000A128A110A2741
:101F64000A128A15CE000A128A110A270A128A1541
:101F7400CF004F08AF004E08AE004D08AD004C082E
:101F8400AC000A128A153C210A128A158312031323
:101F94002B08C5002A08C4002908C3002808C20069
:101FA400FF2F5408C60001300310C60DFF3E031D69
:101FB400D62F0310460D013E84000A128A110A2707
:101FC4000A128A15C7000A128A110A270A128A15E8
:101FD400C8000A128A110A270A128A15C9000A12AD
:101FE4008A110A270A128A15CA004A08C500490834
:101FF400C4004808C3004708C2000800F200720881
:102004008312031388000800F801F51F0A280B281F
:102014001228F409F509F40A0319F50AF801F80A73
:10202400F31F152816281B28F209F309F20A0319CD
:10203400F30A720873040319202821285028F70191
:10204400F70A2F2801300310F20DF30DFF3E031D94
:1020540025280130F6007608F707F31F32283328C5
:10206400242873087502031D392872087402031C9E
:102074003C283D2843287208F4027308031CF50326
:10208400F50201300310F30CF20CFF3E031D44284B
:102094000130F702031D4F2850283328780803190C
:1020A400542855285A28F409F509F40A0319F50A9D
:1020B4007508F3007408F200080083120313D500B6
:1020C4006E305502031C6728682877293F30AB001F
:1020D4000030AA000030A9000030A8006430A0003D
:1020E4000030A1005508C600C7014608A2004708F1
:1020F400A3000A168A15EE210A168A118312031305
:102104002008C80001300310C80DFF3E031D8528B8
:102114000310480D7D3E84000A128A110A270A160C
:102124008A11C9000A128A110A270A168A11CA00DA
:102134000A128A110A270A168A11CB000A128A1176
:102144000A270A168A11CC004C08AF004B08AE00CF
:102154004A08AD004908AC000A128A153C210A1647
:102164008A11831203132B08D4002A08D3002908E8
:10217400D2002808D1000A30A0000030A100550880
:10218400C600C7014608F4004708F5006430F200B1
:102194000030F3000A128A11C2270A168A11730842
:1021A40083120313A3007208A2000A168A15EE21F3
:1021B4000A168A11831203132008C8000130031081
:1021C400C80DFF3E031DE1280310480D593E84004D
:1021D4000A128A110A270A168A11C9000A128A11D8
:1021E4000A270A168A11CA000A128A110A270A162D
:1021F4008A11CB000A128A110A270A168A11CC0006
:102204004C08AB004B08AA004A08A9004908A800DA
:102214005408AF005308AE005208AD005108AC009A
:102224000A128A153C210A168A11831203132B08F9
:10223400D0002A08CF002908CE002808CD000A3093
:10224400F2000030F3005508C600C7014608F40048
:102254004708F5000A128A11C2270A168A11720861
:1022640083120313C80001300310C80DFF3E031D81
:1022740036290310480D353E84000A128A110A27B4
:102284000A168A11C9000A128A110A270A168A1123
:10229400CA000A128A110A270A168A11CB000A12E6
:1022A4008A110A270A168A11CC004C08AB004B0885
:1022B400AA004A08A9004908A8005008AF004F081E
:1022C400AE004E08AD004D08AC000A128A153C2140
:1022D4000A168A11831203132B08C5002A08C400A6
:1022E4002908C3002808C2006B2A0B305502031CBE
:1022F4007C297D29282A3F30AB000030AA00003019
:10230400A9000030A8000A30A0000030A100550840
:10231400C600C7014608A2004708A3000A168A158A
:10232400EE210A168A11831203132008C800013013
:102334000310C80DFF3E031D9A290310480D593E92
:1023440084000A128A110A270A168A11C9000A127D
:102354008A110A270A168A11CA000A128A110A2740
:102364000A168A11CB000A128A110A270A168A1140
:10237400CC004C08AF004B08AE004A08AD00490839
:10238400AC000A128A153C210A168A11831203131F
:102394002B08D4002A08D3002908D2002808D10029
:1023A4000A30F2000030F3005508C600C7014608A1
:1023B400F4004708F5000A128A11C2270A168A1186
:1023C400720883120313C80001300310C80DFF3EC6
:1023D400031DE7290310480D353E84000A128A11B3
:1023E4000A270A168A11C9000A128A110A270A162C
:1023F4008A11CA000A128A110A270A168A11CB0006
:102404000A128A110A270A168A11CC004C08AB005A
:102414004B08AA004A08A9004908A8005408AF00BC
:102424005308AE005208AD005108AC000A128A15D8
:102434003C210A168A11831203132B08C5002A08AB
:10244400C4002908C3002808C2006B2A3F30AB002F
:102454000030AA000030A9000030A8005508C600CA
:1024640001300310C60DFF3E031D332A0310460D31
:10247400353E84000A128A110A270A168A11C700F7
:102484000A128A110A270A168A11C8000A128A1126
:102494000A270A168A11C9000A128A110A270A167B
:1024A4008A11CA004A08AF004908AE004808AD00C6
:1024B4004708AC000A128A153C210A168A118312B5
:1024C40003132B08C5002A08C4002908C3002808E0
:1024D400C20008008312031359088039DE005E0825
:1024E400E6005908DE005E07DF005F08E800D81F39
:1024F4007C2A7D2A7E2A681468080319822A832A82
:10250400932A680A031D872A882A902A0030D90052
:102514000030D8000030D7000030D600D817D901D9
:102524009B2A0030D9000030D8000030D70000309A
:10253400D6005D088039DE005E08E700670866069D
:102544000319A52AA62AA72A66175D08DE005E07D6
:10255400DF005F08E700DC1FB02AB12AB22A671443
:1025640067080319B62AB72AC72A670A031DBB2AB4
:10257400BC2AC42A0030DD000030DC000030DB005F
:102584000030DA00DC17DD01CF2A0030DD00003036
:10259400DC000030DB000030DA0068086702031852
:1025A400D42AD52A192B661FD82AD92ADD2A8030A5
:1025B400DE005E08E6066808DE005E08E9006708DB
:1025C400DE005E08E8006908DE005E08E7005608E1
:1025D400DE005E08E9005A08DE005E08D6006908DD
:1025E400DE005E08DA005708DE005E08E9005B08DA
:1025F400DE005E08D7006908DE005E08DB005808CC
:10260400DE005E08E9005C08DE005E08D8006908A8
:10261400DE005E08DC005908DE005E08E9005D08A3
:10262400DE005E08D9006908DE005E08DD00E9010D
:102634006708DE00DF015F08E10068085E02E00071
:10264400031CE1036108803AFF0080307F02031D10
:102654002D2B1A306002031C302B312B6E2B83126E
:1026640003135908580457045604031D3A2B3C2BF2
:1026740001303D2B0030DE005E08E9000030D90057
:102684000030D8000030D7000030D6006708DE00E4
:102694005E08E800762B691C502B512B5A2B6908D5
:1026A400DE0003105E0C0138DF005F08E9005C2BDC
:1026B4000310E90C561C5F2B602B612BE9170130CA
:1026C400DE00590DD90CD80CD70CD60CDE0B632BBD
:1026D4000130DE005E08E80783120313670868020E
:1026E400031C752B762B4D2B661B792B7A2BC52B54
:1026F4006808031D7E2B7F2B882B0030D900003007
:10270400D8000030D7000030D600F32C5A08D60782
:102714005B0803110318013E0319912BD7075C08CA
:1027240003110318013E0319982BD8075D08031100
:102734000318013E03199F2BD907591CA22BA32B65
:10274400792C691CA62BA72BB02B6908DE0003107B
:102754005E0C0138DF005F08E900B22B0310E90CBE
:10276400561CB52BB62BB72BE9170130DE00590DDB
:10277400D90CD80CD70CD60CDE0BB92B0130DE00EB
:102784005E08E807792C5908803AFF005D08803A12
:102794007F02031DD72B5C085802031DD72B5B084F
:1027A4005702031DD72B5A0856020318DA2BDB2BCA
:1027B400332CFF30DE00FF30DF00FF30E000FF305D
:1027C400E1005A08E2005B08E3005C08E4005D08ED
:1027D400E5005608E2025708031C570FF22BF32BAF
:1027E400E3025808031C580FF82BF92BE40259088C
:1027F400031C590FFE2BFF2BE5026208DE0763085A
:102804000318630F062C072CDF0764080318640FF2
:102814000C2C0D2CE00765080318650AE107610814
:10282400D9006008D8005F08D7005E08D600803061
:10283400DE005E08E606E909E90A6908031D232C9F
:10284400242C412C0130D607003003180130D7075F
:10285400003003180130D807003003180130D907BD
:10286400412C5A08D6025B08031C5B0FD7025C0894
:10287400031C5C0FD8025D08031C5D0FD9025908C4
:10288400580457045604031D482C492C752C690818
:10289400031D4D2C4E2C752C0030D9000030D8006F
:1028A4000030D7000030D600F32C0130DE000310D6
:1028B400D60DD70DD80DD90DDE0B592CE91F632C7D
:1028C400642C652C5614691C682C692C6C2C03141C
:1028D400E90D6E2C0310E90D68080319722C732C92
:1028E400752C0130E802D81F782C792C572CE7017D
:1028F400E91F7D2C7E2C8C2C69087F390319832CCD
:10290400842C872CE701E70A8C2C561C8A2C8B2CF0
:102914008C2C842C67080319902C912CC52C013025
:10292400D607003003180130D707003003180130F0
:10293400D807003003180130D907591CA22CA32C46
:10294400C52C5608DE005708DF005808E000590877
:10295400E1000130E200610DE10CE00CDF0CDE0C63
:10296400E20BAD2C6108D9006008D8005F08D700DD
:102974005E08D600680A0319C02CC12CC52C01308E
:10298400DE005E08E807680A0319C92CCA2CCF2C9C
:102994006808031DCE2CCF2CDD2C0030D90000306C
:1029A400D8000030D7000030D6006808031DDB2CA7
:1029B400DC2CDD2CE601681CE02CE12CE32CD81780
:1029C400E72C7F30DE005E08D8056808DE000310BF
:1029D4005E0CDF005F08D900E61FF12CF22CF32C0B
:1029E400D917080083160313CA00A93083120313EE
:1029F400EA006A0883160313B7000A128A11DA2E52
:102A040025304D060319072D082D1C2D4D08831262
:102A14000313EA00831603134A0884008312031382
:102A24006A08831380000130EA006A0883160313DE
:102A3400CA07FF2CBA01BB01B801B90128088400F8
:102A44000A128A110A270A168A110A168A15C72039
:102A54000A168A11031C2F2D302D7C2D8316031387
:102A6400BA01BB010A30F2000030F30083160313ED
:102A74003B08F5003A08F4000A168A155C210A1688
:102A84008A11730883160313BB007208BA0028085E
:102A940084000A128A110A270A168A11D03E831268
:102AA4000313EA00FF3003180030EB006A088316B2
:102AB4000313BA070318BB0A831203136B088316A4
:102AC4000313BB07013083120313EA006A08831659
:102AD4000313A807280884000A128A110A270A1671
:102AE4008A110A168A15C7200A168A1103187B2D23
:102AF4007C2D342D83160313280884000A128A11AE
:102B04000A270A168A112E3A031D892D8A2DDF2DD4
:102B14003917013083120313EA006A08831603137A
:102B2400A807CB01CC01CE2D0A30F2000030F3000F
:102B3400831603134C08F5004B08F4000A168A1593
:102B44005C210A168A11730883160313CC007208D9
:102B5400CB00280884000A128A110A270A168A114F
:102B6400D03E83120313EA00FF3003180030EB0059
:102B74006A0883160313CB070318CC0A83120313C2
:102B84006B0883160313CC07013083120313EA0086
:102B94006A0883160313A807280884000A128A11F6
:102BA4000A270A168A110A168A15C7200A168A11D4
:102BB4000318DD2DDE2D962DE72DCB01CC01391622
:102BC400E72D8316031339150B2E013083160313D7
:102BD400A807FF30280784000A128A110A270A1658
:102BE4008A11CD0083120313EA00EB016B08003A4B
:102BF4000319FD2DFF2C6A08003A0319FD2F643ACE
:102C040003190B2E023A0319E32D0F3A03190B2E65
:102C1400FF2C003083160313380583120313EA00D4
:102C2400073083160313390583120313EB006A0874
:102C34006B0403191E2E212E0A128A11D12C83161D
:102C44000313391E262E272E2B2E0630CB000030E0
:102C5400CC003708840083130008C600840A0008E7
:102C6400C700840A0008C800840A0008C9000430A8
:102C740083120313EA006A0883160313B70749088B
:102C8400F5004808F4004708F3004608F200003055
:102C9400F9000030F8000030F7000030F6000A16A2
:102CA4008A153D250A168A110318592E5A2E772E95
:102CB400831603134908F5004808F4004708F30095
:102CC4004608F2000A168A15A2200A168A11750807
:102CD40083160313C9007408C8007308C700720878
:102CE400C6000330B8040030B90483160313C401CA
:102CF400C5014908F5004808F4004708F3004608F0
:102D0400F2000030F9000030F8000030F700003025
:102D1400F6000A168A1583220A168A110318932EBE
:102D2400942E942F031083160313480D490D823EED
:102D3400C400FF3003180030C500FF30C407031877
:102D4400C50AFF30C5070330F2000030F300450820
:102D5400F5004408F4000A168A155C210A168A1143
:102D6400730883160313C5007208C4000A30831263
:102D74000313A0000030A100831603134508831237
:102D84000313A30083160313440883120313A2003E
:102D94000A168A1538240A168A1183120313210885
:102DA40083160313C5008312031320088316031329
:102DB400C400C51FDE2EDF2EE52EFF30C407031826
:102DC400C50AFF30C5074403FF3A0A128A159D2439
:102DD4000A168A1183120313450883160313BF00CE
:102DE40083120313440883160313BE0083120313D0
:102DF400430883160313BD0083120313420883168A
:102E04000313BC00490883120313AB008316031396
:102E1400480883120313AA00831603134708831276
:102E24000313A90083160313460883120313A8008F
:102E3400831603133F0883120313AF00831603138F
:102E44003E0883120313AE00831603133D08831256
:102E54000313AD00831603133C0883120313AC0061
:102E64000A128A153C210A168A11831203132B08AD
:102E740083160313BF00831203132A088316031354
:102E8400BE0083120313290883160313BD008312A3
:102E94000313280883160313BC003F08F5003E08FB
:102EA400F4003D08F3003C08F2003F30F9008030A4
:102EB400F8000030F7000030F6000A168A153D25A8
:102EC4000A168A110318672F682F712FFF30831693
:102ED4000313C4070318C50AFF30C507942F8316CC
:102EE40003133F08F5003E08F4003D08F3003C08D6
:102EF400F2004130F9002030F8000030F7000030D3
:102F0400F6000A168A153D250A168A11031C8B2F12
:102F14008C2F942F013083160313C4070318C50A9A
:102F24000030C507831603134C08803AFF00803035
:102F34007F02031D9F2F0D304B020318A22FA32FD6
:102F4400EA2F831603134B080A168A115F200A1608
:102F54008A11831203134508D9004408D800430892
:102F6400D7004208D60083160313490883120313BB
:102F7400DD0083160313480883120313DC00831651
:102F84000313470883120313DB0083160313460855
:102F940083120313DA000A168A116C220A168A11A4
:102FA40083120313590883160313C90083120313EE
:102FB400580883160313C800831203135708831693
:102FC4000313C70083120313560883160313C600A2
:102FD400831603134508803AFF0080307F02031DE7
:102FE400F52F0A3044020318FA2F0A128A111D28F9
:0C2FF4000A128A116E280A128A11F42EAB
:1031260071088A00700E8300FE0E7E0E0900640090
:103136008001840A04060319003404069B287508D6
:103146007404730472040319A928AA28AC288030D1
:10315600F506080000300A168A15F2200A168A15A6
:1031660001300A168A15F2200A168A1508000B176E
:10317600831603130C17831203130C1341309F009D
:10318600831603139F010800F300F2013A3073021D
:103196000318CE28CF28D72830307302031CD42832
:1031A600D528D728F201F20A720C0800F40083121F
:1031B6000313091474080A168A1100200A168A15C0
:1031C6008312031389140D30F300F30BE8288312DE
:1031D600031389100330F300F30BEF280800F50002
:1031E60083120313091075080A168A1100200A169D
:1031F6008A158312031389140630F4003030F30065
:10320600F30B0329F40B032900008312031389101F
:103216000330F4009730F300F30B0F29F40B0F295A
:1032260014290800831603138901831203138901E5
:10323600033083160317880089018316031386015A
:103246008312031386018316031387018312031364
:1032560087018316031388018312031388018501EE
:1032660003308316031385000800F8007803031D56
:103276003D293E294A297608803EF7007708F9005D
:1032860079080A168A15F2200A168A155B29023071
:103296007806031D4F2950295B297608C03EF700A2
:1032A6007708F90079080A168A15F2200A168A158F
:1032B6000800F601F701721C612962296829740861
:1032C600F6070318F70A7508F70701300310F40D1F
:1032D600F50DFF3E031D692901300310F30CF20CB6
:1032E600FF3E031D702972087304031D7B297C2988
:1032F6005E297708F3007608F2000800FA00F60166
:10330600F7017208F400F5017408F8007508F90071
:103316007A1C8E298F2995297808F6070318F70A4B
:103326007908F70701300310F80DF90DFF3E031D6C
:1033360096290310FA0C7A08031DA229A3298B29C2
:103346007708F3007608F200080083120313A00141
:10335600A101D12920087507F8007608F70003189F
:10336600F70AA01FB729F7037708F900790883122F
:103376000313FF00780884000A128A1100270A1630
:103386008A150A168A15D9200A168A15013083125B
:103396000313A0070318A10A0030A1072008750728
:1033A600F8007608F7000318F70AA01FDB29F703D1
:1033B6007708F900790883120313FF007808840060
:1033C6000A128A1100270A168A15003A031DEC29EB
:1033D600ED29AD29080083120313A501A6012008D3
:1033E60021040319F729F8292F2AA401A40A062A79
:1033F60001300310A00DA10DFF3E031DFC29013075
:10340600F8007808A407A11F092A0A2AFB29013017
:103416000310A50DA60DFF3E031D0B2A210823024E
:10342600031D172A20082202031C1A2A1B2A222AF5
:103436002008A2022108031CA303A30225140130BD
:103446000310A10CA00CFF3E031D232A0130A40289
:10345600031D2E2A2F2A0A2A2608A1002508A000C5
:103466000800831203130910891000300A168A1106
:1034760000200A168A151A30F700F830F600F60B07
:10348600422AF70B422A000030300A168A15F2202B
:103496000A168A150730F7007D30F600F60B512A1A
:1034A600F70B512A30300A168A15F2200A168A15A9
:1034B6000F30F7004730F600F60B5F2AF70B5F2A4E
:1034C600642A30300A168A15F2200A168A15383010
:1034D6000A168A15F2200A168A150C300A168A155B
:1034E600F2200A168A1501300A168A15F2200A16E3
:1034F6008A1506300A168A15F2200A168A15080059
:103506000030720583120313A00000307305A1007A
:1035160080307405A2007F307505A30023082204BD
:1035260021042004031D982A992AA12A0030F500B7
:103536000030F4000030F3000030F2000030760571
:10354600A00000307705A10080307805A2007F300A
:103556007905A3002308220421042004031DB42AAC
:10356600B52ABD2A0030F9000030F8000030F70017
:103576000030F60079087506031DCB2A7808740614
:10358600031DCB2A77087306031DCB2A760872061D
:103596000319CE2ACF2AD12A0310D22A03140800EF
:1035A600803083160313A306270883120313D9005A
:1035B60083160313260883120313D80083160313F6
:1035C600250883120313D7008316031324088312D6
:1035D6000313D60083160313230883120313DD0097
:1035E60083160313220883120313DC0083160313C6
:1035F600210883120313DB008316031320088312AA
:103606000313DA000A168A116C220A168A15831227
:103616000313590883160313A300831203135808D0
:1036260083160313A200831203135708831603138A
:10363600A10083120313560883160313A000080083
:1036460083120313280827042604250403192C2BA8
:103656002D2B702BAE01AE0A3D2B0130AD000310B1
:10366600A50DA60DA70DA80DAD0B322B0130AD0093
:103676002D08AE07A81F402B412B302B28082C0203
:10368600031D4F2B27082B02031D4F2B26082A024A
:10369600031D4F2B25082902031C522B532B612B8C
:1036A6002508A9022608031C260FAA022708031CC0
:1036B600270FAB022808031C280FAC0201300310A9
:1036C600A80CA70CA60CA50CFF3E031D622B01300F
:1036D600AE02031D6F2B702B412B2C08A8002B0864
:1036E600A7002A08A6002908A500080083120313CC
:1036F600CA004A080A168A15A1240A168A158312D0
:1037060003131F140C3083120313C600C60B892B38
:103716000000831203139F149F18922B932B8F2B59
:103726003C30AB00A030AA009030A9002E30A80093
:103736001E08C600C701C801C9014908F5004808A6
:10374600F4004708F3004608F20001300A168A150D
:1037560087260A168A15750883120313AF007408A4
:10376600AE007308AD007208AC000A128A153C213F
:103776000A168A15831203132B08CE002A08CD00D9
:103786002908CC002808CB004E08C5004D08C40007
:103796004C08C3004B08C200080000308312031314
:1037A600A3000030A2000030A1000030A000750880
:1037B6007404730472040319E12BE22B2F2CA40169
:1037C600A40AF22B0130FA000310F20DF30DF40DEA
:1037D600F50DFA0BE72B0130FA007A08A407F51F5E
:1037E600F52BF62BE52B0130FA000310A00DA10DE9
:1037F600A20DA30DFA0BF82B75087902031D0D2CEB
:1038060074087802031D0D2C73087702031D0D2C16
:1038160072087602031C102C112C202C7208F6025A
:103826007308031C730FF7027408031C740FF80265
:103836007508031C750FF902201401300310F50CEE
:10384600F40CF30CF20CFF3E031D212C0130A402F4
:10385600031D2E2C2F2CF62B2308F5002208F4002E
:103866002108F3002008F200080083120313A501C3
:10387600A11F3E2C3F2C462CA009A109A00A031922
:10388600A10AA501A50AA31F492C4A2C532CA2095B
:10389600A309A20A0319A30A0130F9007908A506AB
:1038A600A601A7012008210403195A2C5B2C922C8F
:1038B600A401A40A692C01300310A00DA10DFF3E3E
:1038C600031D5F2C0130F9007908A407A11F6C2C99
:1038D6006D2C5E2C01300310A60DA70DFF3E031DB7
:1038E6006E2C21082302031D7A2C20082202031CB9
:1038F6007D2C7E2C852C2008A2022108031CA30304
:10390600A302261401300310A10CA00CFF3E031DD8
:10391600862C0130A402031D912C922C6D2C2508B7
:103926000319962C972C9C2CA609A709A60A0319FD
:10393600A70A2708A1002608A0000800F400082D01
:10394600C330831203139F053C2D831203131F08F4
:10395600C33904389F003C2D831203131F08C33953
:1039660008389F003C2D831203131F08C3390C38F7
:103976009F003C2D831203131F08C33910389F0084
:103986003C2D831203131F08C33914389F003C2DA6
:10399600831203131F08C33918389F003C2D831266
:1039A60003131F08C3391C389F003C2D83120313D1
:1039B6001F08C33920389F003C2D831203131F08AC
:1039C600C33924389F003C2D831203131F08C339C3
:1039D60028389F003C2D831203131F08C3392C3847
:1039E6009F003C2D831203131F08C33930389F00F4
:1039F6003C2D831203131F08C33934389F003C2D16
:103A0600C330831203139F053C2D7408F200F301A3
:103A16007308003A0319102D032D7208003A031992
:103A2600A32C013A0319A82C033A0319AF2C013A27
:103A36000319B62C073A0319BD2C013A0319C42CF5
:103A4600033A0319CB2C013A0319D22C0F3A031966
:103A5600D92C013A0319E02C033A0319E72C013A51
:103A66000319EE2C073A0319F52C013A0319FC2C1D
:103A7600032D08000030720583120313A0000030E6
:103A86007305A10080307405A2007F307505A30080
:103A96002308220421042004031D522D532D5B2DDF
:103AA6000030F5000030F4000030F3000030F20082
:103AB60000307605A00000307705A100803078053B
:103AC600A2007F307905A3002308220421042004E4
:103AD600031D6E2D6F2D772D0030F9000030F80094
:103AE6000030F7000030F600F51F7A2D7B2D9F2D54
:103AF6000030A0000030A1000030A2008030A300FA
:103B06007208A0027308031C730F8A2D8B2DA10265
:103B16007408031C740F902D912DA2027508031CC6
:103B2600750F962D972DA3022308F5002208F400A1
:103B36002108F3002008F200F91FA22DA32DC72D9E
:103B46000030A0000030A1000030A2008030A300A9
:103B56007608A0027708031C770FB22DB32DA102B9
:103B66007808031C780FB82DB92DA2027908031C1A
:103B7600790FBE2DBF2DA3022308F9002208F800F5
:103B86002108F7002008F6008030F5068030F90697
:103B960079087502031DD92D78087402031DD92DE5
:103BA60077087302031DD92D760872020318DC2DDF
:103BB600DD2DDF2D0310E02D031408000A168A15EB
:103BC60015210A168A150A168A15BA200A168A15A2
:103BD6000A168A1534220A168A150A168A15AD207F
:103BE6000A168A1500300A168A1579230A168A15C6
:103BF60083120313450883160313D8008312031395
:103C0600440883160313D70083120313430883164D
:103C16000313D60083120313420883160313D50039
:103C260001300A168A1579230A168A158312031398
:103C3600450883160313D40083120313440883161E
:103C46000313D30083120313430883160313D2000E
:103C560083120313420883160313D1009130CE005A
:103C66004E08A8005808AC005708AB005608AA0032
:103C76005508A9005408B0005308AF005208AE001A
:103C86005108AD000030B100B200DA300A168A11D0
:103C9600F4240A168A150A168A15AD200A168A15FC
:103CA600F601F60A01300A168A1538210A168A150F
:103CB600A430F5008030F6000A168A15A8210A16E7
:103CC6008A15F601F60A02300A168A1538210A16EE
:103CD6008A15DA30F5000030F6000A168A15A82192
:103CE6000A168A15063083160313D0001330CF0048
:103CF600AD30CE00CE0B7D2ECF0B7D2ED00B7D2E84
:103D0600F52D0A128A110C2883120313A00020082D
:103D160003198E2E8F2EA32EF51F922E932EA32ED1
:103D26007209A2007309A3007409A4007509A5000D
:103D3600A20A0319A30A0319A40A0319A50AAB2E9A
:103D46007508A5007408A4007308A3007208A200F1
:103D56007508740473047204031DB22EB32EBC2EB0
:103D66000030F5000030F4000030F3000030F200BF
:103D7600422F9630F6007608A100CE2E0130F600CE
:103D86007608A10701300310A50CA40CA30CA20C05
:103D9600FF3E031DC62EFE302505031DD32ED42E51
:103DA600C12EF02E0130F6007608A1070130A207D9
:103DB600003003180130A307003003180130A407B0
:103DC600003003180130A50701300310A50CA40C20
:103DD600A30CA20CFF3E031DE82EFF302505031D94
:103DE600F52EF62ED52E022F0130A1020130F60057
:103DF6000310A20DA30DA40DA50DF60BFB2EA41BFF
:103E0600052F062F0C2F0230210203180B2F0C2F23
:103E1600F72E21180F2F102F182FFF30A205FF3075
:103E2600A3057F30A405FF30A5050310A10C2108CA
:103E3600F600F701F801F90118300310F60DF70D39
:103E4600F80DF90DFF3E031D202F7608A204770812
:103E5600A3047808A4047908A50420080319342FBC
:103E6600352F3A2FF51F382F392F3A2FA51725084A
:103E7600F5002408F4002308F3002208F2000800E5
:103E8600720883120313A0007308A1007408A2002D
:103E96000310210D220DA3002308A9002908031DE4
:103EA600552F562F5F2F0030F5000030F4000030FC
:103EB600F3000030F200FF2F7608A0007708A1007B
:103EC6007808A2000310210D220DA3002308A800E4
:103ED6002808031D6F2F702F712F562FF317FF30F1
:103EE600F205FF30F3050030F405F717FF30F6054D
:103EF600FF30F7050030F8050030A7000030A600B7
:103F06000030A5000030A4007F30A90298302807B1
:103F1600A0002008A9021830A0002008A80001303F
:103F2600A0000310A40DA50DA60DA70DA00B942FA0
:103F360078087402031DA52F77087302031DA52FA9
:103F460076087202031CA82FA92FB42F7608F20256
:103F56007708031C770FF3027808031C780AF4022B
:103F6600241401300310F20DF30DF40DFF3E031D72
:103F7600B52F0130A802031DC12FC22F922FA91FF2
:103F8600C52FC62FE02F2908803A973E0318CC2F5D
:103F9600CD2FCE2F562F01300310A70CA60CA50C43
:103FA600A40CFF3E031DCF2F0130A0002008A90757
:103FB600031DDE2FDF2FCE2FF72F18302902031C0B
:103FC600E52FE62FF22F562F0130A0000310A40D87
:103FD600A50DA60DA70DA00BE92F0130A9022908F2
:103FE600031DF62FF72FE72F2708F5002608F40004
:0A3FF6002508F3002408F20008007B
:04400E00D123FF3F7C
:00000001FF
