:020000040000FA
:100000000A128A11F92F00308A000408840A820734
:100010000034013400340A34003464340034E834E9
:0C002000033410342734253464340034D9
:100726007030831603138F040800831203138C1E84
:100736009D2B9E2B982B1A0808000A128A11D42387
:100746000A128A1183160313111508008316031360
:1007560091121116111AB02BB12BAD2B080083166E
:10076600031391161116111AB92BBA2BB62B0800C2
:10077600F00083160313981CC12BC22BBC2B7008E8
:100786008312031399000800283083120313940080
:100796008316031391019401CF3093008715071632
:1007A6000800831603131419D92BDA2BD42B11083E
:1007B6001F39031DDF2BE02BD42B0800F0000A1293
:1007C6008A11D4230A128A11700883120313930024
:1007D6008C1DEE2BEF2BEB2B8C110800F1000A126F
:1007E6008A11D4230A128A1183160313111471086D
:1007F6000A128A11E1230A128A11080083160313CA
:1008060018110C30990018128312031398178316C7
:100816000313071387179816831203131816080075
:100826008316031788018901831203138501860144
:1008360087018801890183160313850186018030AB
:100846008700880189010800F400F201F3013C2CBD
:1008560072087407F1007108840000080A128A11F0
:10086600BB230A128A110130F2070318F30A00307B
:10087600F30772087407F1007108840083130008F7
:10088600031D462C472C2B2C0800F100831603135E
:100896009115141C4F2C502C4C2C83120313130847
:1008A600F0007008F2007108031D5A2C5B2C612CB5
:1008B6000A128A11A9230A128A11662C0A128A11AF
:1008C600B2230A128A11831203138C1D6B2C6C2C13
:1008D600662C8C1172080800780879040319742CA8
:1008E600752CA42CFD01FD0A832C01300310F80D94
:1008F600F90DFF3E031D792C0130FC007C08FD0735
:10090600F91F862C872C782C79087B02031D8D2CE9
:1009160078087A02031C902C912C972C7808FA02FE
:100926007908031CFB03FB0201300310F90CF80CD9
:10093600FF3E031D982C0130FD02031DA32CA42CA1
:10094600872C7B08F9007A08F8000800F501F60103
:10095600700871040319B02CB12CE82CF701F70AC2
:10096600BF2C01300310F00DF10DFF3E031DB52C19
:100976000130F4007408F707F11FC22CC32CB42C05
:1009860001300310F50DF60DFF3E031DC42C710852
:100996007302031DD02C70087202031CD32CD42CB6
:1009A600DB2C7008F2027108031CF303F3027514C2
:1009B60001300310F10CF00CFF3E031DDC2C01305E
:1009C600F702031DE72CE82CC32C7608F100750806
:1009D600F00008000A128A1113240A128A110A1258
:1009E6008A1101240A128A110A128A11B0250A12E2
:1009F6008A110A128A1193230A128A110430831269
:100A0600031388060A128A114D260A128A118312C6
:100A160003138C1E0F2D102D3B2D0A128A119823BD
:100A26000A128A1183120313E9006908EB00252DC7
:100A360088140711881007110814071108100711E8
:100A460007153B2D6B08E900EA016A08003A03190D
:100A56002D2D232D6908013A03191B2D033A03197D
:100A66001D2D063A03191F2D0C3A0319212D232D8E
:100A7600823083120313EA00DD30E900E90B412DD1
:100A8600EA0B412D012D0A128A110028F601F11FE9
:100A96004D2D4E2D552DF009F109F00A0319F10AD5
:100AA600F601F60AF31F582D592D622DF209F309A6
:100AB600F20A0319F30A0130F4007408F606F70186
:100AC600F801700871040319692D6A2DA12DF5012D
:100AD600F50A782D01300310F00DF10DFF3E031DD0
:100AE6006E2D0130F4007408F507F11F7B2D7C2D67
:100AF6006D2D01300310F70DF80DFF3E031D7D2D02
:100B060071087302031D892D70087202031C8C2D57
:100B16008D2D942D7008F2027108031CF303F30265
:100B2600771401300310F10CF00CFF3E031D952DD8
:100B36000130F502031DA02DA12D7C2D7608031989
:100B4600A52DA62DAB2DF709F809F70A0319F80A02
:100B56007808F1007708F00008000230F40004304D
:100B6600F300BA30F200F20BB62DF30BB62DF40BF0
:100B7600B62D00000A128A11C7230A128A11D03034
:100B86000A128A11F1230A128A1119300A128A11DD
:100B9600E1230A128A1107300A128A11E1230A1286
:100BA6008A110A128A11A0230A128A11D0300A1257
:100BB6008A11F1230A128A116B300A128A11E12373
:100BC6000A128A1101300A128A11E1230A128A11C5
:100BD6000A128A11A0230A128A11D0300A128A1127
:100BE600F1230A128A111A300A128A11E1230A1213
:100BF6008A1104300A128A11E1230A128A110A1292
:100C06008A11A0230A128A11D0300A128A11F123FE
:100C16000A128A111C300A128A11E1230A128A1159
:100C260000300A128A11E1230A128A110A128A1165
:100C3600A0230A128A11D0300A128A11F1230A124D
:100C46008A111B300A128A11E1230A128A111830FE
:100C56000A128A11E1230A128A110A128A11A023A2
:100C66000A128A11D0300A128A11F1230A128A1145
:100C760038300A128A11E1230A128A1101300A1247
:100C86008A11E1230A128A110A128A11A0230A1272
:100C96008A110800D0300A128A11F1230A128A1129
:100CA6003B300A128A11E1230A128A110A128A11AA
:100CB600A0230A128A11D1300A128A11F1230A12CC
:100CC6008A1100300A128A1148240A128A11003049
:100CD6000A128A1148240A128A1100300A128A114D
:100CE60048240A128A1183120313AD00AE010030A4
:100CF6000A128A1148240A128A1183120313AF00BA
:100D0600B0012F08B000AF012D082F04E7002E0810
:100D16003004E80000300A128A1148240A128A11A7
:100D260000300A128A1148240A128A1100300A1267
:100D36008A1148240A128A1100300A128A1148249C
:100D46000A128A1100300A128A1148240A128A11DC
:100D560000300A128A1148240A128A1100300A1237
:100D66008A1148240A128A1100300A128A1148246C
:100D76000A128A1100300A128A1148240A128A11AC
:100D860001300A128A1148240A128A110A128A119B
:100D9600A0230A128A118030F0000030F10083127D
:100DA60003136708003EF20068080318013E403E40
:100DB600F3000A128A1149250A128A117008831251
:100DC600031386008030F0000030F1006708003E13
:100DD600F20068080318013E403EF3000A128A1129
:100DE60049250A128A11710883120313E600700856
:100DF600E5000B30AD002D08A0006608A2006508CE
:100E0600A10031300A128A1111270A128A113130D3
:100E16000A128A1127240A128A1108008312031360
:100E2600AB002130A3002308A600E22F25302C06B4
:100E360003191E2F1F2F2B2F2C08A3002B0884000D
:100E46002308831380000130A3002308AB07E22F99
:100E5600A7010130A007FF30200784000A128A117B
:100E660003200A128A11AC00A300A4012408003A48
:100E760003193E2FE22F2308003A0319F42F643A90
:100E86000319492F0D3A0319492FE22F260884002A
:100E960083130008A900840A0008AA000230A300F0
:100EA6002308A607AA1F582F592F622F0330A30025
:100EB6002308A704A909AA09A90A0319AA0AAC01C1
:100EC600AC0A2C08A3002307013E84000A128A11EB
:100ED60003200A128A11A4000A128A1103200A1298
:100EE6008A11A50025082A02031D7B2F2408290242
:100EF60003187E2F7F2F802F8A2F0130A30023080F
:100F0600AC0705302C06031D892F8A2F642F27086E
:100F1600033903198F2F902F9B2F2D30A3002B08F9
:100F260084002308831380000130A3002308AB0745
:100F36002C08A3002308A800D92F0A30F800003097
:100F4600F9002808A3002307013E84000A128A112B
:100F560003200A128A11F0000A128A1103200A12CB
:100F66008A11F1002A08F3002908F2000A128A11F0
:100F7600A9240A128A117108FB007008FA000A12E5
:100F86008A116F240A128A117808303E83120313DD
:100F9600A4002408AC002C08A3002B088400230816
:100FA600831380000130A3002308AB07FF30A300A2
:100FB6002308A807280A031DE12FE22FA02F0130DE
:100FC600A007FF30200784000A128A1103200A12A4
:100FD6008A11A3002308AC002C08031DF32FF42F5D
:100FE600192F2B0884008313800108008312031332
:0A0FF600EB0183010A128A11ED2CB1
:04400E00D42CFF3E71
:00000001FF
