:020000040000FA
:060000000A128A11FC2F18
:100B02007030831603138F0408000A128A11BA2563
:100B12000A128A1183160313111508008316031390
:100B220091121116111A962D972D932D08008316E6
:100B3200031391161116111A9F2DA02D9C2D08003A
:100B4200F00083160313981CA72DA82DA22D700860
:100B520083120313990008002830831203139400B0
:100B62008316031391019401CF3093008715071662
:100B72000800831603131419BF2DC02DBA2D1108B6
:100B82001F39031DC52DC62DBA2D08008316031368
:100B920018110C3099001812831203139817831638
:100BA20003130713871798160800F0000A128A1118
:100BB200BA250A128A1170088312031393008C1D3E
:100BC200E32DE42DE02D8C110800F1000A128A11A8
:100BD200BA250A128A1183160313111471080A1214
:100BE2008A11D6250A128A11080083160317880172
:100BF2008901831203138501860187018801890116
:100C02008316031385018601870188018901080083
:100C1200F100831603139115141C102E112E0D2EA4
:100C2200831203131308F0007008F2007108031D09
:100C32001B2E1C2E222E0A128A118F250A128A11AD
:100C4200272E0A128A1198250A128A118312031377
:100C52008C1D2C2E2D2E272E8C11720808000A12A4
:100C62008A11F6250A128A110A128A11C7250A1256
:100C72008A110A128A11C2260A128A110A128A11CA
:100C820081250A128A1104308312031388060A127C
:100C92008A115F270A128A11823083120313AF006E
:100CA200DD30AE00AE0B532EAF0B532E442E0A1284
:100CB2008A110028F601F11F5F2E602E672EF009BF
:100CC200F109F00A0319F10AF601F60AF31F6A2E76
:100CD2006B2E742EF209F309F20A0319F30A01309A
:100CE200F4007408F606F701F8017008710403199C
:100CF2007B2E7C2EB32EF501F50A8A2E01300310CD
:100D0200F00DF10DFF3E031D802E0130F40074083A
:100D1200F507F11F8D2E8E2E7F2E01300310F70D59
:100D2200F80DFF3E031D8F2E71087302031D9B2ECB
:100D320070087202031C9E2E9F2EA62E7008F202CD
:100D42007108031CF303F302771401300310F10C52
:100D5200F00CFF3E031DA72E0130F502031DB22E3B
:100D6200B32E8E2E76080319B72EB82EBD2EF70994
:100D7200F809F70A0319F80A7808F1007708F00071
:100D820008000230F4000430F300BA30F200F20B33
:100D9200C82EF30BC82EF40BC82E00000A128A11BB
:100DA200AD250A128A11D0300A128A11E6250A12DA
:100DB2008A1119300A128A11D6250A128A110730AD
:100DC2000A128A11D6250A128A110A128A11862556
:100DD2000A128A11D0300A128A11E6250A128A11E1
:100DE2006B300A128A11D6250A128A1101300A12B0
:100DF2008A11D6250A128A110A128A1186250A1226
:100E02008A11D0300A128A11E6250A128A111A3082
:100E12000A128A11D6250A128A1100300A128A1180
:100E2200D6250A128A110A128A1186250A128A11F5
:100E3200D0300A128A11E6250A128A111C300A12CF
:100E42008A11D6250A128A1100300A128A11D62571
:100E52000A128A110A128A1186250A128A11D030C0
:100E62000A128A11E6250A128A111B300A128A1105
:100E7200D6250A128A1118300A128A11D6250A12A8
:100E82008A110A128A1186250A128A11D0300A1290
:100E92008A11E6250A128A1138300A128A11D625D9
:100EA2000A128A1101300A128A11D6250A128A11EF
:100EB2000A128A1186250A128A110800D0300A12F3
:100EC2008A11E6250A128A113B300A128A11D625A6
:100ED2000A128A110A128A1186250A128A11D1303F
:100EE2000A128A11E6250A128A1100300A128A11A0
:100EF20009260A128A1100300A128A1109260A12D8
:100F02008A1100300A128A1109260A128A11F9007E
:100F1200FA0100300A128A1109260A128A11FB000C
:100F2200FC017B08FC00FB0179087B04831203139C
:100F3200AC007A087C04AD0000300A128A1109263E
:100F42000A128A1100300A128A1109260A128A111B
:100F520000300A128A1109260A128A1100300A1276
:100F62008A1109260A128A1100300A128A110926E8
:100F72000A128A1100300A128A1109260A128A11EB
:100F820000300A128A1109260A128A1100300A1246
:100F92008A1109260A128A1100300A128A110926B8
:100FA2000A128A1101300A128A1109260A128A11BA
:100FB2000A128A1186250A128A118030F000003046
:100FC200F100831203132C08003EF2002D080318CF
:100FD200013E403EF3000A128A115B260A128A1170
:100FE200700883120313860001300A128A11A125A8
:0E0FF2000A128A11080083010A128A11302E99
:04400E00D42CFF3E71
:00000001FF
