:020000040000FA
:100000000A128A11FC2F00308A000408840A820731
:100010000034013400340A34003464340034E834E9
:1000200003341034273420344734783420343D34BA
:1000300020342534643420342034203420340034F7
:1000400020344134793420343D3420342534643430
:1000500020342034203420340034203447347934A0
:1000600020343D342034253464342034203420348A
:1000700020340034203441347A3420343D34203468
:100080002534643420342034203420340034413486
:10009000783420343D342034253464342034203402
:1000A000203420340034203447347A3420343D3432
:1000B0002034253464340D340A340034203454346C
:1000C00020343D342034253464342034203400344A
:100600007030831603138F0408000A128A113923ED
:100610000A128A1183160313111508008316031397
:1006200091121116111A152B162B122B0800831676
:10063000031391161116111A1E2B1F2B1B2B0800CA
:10064000F00083160313981C262B272B212B7008F0
:1006500083120313990008002830831203139400B7
:100660008316031391019401CF3093008715071669
:1006700008008316031314193E2B3F2B392B110846
:100680001F39031D442B452B392B080083160313F8
:100690001815333099001812831203139817831614
:1006A00003130717871798160800F0000A128A111B
:1006B00039230A128A1170088312031393008C1DC8
:1006C000622B632B5F2B8C110800F1000A128A1138
:1006D00039230A128A1183160313111471080A129E
:1006E0008A1155230A128A110800831603178801FC
:1006F000890183120313850186018701880189011D
:10070000831603138501860187018801890108008A
:10071000F400F201F3019D2B72087407F1007108D7
:10072000840000080A128A1120230A128A1101305B
:10073000F2070318F30A0030F30772087407F10098
:100740007108840083130008031DA72BA82B8C2B92
:100750000800F100831603139115141CB02BB12B64
:10076000AD2B831203131308F0007008F200710818
:10077000031DBB2BBC2BC22B0A128A110E230A129B
:100780008A11C72B0A128A1117230A128A1183129F
:1007900003138C1DCC2BCD2BC72B8C11720808009A
:1007A0000A128A1175230A128A110A128A11462323
:1007B0000A128A110A128A11E0240A128A110A12F4
:1007C0008A1100230A128A11043083120313880647
:1007D0000A128A1165260A128A11823083120313C3
:1007E000E800DD30E700E70BF32BE80BF32BE42BFD
:1007F0000A128A110028780879040319002C012CA8
:10080000302CFD01FD0A0F2C01300310F80DF90DFD
:10081000FF3E031D052C0130FC007C08FD07F91F7D
:10082000122C132C042C79087B02031D192C780838
:100830007A02031C1C2C1D2C232C7808FA02790840
:10084000031CFB03FB0201300310F90CF80CFF3E04
:10085000031D242C0130FD02031D2F2C302C132CE2
:100860007B08F9007A08F8000800F501F601700825
:10087000710403193C2C3D2C742CF701F70A4B2C06
:1008800001300310F00DF10DFF3E031D412C01302E
:10089000F4007408F707F11F4E2C4F2C402C013048
:1008A0000310F50DF60DFF3E031D502C7108730269
:1008B000031D5C2C70087202031C5F2C602C672CDB
:1008C0007008F2027108031CF303F302751401307F
:1008D0000310F10CF00CFF3E031D682C0130F702F1
:1008E000031D732C742C4F2C7608F1007508F00052
:1008F0000800F601F11F7D2C7E2C852CF009F109F2
:10090000F00A0319F10AF601F60AF31F882C892C64
:10091000922CF209F309F20A0319F30A0130F400E8
:100920007408F606F701F801700871040319992C90
:100930009A2CD12CF501F50AA82C01300310F00DEA
:10094000F10DFF3E031D9E2C0130F4007408F507E5
:10095000F11FAB2CAC2C9D2C01300310F70DF80DC2
:10096000FF3E031DAD2C71087302031DB92C7008E6
:100970007202031CBC2CBD2CC42C7008F20271083E
:10098000031CF303F302771401300310F10CF00C95
:10099000FF3E031DC52C0130F502031DD02CD12CC8
:1009A000AC2C76080319D52CD62CDB2CF709F809CA
:1009B000F70A0319F80A7808F1007708F000080030
:1009C0000230F4000430F300BA30F200F20BE62CEF
:1009D000F30BE62CF40BE62C00000A128A112C23F0
:1009E0000A128A11D0300A128A1165230A128A115A
:1009F00019300A128A1155230A128A1107300A1275
:100A00008A1155230A128A110A128A1105230A1221
:100A10008A11D0300A128A1165230A128A116B30AA
:100A20000A128A1155230A128A1101300A128A11F8
:100A300055230A128A110A128A1105230A128A11F1
:100A4000D0300A128A1165230A128A111A300A124A
:100A50008A1155230A128A1100300A128A1155236D
:100A60000A128A110A128A1105230A128A11D03039
:100A70000A128A1165230A128A111C300A128A117D
:100A800055230A128A1100300A128A1155230A12BC
:100A90008A110A128A1105230A128A11D0300A1209
:100AA0008A1165230A128A111B300A128A115523F2
:100AB0000A128A1118300A128A1155230A128A1151
:100AC0000A128A1105230A128A11D0300A128A11D9
:100AD00065230A128A1138300A128A1155230A1224
:100AE0008A1101300A128A1155230A128A110A1238
:100AF0008A1105230A128A11080083120313AB001E
:100B00002130A3002308A6004E2E25302C06031901
:100B10008A2D8B2D972D2C08A3002B0884002308E9
:100B2000831380000130A3002308AB074E2EA701DA
:100B30000130A007FF30200784000A128A11032029
:100B40000A128A11AC00A300A4012408003A031978
:100B5000AA2D4E2E2308003A0319602E643A031979
:100B6000B52D0D3A0319B52D4E2E2608840083139A
:100B70000008A900840A0008AA000230A300230884
:100B8000A607AA1FC42DC52DCE2D0330A300230810
:100B9000A704A909AA09A90A0319AA0AAC01AC0A5F
:100BA0002C08A3002307013E84000A128A110320A7
:100BB0000A128A11A4000A128A1103200A128A1149
:100BC000A50025082A02031DE72D24082902031881
:100BD000EA2DEB2DEC2DF62D0130A3002308AC07F8
:100BE00005302C06031DF52DF62DD02D27080339D1
:100BF0000319FB2DFC2D072E2D30A3002B0884009C
:100C00002308831380000130A3002308AB072C08BE
:100C1000A3002308A800452E0A30F8000030F90090
:100C20002808A3002307013E84000A128A1103202A
:100C30000A128A11F0000A128A1103200A128A117C
:100C4000F1002A08F3002908F2000A128A1135245B
:100C50000A128A117108FB007008FA000A128A1140
:100C6000FB230A128A117808303E83120313A40072
:100C70002408AC002C08A3002B088400230883134D
:100C800080000130A3002308AB07FF30A300230836
:100C9000A807280A031D4D2E4E2E0C2E0130A0074A
:100CA000FF30200784000A128A1103200A128A11D9
:100CB000A3002308AC002C08031D5F2E602E852D99
:100CC0002B088400831380010800D0300A128A1197
:100CD00065230A128A113B300A128A1155230A121F
:100CE0008A110A128A1105230A128A11D1300A12B6
:100CF0008A1165230A128A1100300A128A11A92367
:100D00000A128A1183120313AD00AE0100300A12D9
:100D10008A11A9230A128A1183120313AF00B001AA
:100D20002F08B000AF012D082F04D9002E08300481
:100D3000DA0000300A128A11A9230A128A118312DA
:100D40000313AD00AE0100300A128A11A9230A1262
:100D50008A1183120313AF00B0012F08B000AF0156
:100D60002D082F04E5002E083004E60000300A129A
:100D70008A11A9230A128A1183120313AD00AE014E
:100D800000300A128A11A9230A128A11831203134E
:100D9000AF00B0012F08B000AF012D082F04DB0019
:100DA0002E083004DC0000300A128A11A9230A122E
:100DB0008A1183120313AD00AE0100300A128A11AA
:100DC000A9230A128A1183120313AF00B0012F085E
:100DD000B000AF012D082F04DD002E083004DE0026
:100DE00000300A128A11A9230A128A1183120313EE
:100DF000AD00AE0100300A128A11A9230A128A112D
:100E000083120313AF00B0012F08B000AF012D080B
:100E10002F04DF002E083004E00000300A128A118F
:100E2000A9230A128A1183120313AD00AE01003008
:100E30000A128A11A9230A128A1183120313AF001E
:100E4000B0012F08B000AF012D082F04E1002E08DB
:100E50003004E20001300A128A11A9230A128A1111
:100E600083120313AD00AE0100300A128A11A923C8
:100E70000A128A1183120313AF00B0012F08B000C9
:100E8000AF012D082F04E3002E083004E4000A12FD
:100E90008A1105230A128A118030F0000030F10017
:100EA000831203136508003EF20066080318013E32
:100EB000403EF3000A128A1179240A128A1170083E
:100EC0008312031386003F30AD002D08A0005A089E
:100ED000A2005908A10031300A128A117D250A1298
:100EE0008A1131300A128A1188230A128A111830A5
:100EF00083120313AD002D08A0006608A200650848
:100F0000A10031300A128A117D250A128A1131306E
:100F10000A128A1188230A128A11323083120313AB
:100F2000AD002D08A0005C08A2005B08A1003130D4
:100F30000A128A117D250A128A1131300A128A1189
:100F400088230A128A11563083120313AD002D082C
:100F5000A0005E08A2005D08A10031300A128A11CB
:100F60007D250A128A1131300A128A1188230A1249
:100F70008A110B3083120313AD002D08A000600806
:100F8000A2005F08A10031300A128A117D250A12E1
:100F90008A1131300A128A1188230A128A112530E7
:100FA00083120313AD002D08A0006208A20061089F
:100FB000A10031300A128A117D250A128A113130BE
:100FC0000A128A1188230A128A114B3083120313E2
:100FD000AD002D08A0006408A2006308A100313014
:100FE0000A128A117D250A128A1131300A128A11D9
:100FF00088230A128A11080083010A128A11D02B51
:04400E00D42CFF3E71
:00000001FF
