:020000040000FA
:100000000A128A11EB2F00308A000408840A820742
:060010000034313400341D
:100E800001347030831603138F040800640080015E
:100E9000840A0406031900340406472FF000831661
:100EA0000313981C542F552F4F2F700883120313D0
:100EB000990008008316031318110C3099001812BA
:100EC00083120313981783160313071387179816B3
:100ED000831203131816080083160317880189016B
:100EE0008312031385018601870188018901831616
:100EF000031385018601803087008801890108007D
:100F0000F300F101F201972F7108730784000A12B0
:100F10008A1103200A128A110A128A114E270A1214
:100F20008A110130F1070318F20A0030F207710844
:100F3000730784000A128A1103200A128A11003AE8
:100F4000031DA32FA42F842F08000A128A116C27D7
:100F50000A128A110A128A115A270A128A110A12CF
:100F60008A1141270A128A1104308312031388065A
:100F700001300A128A1180270A128A118312031380
:100F80008C1EC32FC42FD62F1A08F4007408F80043
:100F900078080319CC2FCD2FCE2F08147808031D05
:100FA000D22FD32FD52F0715D62F87140130F40059
:100FB0007408F7070630F6001330F500AD30F40082
:100FC000F40BE02FF50BE02FF60BE02FE72FB42FFB
:100FD0000A128A1100280A128A1140270A128A115D
:100FE000F9008313203084005C300A128A114627EE
:100FF0000A128A11F701F80183010A128A11A52F3A
:04400E00D42CFF3E71
:00000001FF
