:020000040000FA
:100000000A128A11ED2FFF1B0D2883137F18831707
:100010000008840A0319FF0A080000308A00040857
:10002000840A82070034013400340A340034643412
:100030000034E83403341034273441344434433436
:10004000203443344F344E34543420345434453403
:100050004D34503420340A34003441344434433471
:100060002034203443344F344E345434203420343C
:10007000543445344D3450340034253432346434EF
:100080002034203425343234643420342034253470
:0600900032346434003438
:1005940005340C308316031399000800F00070082A
:1005A4008312031388000800F000700883120313F9
:1005B4009300080083160313141CE12AE22ADC2AA0
:1005C40008008316031318128312031398171816BE
:1005D400080064008001840A040603190034040638
:1005E400EC2A0A128A11DC220A128A1183120313DA
:1005F40013080800F00083160313981C022B032B26
:10060400FD2A7008831203139900080000300A12AF
:100614008A1181230A128A1101300A128A11812354
:100624000A128A11080083160313981683120313FF
:100634000C12831603130C128B130B138717071357
:100644000800F100F0013A30710203182A2B2B2B19
:10065400332B30307102031C302B312B332BF00140
:10066400F00A700C0800F300831603138712731D3D
:100674003C2B3D2B412B720894008715452B7008A9
:100684007204940087117308710483120313940095
:100694000800F20083120313091472080A128A1163
:1006A400D0220A128A118312031389140D30F10027
:1006B400F10B5A2B8312031389100330F100F10B51
:1006C400612B08008316031788018901831603131D
:1006D40007108710071187178601880183120313F7
:1006E40086018801071587140714F001F101F2014E
:1006F40020300A128A1135230A128A110800F300E5
:1007040083120313091073080A128A11D0220A12E1
:100714008A118312031389140630F2003030F10079
:10072400F10B922BF20B922B00008312031389100E
:100734000330F2009730F100F10B9E2BF20B9E2B4D
:10074400A32B0800F6007603031DA92BAA2BB62BB6
:100754007408803EF5007508F70077080A128A11BC
:1007640081230A128A11C72B02307606031DBB2B84
:10077400BC2BC72B7408C03EF5007508F70077083A
:100784000A128A1181230A128A110800F401F50160
:10079400701CCD2BCE2BD42B7208F4070318F50A4A
:1007A4007308F50701300310F20DF30DFF3E031D2E
:1007B400D52B01300310F10CF00CFF3E031DDC2B94
:1007C40070087104031DE72BE82BCA2B7508F10090
:1007D4007408F0000800F401042C74087107840004
:1007E40072080318720AFF000A128A1103200A12FF
:1007F4008A110A128A11FC220A128A110130F300AA
:100804007308F40774087107840072080318720AE5
:1008140083120313FF000A128A1103200A128A1199
:10082400003A031D162C172CEF2B080078087904C6
:1008340003191D2C1E2C4D2CFD01FD0A2C2C0130FE
:100844000310F80DF90DFF3E031D222C0130FC00AE
:100854007C08FD07F91F2F2C302C212C79087B02F2
:10086400031D362C78087A02031C392C3A2C402CB0
:100874007808FA027908031CFB03FB020130031019
:10088400F90CF80CFF3E031D412C0130FD02031D41
:100894004C2C4D2C302C7B08F9007A08F800080009
:1008A400F801F901772C78087307F6007408F5004D
:1008B4000318F50AF81F5F2CF5037508F70077088D
:1008C40083120313FF00760884000A128A1103209E
:1008D4000A128A110A128A114B230A128A11013050
:1008E400F8070318F90A0030F90778087307F600C7
:1008F4007408F5000318F50AF81F812CF503750830
:10090400F700770883120313FF00760884000A12A5
:100914008A1103200A128A11003A031D922C932C87
:10092400552C0800F501F6017008710403199B2C7D
:100934009C2CD32CF701F70AAA2C01300310F00DDC
:10094400F10DFF3E031DA02C0130F4007408F707DD
:10095400F11FAD2CAE2C9F2C01300310F50DF60DBC
:10096400FF3E031DAF2C71087302031DBB2C7008DE
:100974007202031CBE2CBF2CC62C7008F202710834
:10098400031CF303F302751401300310F10CF00C93
:10099400FF3E031DC72C0130F702031DD22CD32CBC
:1009A400AE2C7608F1007508F000080083120313DA
:1009B4000910891000300A128A11D0220A128A11F1
:1009C4001A30F500F830F400F40BE62CF50BE62CA5
:1009D400000030300A128A1181230A128A1107306A
:1009E400F5007D30F400F40BF52CF50BF52C3030CC
:1009F4000A128A1181230A128A110F30F500473036
:100A0400F400F40B032DF50B032D082D30300A12DE
:100A14008A1181230A128A1138300A128A11812319
:100A24000A128A110C300A128A1181230A128A11BD
:100A340001300A128A1181230A128A1106300A121D
:100A44008A1181230A128A1108000A128A11642366
:100A54000A128A110A128A11D8240A128A110A1255
:100A64008A1108230A128A110A128A11CB220A1245
:100A74008A110A128A1115230A128A110A128A117A
:100A8400E3220A128A110B30F1008030F2000A12BC
:100A94008A11ED230A128A110D300A128A11FC22DE
:100AA4000A128A110A300A128A11FC220A128A11C5
:100AB4002B3083120313B3003308A0003C08B400A6
:100AC400B5013408A1003508A2003B08B600B701FF
:100AD4003608A3003708A4005108B800B901380843
:100AE400A5003908A6003D300A128A1167260A12A9
:100AF4008A113D30F1000030F2000A128A11ED2310
:100B04000A128A110D300A128A11FC220A128A1161
:100B14000A300A128A11FC220A128A110A128A1154
:100B240008230A128A11F401F40A01300A128A1104
:100B3400A4230A128A111B30F3008030F4000A1235
:100B44008A1152240A128A11F401F40A02300A1298
:100B54008A11A4230A128A113D30F3000030F400F4
:100B64000A128A1152240A128A11063083120313BC
:100B7400B5001330B400AD30B300B30BBF2DB40BCC
:100B8400BF2DB50BBF2D831203130711033083123E
:100B94000313B4009730B300B30BCE2DB40BCE2D9A
:100BA40001300A128A11D6220A128A110A128A11F3
:100BB400F3220A128A1183120313B3003308BB0011
:100BC400033083120313B4009730B300B30BE82D42
:100BD400B40BE82D83120313071503308312031398
:100BE400B4009730B300B30BF52DB40BF52D83127D
:100BF40003138710033083120313B4009730B30038
:100C0400B30B022EB40B022E01300A128A11D62223
:100C14000A128A110A128A11F3220A128A11831201
:100C24000313B3003308BC00033083120313B4006E
:100C34009730B300B30B1C2EB40B1C2E831203137A
:100C44008714033083120313B4009730B300B30B3B
:100C5400292EB40B292E8312031307100330831299
:100C64000313B4009730B300B30B362EB40B362EF7
:100C740001300A128A11D6220A128A110A128A1122
:100C8400F3220A128A1183120313B3003308D1002A
:100C940051088600033083120313B4009730B30065
:100CA400B30B522EB40B522E8312031307140330CA
:100CB40083120313B4009730B300B30B5F2EB40B4D
:100CC4005F2E452D0A128A11002883120313AF00E8
:100CD4002130A7002708AA00D62F25303206031991
:100CE400742E752E812E3208A7002F088400270841
:100CF400831380000130A7002708AF07D62FB00167
:100D0400B101AC01200884000A128A110D200A12D4
:100D14008A110A128A1123230A128A11031C932EA0
:100D2400942ED42E83120313B001B1010A30F000C3
:100D34000030F100831203133108F3003008F2008D
:100D44000A128A11C8230A128A1171088312031322
:100D5400B1007008B000200884000A128A110D2026
:100D64000A128A11D03EA700FF3003180030A800F1
:100D74002708B0070318B10A2808B1070130A700F3
:100D84002708A007200884000A128A110D200A12DD
:100D94008A110A128A1123230A128A110318D32EE4
:100DA400D42E982E013083120313A007FF3020079E
:100DB40084000A128A110D200A128A11B200A700B7
:100DC400A8012808003A0319E82ED62F2708003A6C
:100DD4000319E82F643A0319F32E0D3A0319F32E7D
:100DE400D62F2A08840083130008AD00840A000863
:100DF400AE000230A7002708AA07AE1F022F032F58
:100E04000C2F0330A7002708AC04AD09AE09AD0AC6
:100E14000319AE0AB201B20A3208A7002707013E3D
:100E240084000A128A110D200A128A11A8000A12DB
:100E34008A110D200A128A11A90029082E02031D05
:100E4400252F28082D020318282F292F2A2F342F65
:100E54000130A7002708B20705303206031D332FDF
:100E6400342F0E2F300831040319392F3A2F462F0F
:100E74002C08033903193F2F402F462FFF30B007AA
:100E84000318B10AFF30B1073108803A803C031DD2
:100E94004D2F300832020318502F512F5D2F83122B
:100EA40003133208A700A8012708B0022808031C6E
:100EB400B103B102612F83120313B001B1013008F1
:100EC40031040319662F672F7E2F2030A7002F08C7
:100ED40084002708831380000130A7002708AF0788
:100EE400FF30B0070318B10AFF30B10730083104EE
:100EF400031D7D2F7E2F672F2C0803390319832FA1
:100F0400842F8F2F2D30A7002F08840027088313E8
:100F140080000130A7002708AF073208A700270880
:100F2400AB00CD2F0A30F8000030F9002B08A700E1
:100F34002707013E84000A128A110D200A128A1121
:100F4400F0000A128A110D200A128A11F1002E08EB
:100F5400F3002D08F2000A128A1194240A128A114D
:100F64007108FB007008FA000A128A1118240A1288
:100F74008A117808303E83120313A8002808B200AF
:100F84003208A7002F08840027088313800001304B
:100F9400A7002708AF07FF30A7002708AB072B0AD5
:100FA400031DD52FD62F942F0130A007FF30200723
:100FB40084000A128A110D200A128A11A700270838
:100FC400B2003208031DE72FE82F6F2E2F0884008C
:100FD4008313800108000A128A11CA220A128A1194
:100FE400D10083133A30840051300A128A11EB2263
:0C0FF4000A128A1183010A128A11272DAB
:04400E00D620FF3F7A
:00000001FF
