:020000040000FA
:060000000A128A11E82F2C
:10000A000534F601F31F0A280B281228F209F3090E
:10001A00F20A0319F30AF601F60AF11F152816283F
:10002A001B28F009F109F00A0319F10A7008710492
:10003A000319202821285028F501F50A2F28013014
:10004A000310F00DF10DFF3E031D25280130F400C9
:10005A007408F507F11F322833282428710873021F
:10006A00031D392870087202031C3C283D284328C6
:10007A007008F2027108031CF303F3020130031043
:10008A00F10CF00CFF3E031D44280130F502031D5C
:10009A004F285028332876080319542855285A28F7
:1000AA00F209F309F20A0319F30A7308F100720854
:1000BA00F00008000A168A1535220A128A110A1651
:1000CA008A1544240A128A110A168A15D9210A1293
:1000DA008A110A168A159A210A128A110A168A158B
:1000EA00E6210A128A110A168A15B2210A128A11FF
:1000FA009130F1008030F2000A168A150B230A1299
:10010A008A110D300A168A15CD210A128A110A306F
:10011A000A168A15CD210A128A113C30831203135A
:10012A00A700A030A6009030A5002E30A4008316A8
:10013A0003135308C900CA01CB01CC014C08F300D0
:10014A004B08F2004A08F1004908F00001300A168B
:10015A008A15CB250A128A11730883120313AB007E
:10016A007208AA007108A9007008A8000A128A1564
:10017A009F240A128A118312031327088316031372
:10018A00D10083120313260883160313D0008312A7
:10019A000313250883160313CF00831203132408BD
:1001AA0083160313CE00A330C9004908A0005108E2
:1001BA00A4005008A3004F08A2004E08A10052084C
:1001CA00CA00CB014A08A5004B08A6006808CC0063
:1001DA00CD014C08A7004D08A800D4300A168A1190
:1001EA003E250A128A11D430F1000030F2000A16B4
:1001FA008A150B230A128A110D300A168A15CD2187
:10020A000A128A110A300A168A15CD210A128A118F
:10021A000A168A15D9210A128A11F401F40A013040
:10022A000A168A1577220A128A11B430F30080302E
:10023A00F4000A168A1570230A128A11F401F40AC4
:10024A0002300A168A1577220A128A11D430F3006C
:10025A000030F4000A168A1570230A128A11063031
:10026A0083160313CB001330CA00AD30C900C90B83
:10027A003C29CA0B3C29CB0B3C29831203130711D7
:10028A00033083160313CA009730C900C90B4B29E0
:10029A00CA0B4B2901300A168A15A5210A128A119E
:1002AA000A168A1100200A128A1183160313C9003A
:1002BA004908D200033083160313CA009730C900D5
:1002CA00C90B6529CA0B6529831203130715033065
:1002DA0083160313CA009730C900C90B7229CA0BC7
:1002EA007229831203138710033083160313CA007B
:1002FA009730C900C90B7F29CA0B7F2901300A161A
:10030A008A15A5210A128A110A168A1100200A12D0
:10031A008A1183160313C9004908D30003308316D0
:10032A000313CA009730C900C90B9929CA0B992926
:10033A00831203138714033083160313CA009730FA
:10034A00C900C90BA629CA0BA629831203130710D1
:10035A00033083160313CA009730C900C90BB329A7
:10036A00CA0BB32901300A168A15A5210A128A1165
:10037A000A168A1100200A128A1183160313C90069
:10038A004908E800033083160313CA009730C900EE
:10039A00C90BCD29CA0BCD298312031307140330C5
:1003AA0083160313CA009730C900C90BDA29CA0B8E
:1003BA00DA297D280A128A110028831603134408B1
:1003CA00F3004308F2004208F1004108F00000304F
:1003DA00F7000030F6000030F5000030F4000A168D
:1003EA008A15F6230A128A110318FC29FD29A52A5F
:1003FA0083160313440883120313D40083160313CA
:10040A00430883120313D30083160313420883128B
:10041A000313D20083160313410883120313D10076
:10042A000A168A154F250A128A11831203135408D1
:10043A00530452045104031D232A242AA52A83168D
:10044A0003134008803AFF0080307F02031D2F2AE1
:10045A0002303F02031C322A332AA52A83160313C9
:10046A003A08F3003908F2003808F1003708F000BA
:10047A004030F7008930F6007030F5005F30F40044
:10048A000A168A1109200A128A1103184D2A4E2ABD
:10049A00572AF73083160313BF070318C00AFF3021
:1004AA00C0075F2AF83083160313BF070318C00A70
:1004BA00FF30C0073F080A128A1540210A128A1122
:1004CA0083120313410883160313BA00831203131A
:1004DA00400883160313B900831203133F088316D7
:1004EA000313B800831203133E0883160313B700DD
:1004FA004408F3004308F2004208F1004108F00002
:10050A003A08F7003908F6003808F5003708F40009
:10051A000A168A1542270A128A11730883160313C8
:10052A00BE007208BD007108BC007008BB00003034
:10053A00C4000030C3000030C2000030C100292BC3
:10054A0083160313440883120313D4008316031378
:10055A00430883120313D30083160313420883123A
:10056A000313D20083160313410883120313D10025
:10057A000A168A154F250A128A1183120313540880
:10058A0083160313BE00831203135308831603133F
:10059A00BD0083120313520883160313BC0083128F
:1005AA000313510883160313BB003E08F3003D08EA
:1005BA00F2003C08F1003B08F00000300A168A15E8
:1005CA00CB250A128A11730883120313E9007208F1
:1005DA00E8007108E7007008E60083160313440870
:1005EA0083120313ED0083160313430883120313C4
:1005FA00EC0083160313420883120313EB008316DD
:10060A000313410883120313EA000A168A159B2270
:10061A000A128A1183120313690883160313C4008A
:10062A0083120313680883160313C3008312031388
:10063A00670883160313C20083120313660883161E
:10064A000313C100BF01C001C801C80A4808A900B4
:10065A0001300310A90DFF3E031D2E2B0310290D97
:10066A00693E84000A128A150A200A128A11AA000F
:10067A000A128A150A200A128A11AB000A128A156E
:10068A000A200A128A11AC000A128A150A200A12D2
:10069A008A11AD002D083E02031D5D2B2C083D0278
:1006AA00031D5D2B2B083C02031D5D2B2A083B0210
:1006BA000318602B612B622B6C2B0130A9002908CF
:1006CA00C8070A304806031D6B2B6C2B2B2B4808D6
:1006DA004607A90047080318470AAA003F0829073E
:1006EA00AB0040080318400A2A07AC002B08B502E1
:1006FA002C08031CB603B602460847040319862BC6
:10070A00872B8D2BFF30B5070318B60AFF30B607C3
:10071A0003303305A90000303405AA0029082A0449
:10072A000319982B992BAE2BFF30B5070318B60A7D
:10073A00FF30B607AE2B203083160313A9004508F5
:10074A0084002908831380000130A9002908C507FD
:10075A00992B3608803AFF0080307F02031DB72BA1
:10076A00013035020318BA2BBB2BA02B033083169A
:10077A0003133305A90000303405AA0029082A0406
:10078A000319C82BC92B5B2C2D30A90045088400FE
:10079A002908831380000130A9002908C5075B2CAA
:1007AA004808A90001300310A90DFF3E031DD82BEC
:1007BA000310290D693E84000A128A150A200A12BA
:1007CA008A11F0000A128A150A200A128A11F10007
:1007DA000A128A150A200A128A11F2000A128A15C6
:1007EA000A200A128A11F3003E08F7003D08F600B3
:1007FA003C08F5003B08F4000A168A15E9240A1297
:10080A008A11730883160313BA007208B9007108B3
:10081A00B8007008B700003083120313A300003039
:10082A00A2000030A1000A30A000831603133A0880
:10083A0083120313A70083160313390883120313C1
:10084A00A60083160313380883120313A500831620
:10085A000313370883120313A4000A168A15932474
:10086A000A128A1183120313230883160313BA0088
:10087A0083120313220883160313B9008312031386
:10088A00210883160313B800831203132008831662
:10089A000313B7003708303EA90045088400290829
:1008AA00831380000130A9002908C5070130C80256
:1008BA00480A031D612C622CD52B762C3030831606
:1008CA000313A90045088400290883138000013016
:1008DA00A9002908C507FF30BF070318C00AFF305F
:1008EA00C0074008803AFF0080307F02031D7F2C3A
:1008FA0001303F020318822C832C632C83160313C6
:10090A004708803AFF0080307F02031D8E2C093091
:10091A004602031C912C922C992C0830831603133F
:10092A00A9002908C8009F2C831603134608A900AA
:10093A002908C8004808A900AA012908C6022A08E5
:10094A00031CC703C70248080319AC2CAD2CB82CEA
:10095A002E30A9004508840029088313800001303D
:10096A00A9002908C50748080A128A1540210A124F
:10097A008A1183120313410883160313B1008312E9
:10098A000313400883160313B000831203133F08AE
:10099A0083160313AF00831203133E08831603134F
:1009AA00AE00310883120313AB0083160313300819
:1009BA0083120313AA00831603132F088312031347
:1009CA00A900831603132E0883120313A8008316A3
:1009DA000313440883120313A7008316031343085F
:1009EA0083120313A6008316031342088312031308
:1009FA00A50083160313410883120313A4000A12E5
:100A0A008A159F240A128A11831203132708D40015
:100A1A002608D3002508D2002408D1000A168A1510
:100A2A004F250A128A1183120313540883160313DB
:100A3A00BE0083120313530883160313BD008312E7
:100A4A000313520883160313BC00831203135108BD
:100A5A0083160313BB00122E4808A90001300310A5
:100A6A00A90DFF3E031D342D0310290D693E840094
:100A7A000A128A150A200A128A11F0000A128A1525
:100A8A000A200A128A11F1000A128A150A200A1289
:100A9A008A11F2000A128A150A200A128A11F30030
:100AAA003E08F7003D08F6003C08F5003B08F40054
:100ABA000A168A15E9240A128A117308831603137F
:100ACA00BA007208B9007108B8007008B70000309F
:100ADA0083120313A3000030A2000030A1000A30E1
:100AEA00A000831603133A0883120313A700831680
:100AFA000313390883120313A60083160313380855
:100B0A0083120313A50083160313370883120313F2
:100B1A00A4000A168A1593240A128A11831203134F
:100B2A00230883160313BA008312031322088316B9
:100B3A000313B90083120313210883160313B800A1
:100B4A0083120313200883160313B7003708303EB5
:100B5A00A900450884002908831380000130A900F0
:100B6A002908C5074808A90001300310A90DFF3E4E
:100B7A00031DBA2D0310290D693E84000A128A1535
:100B8A000A200A128A1183120313A0000A128A1574
:100B9A000A200A128A11A1000A128A150A200A12C8
:100BAA008A11A2000A128A150A200A128A11A300BF
:100BBA00831603133E0883120313A7008316031335
:100BCA003D0883120313A600831603133C088312FD
:100BDA000313A500831603133B0883120313A4000F
:100BEA000A168A1593240A128A11831203132308F8
:100BFA0083160313BE0083120313220883160313FA
:100C0A00BD0083120313210883160313BC00831249
:100C1A000313200883160313BB000130C802480AD5
:100C2A00031D182E192E312D2B2E3030A900450800
:100C3A0084002908831380000130A9002908C50708
:100C4A00FF30C6070318C70AFF30C707460847041C
:100C5A00031D302E312E1A2ECF2F32088400831313
:100C6A000008A900840A0008AA002908BB002A086B
:100C7A00BC000030BC1BFF30BD00BE000230A90022
:100C8A002908B207BE1F4A2E4B2E5A2E0330B30430
:100C9A000030B404BB09BC09BD09BE09BB0A03196B
:100CAA00BC0A0319BD0A0319BE0A46084704031DF4
:100CBA005F2E602E6E2E3E083D043C043B04031D4D
:100CCA00672E682E6E2E0130C6070318C70A003039
:100CDA00C707C801C80A4808A90001300310A90DAE
:100CEA00FF3E031D732E0310290D693E84000A126C
:100CFA008A150A200A128A11AA000A128A150A20DB
:100D0A000A128A11AB000A128A150A200A128A11DB
:100D1A00AC000A128A150A200A128A11AD002D089F
:100D2A003E02031DA22E2C083D02031DA22E2B08F3
:100D3A003C02031DA22E2A083B020318A52EA62E4A
:100D4A00A72EB12E0130A9002908C8070A30480683
:100D5A00031DB02EB12E702E4708803A803C031D29
:100D6A00B82E460848020318BB2EBC2EC32E831683
:100D7A0003134608A9002908C800DB2E83160313AB
:100D8A004708803AA90080302902031DCE2E480860
:100D9A0046020318D12ED22EDB2E831603134808DF
:100DAA00A900AA012908C6002A08C7008316031346
:100DBA00350836040319E22EE32EF52E03303305E7
:100DCA00A90000303405AA0029082A040319EE2EC6
:100DDA00EF2EF52EFF30B5070318B60AFF30B60717
:100DEA00341FF82EF92E142F4708803AA900360826
:100DFA00803A2902031D032F350846020318062FDD
:100E0A00072F102F831603134608B5024708031C41
:100E1A00B603B602142F83160313B501B6013608BA
:100E2A00803A803C031D1B2F3508480203181E2FE9
:100E3A001F2F2B2F831603134808A900AA0129087C
:100E4A00B5022A08031CB603B6022F2F8316031312
:100E5A00B501B601350836040319342F352F4C2F46
:100E6A002030A90045088400290883138000013036
:100E7A00A9002908C507FF30B5070318B60AFF30CD
:100E8A00B60735083604031D4B2F4C2F352F033078
:100E9A003305A90000303405AA0029082A040319D9
:100EAA00572F582FC12F2D30A90045088400290833
:100EBA00831380000130A9002908C507C12F00301B
:100ECA0083120313A3000030A2000030A1000A30ED
:100EDA00A000831603134608A90001300310A90DC8
:100EEA00FF3E031D732F0310290D693E84000A1269
:100EFA008A150A200A128A11F0000A128A150A2093
:100F0A000A128A11F1000A128A150A200A128A1193
:100F1A00F2000A128A150A200A128A11F3003E0800
:100F2A00F7003D08F6003C08F5003B08F4000A16F5
:100F3A008A15E9240A128A11730883120313A70077
:100F4A007208A6007108A5007008A4000A168A157E
:100F5A0093240A128A11831203132008303E83163F
:100F6A000313AA002A08C8004808A90045088400F3
:100F7A002908831380005F2FFF30C6070318C70AAA
:100F8A00FF30C707460A031DCE2F470A031DCE2F7F
:100F9A00CF2F642F0130A007FF30200784000A12E8
:100FAA008A150A200A128A11A9002908C8004808C5
:100FBA00031DE02FE32F0A168A11482D45088400E5
:100FCA00831380010800831603130A128A1105206D
:100FDA000A128A11E8008313CE308400E8300A1618
:100FEA008A15BA210A128A1183120313EE018301A8
:100FFA000A128A115F28FF1B0A2883137F18831796
:10100A000008840A0319FF0A080008308A00040845
:10101A00840A820700340034003480343F340034B8
:10102A0000342034413400340034C83442340034AB
:10103A0000347A344434003440341C3446340034A6
:10104A005034C3344734003424347434493480343B
:10105A00963418344B342034BC34BE344C342834DF
:10106A006B346E344E34F934023415345034EC3463
:10107A007834AD346034CA34F234493471340034CB
:10108A00003480343F34CD34CC34CC343D340A344B
:10109A00D73423343C346F34123483343A3417341B
:1010AA00B734D1343834AC34C53427343734BD344A
:1010BA003734863435349534BF34D63433347734C0
:1010CA00CC342B3432345F34703489343034FF34C6
:1010DA00E634DB342E340834E5343C341E346034D0
:1010EA004234A2340D3401340034003400340A345A
:1010FA000034003400346434003400340034E834FA
:10110A000334003400341034273400340034A0345B
:10111A00863401340034403442340F34003480348D
:10112A009634983400340034E134F534053400340C
:10113A00CA349A343B34413444344334203420345E
:10114A0043344F344E3454342034203454344534E8
:10115A004D34503420340A340034253431342E349A
:10116A0032346634563420342534333464342034EB
:10117A002034253433346434433400344134443421
:10118A0043342034203443344F344E3454342034DE
:0C119A002034543445344D3450340034BB
:1011AE0083120313A101F81FDD28DE28E528F709B5
:1011BE00F809F70A0319F80AA101A10AFA1FE8288B
:1011CE00E928F228F909FA09F90A0319FA0A01308D
:1011DE00FB007B08A106A201A3017708780403197E
:1011EE00F928FA283129A001A00A08290130031094
:1011FE00F70DF80DFF3E031DFE280130FB007B08A6
:10120E00A007F81F0B290C29FD2801300310A20D91
:10121E00A30DFF3E031D0D2978087A02031D19291F
:10122E0077087902031C1C291D2924297708F90245
:10123E007808031CFA03FA02221401300310F80C8A
:10124E00F70CFF3E031D25290130A002031D302996
:10125E0031290C2921080319352936293B29A209E0
:10126E00A309A20A0319A30A2308F8002208F7000B
:10127E00080083120313D000D01F46294729F42AF1
:10128E00D009D00A5008803A123E031C4F2950292B
:10129E00382A0A30F7000030F8005008F200F30147
:1012AE00F21BF3036430F0000030F1000A128A11D1
:1012BE0006200A128A157108FA007008F9000A123F
:1012CE008A15D7200A128A15770883120313C200D3
:1012DE0001300310C20DFF3E031D70290310420D95
:1012EE00593E84000A128A150A200A128A15C30072
:1012FE000A128A150A200A128A15C4000A128A15C1
:10130E000A200A128A15C5000A128A150A200A1224
:10131E008A15C6004608A7004508A6004408A50081
:10132E004308A4006430F7000030F8005008F900BC
:10133E00FA01F91BFA030A128A15D7200A128A1526
:10134E00770883120313C70001300310C70DFF3E49
:10135E00031DAC290310470D7D3E84000A128A1529
:10136E000A200A128A15C8000A128A150A200A12C1
:10137E008A15C9000A128A150A200A128A15CA008D
:10138E000A128A150A200A128A15CB004B08AB00E6
:10139E004A08AA004908A9004808A8000A128A1596
:1013AE009F240A128A15831203132708CF002608DA
:1013BE00CE002508CD002408CC000A30F000003005
:1013CE00F1005008F200F301F21BF3030A128A1126
:1013DE0006200A128A15700883120313C200013008
:1013EE000310C20DFF3E031DF7290310420D353EBB
:1013FE0084000A128A150A200A128A15C3000A12DC
:10140E008A150A200A128A15C4000A128A150A20A1
:10141E000A128A15C5000A128A150A200A128A159E
:10142E00C6004608A7004508A6004408A5004308C4
:10143E00A4004F08AB004E08AA004D08A9004C08A6
:10144E00A8000A128A159F240A128A158312031302
:10145E002708C1002608C0002508BF002408BE00CA
:10146E009E2C5008803A753E031C3E2A3F2AC72AFE
:10147E000A30F0000030F1005008F200F301F21BC8
:10148E00F3030A128A1106200A128A1570088312B3
:10149E000313C20001300310C20DFF3E031D522A7A
:1014AE000310420D353E84000A128A150A200A12D4
:1014BE008A15C3000A128A150A200A128A15C40058
:1014CE000A128A150A200A128A15C5000A128A15EE
:1014DE000A200A128A15C6004608A7004508A6006B
:1014EE004408A5004308A4000A30F7000030F800B5
:1014FE005008F900FA01F91BFA030A128A15D720CF
:10150E000A128A15770883120313C70001300310DD
:10151E00C70DFF3E031D8E2A0310470D593E840052
:10152E000A128A150A200A128A15C8000A128A158A
:10153E000A200A128A15C9000A128A150A200A12EE
:10154E008A15CA000A128A150A200A128A15CB00B9
:10155E004B08AB004A08AA004908A9004808A80091
:10156E000A128A159F240A128A158312031327085A
:10157E00C1002608C0002508BF002408BE009E2C0E
:10158E005008C20001300310C20DFF3E031DCA2ACF
:10159E000310420D353E84000A128A150A200A12E3
:1015AE008A15C3000A128A150A200A128A15C40067
:1015BE000A128A150A200A128A15C5000A128A15FD
:1015CE000A200A128A15C6004608C1004508C00046
:1015DE004408BF004308BE009E2C5008803A123EBD
:1015EE00031CFA2AFB2AE32B0A30F7000030F8001E
:1015FE005008F200F301F21BF3036430F0000030E8
:10160E00F1000A128A1106200A128A157108FA00D0
:10161E007008F9000A128A15D7200A128A1577085F
:10162E0083120313C20001300310C20DFF3E031DCF
:10163E001B2B0310420D253E84000A128A150A2028
:10164E000A128A15C3000A128A150A200A128A156E
:10165E00C4000A128A150A200A128A15C5000A1237
:10166E008A150A200A128A15C6004608A7004508E0
:10167E00A6004408A5004308A4006430F70000301B
:10168E00F8005008F900FA01F91BFA030A128A153C
:10169E00D7200A128A15770883120313C700013068
:1016AE000310C70DFF3E031D572B0310470D493E78
:1016BE0084000A128A150A200A128A15C8000A1214
:1016CE008A150A200A128A15C9000A128A150A20DA
:1016DE000A128A15CA000A128A150A200A128A15D7
:1016EE00CB004B08AB004A08AA004908A9004808DD
:1016FE00A8000A128A159F240A128A158312031350
:10170E002708CF002608CE002508CD002408CC00DF
:10171E000A30F0000030F1005008F200F301F21B25
:10172E00F3030A128A1106200A128A157008831210
:10173E000313C20001300310C20DFF3E031DA22B86
:10174E000310420D013E84000A128A150A200A1265
:10175E008A15C3000A128A150A200A128A15C400B5
:10176E000A128A150A200A128A15C5000A128A154B
:10177E000A200A128A15C6004608A7004508A600C8
:10178E004408A5004308A4004F08AB004E08AA0069
:10179E004D08A9004C08A8000A128A159F240A12A7
:1017AE008A15831203132708C1002608C0002508D6
:1017BE00BF002408BE009E2C5008803A753E031CC4
:1017CE00E92BEA2B722C0A30F0000030F1005008A1
:1017DE00F200F301F21BF3030A128A1106200A1219
:1017EE008A15700883120313C20001300310C20D54
:1017FE00FF3E031DFD2B0310420D013E84000A1215
:10180E008A150A200A128A15C3000A128A150A209E
:10181E000A128A15C4000A128A150A200A128A159B
:10182E00C5000A128A150A200A128A15C600460831
:10183E00A7004508A6004408A5004308A4000A30E6
:10184E00F7000030F8005008F900FA01F91BFA030E
:10185E000A128A15D7200A128A15770883120313E3
:10186E00C70001300310C70DFF3E031D392C0310B6
:10187E00470D253E84000A128A150A200A128A157F
:10188E00C8000A128A150A200A128A15C9000A12FD
:10189E008A150A200A128A15CA000A128A150A2007
:1018AE000A128A15CB004B08AB004A08AA00490859
:1018BE00A9004808A8000A128A159F240A128A1540
:1018CE00831203132708C1002608C0002508BF0095
:1018DE002408BE009E2C5008C20001300310C20D19
:1018EE00FF3E031D752C0310420D013E84000A12AB
:1018FE008A150A200A128A15C3000A128A150A20AE
:10190E000A128A15C4000A128A150A200A128A15AA
:10191E00C5000A128A150A200A128A15C600460840
:10192E00C1004508C0004408BF004308BE000800BF
:10193E008312031327088039AC002C08B100270846
:10194E00AC002C07AD002D08B700A61FAF2CB02C95
:10195E00B12C371437080319B52CB62CC52C370A01
:10196E00031DBA2CBB2CC32C0030A7000030A600E0
:10197E000030A5000030A400A617CD2C0030A70023
:10198E000030A6000030A5000030A4002B088039DE
:10199E00AC002C08B1062B08AC002C07AD002D08AE
:1019AE00B600AA1FDB2CDC2CDD2C361436080319EE
:1019BE00E12CE22CF12C360A031DE62CE72CEF2C41
:1019CE000030AB000030AA000030A9000030A800A3
:1019DE00AA17F92C0030AB000030AA000030A90085
:1019EE000030A80036080319FD2CFE2C032D3708F5
:1019FE00031D022D032D0C2D0030A7000030A60074
:101A0E000030A5000030A400FF2F2408AC002C08E5
:101A1E00F0002A080A168A15E4220A128A1571089D
:101A2E0083120313BD007008BC003C08AC00AD016E
:101A3E00AE01AF012F08B5002E08B4002D08B3007B
:101A4E002C08B2003D08AC00AD01AE01AF012F086D
:101A5E00BB002E08BA002D08B9002C08B8002508C6
:101A6E00AC002C08F00029080A168A15E4220A1286
:101A7E008A15710883120313BD007008BC003C0860
:101A8E00AC00AD01AE01AF012C08B2072D08031159
:101A9E000318013E0319542DB3072E080311031822
:101AAE00013E03195B2DB4072F0803110318013EE5
:101ABE000319622DB5073D08AC00AD01AE01AF01B3
:101ACE002C08B8072D0803110318013E0319702DB9
:101ADE00B9072E0803110318013E0319772DBA0713
:101AEE002F0803110318013E03197E2DBB0726088C
:101AFE00AC002C08F00028080A168A15E4220A12F7
:101B0E008A15710883120313BD007008BC003C08CF
:101B1E00AC00AD01AE01AF012C08B2072D080311C8
:101B2E000318013E03199C2DB3072E080311031849
:101B3E00013E0319A32DB4072F0803110318013E0C
:101B4E000319AA2DB5073D08AC00AD01AE01AF01DA
:101B5E002C08B8072D0803110318013E0319B82DE0
:101B6E00B9072E0803110318013E0319BF2DBA073A
:101B7E002F0803110318013E0319C62DBB070830A9
:101B8E00AC000310B20DB30DB40DB50DAC0BC82DDA
:101B9E002508AC002C08F00028080A168A15E42245
:101BAE000A128A15710883120313BD007008BC0057
:101BBE003C08AC003D08AD00AE01AF012C08B207E9
:101BCE002D0803110318013E0319EE2DB3072E083D
:101BDE0003110318013E0319F52DB4072F08031145
:101BEE000318013E0319FC2DB5072408AC002C0880
:101BFE00F00029080A168A15E4220A128A157108BD
:101C0E0083120313BD007008BC003C08AC003D08F5
:101C1E00AD00AE01AF012C08B2072D080311031859
:101C2E00013E03191B2EB3072E0803110318013EA4
:101C3E000319222EB4072F0803110318013E0319AE
:101C4E00292EB5070830AC000310B20DB30DB40D3C
:101C5E00B50DAC0B2B2E2408AC002C08F000280878
:101C6E000A168A15E4220A128A15710883120313C2
:101C7E00BD007008BC003C08AC003D08AD00AE01D4
:101C8E00AF012C08B2072D0803110318013E0319EA
:101C9E00512EB3072E0803110318013E0319582EB7
:101CAE00B4072F0803110318013E03195F2EB50761
:101CBE002508AC002C08F0002A080A168A15E42222
:101CCE000A128A15710883120313BD007008BC0036
:101CDE003C08AC003D08AD00AE01AF012C08B807C2
:101CEE002D0803110318013E03197E2EB9072E0885
:101CFE0003110318013E0319852EBA072F0803118D
:101D0E000318013E03198C2EBB072608AC002C08C5
:101D1E00F00029080A168A15E4220A128A1571089B
:101D2E0083120313BD007008BC003C08AC003D08D4
:101D3E00AD00AE01AF012C08B8072D080311031832
:101D4E00013E0319AB2EB9072E0803110318013EED
:101D5E000319B22EBA072F0803110318013E0319F7
:101D6E00B92EBB072608AC002C08F0002A080A166C
:101D7E008A15E4220A128A15710883120313BD0014
:101D8E007008BC003C08AC003D08AD00AE01AF01D0
:101D9E0008300310AC0DAD0DAE0DAF0DFF3E031DA3
:101DAE00D02E2C08B8072D0803110318013E031975
:101DBE00E12EB9072E0803110318013E0319E82E70
:101DCE00BA072F0803110318013E0319EF2EBB07A4
:101DDE003208AC003308AD003408AE003508AF0051
:101DEE0018300310AF0CAE0CAD0CAC0CFF3E031D47
:101DFE00F82E2C08B8072D0803110318013E0319FD
:101E0E00092FB9072E0803110318013E0319102FCD
:101E1E00BA072F0803110318013E0319172FBB072A
:101E2E000830AC000310B20DB30DB40DB50DAC0BF4
:101E3E00192F37083607AC00AD01AD0D2C08823EC8
:101E4E00BC002D080318013EFF3EBD004B2F013094
:101E5E00AC000310B80DB90DBA0DBB0DAC0B302F85
:101E6E00B51F3A2F3B2F3C2F38140130AC00031016
:101E7E00B20DB30DB40DB50DAC0B3E2FFF30BC073C
:101E8E000318BD0AFF30BD07BA1F4E2F4F2F2E2F3E
:101E9E00B601B51F532F542F702FFF303205AC00F3
:101EAE00FF303305AD00FF303405AE007F30350511
:101EBE00AF002F082E042D042C040319672F682F52
:101ECE006B2FB601B60A702F381C6E2F6F2F702F26
:101EDE00682F36080319742F752FA62F0130B807F7
:101EEE00003003180130B907003003180130BA076B
:101EFE00003003180130BB073B1C862F872FA62FFF
:101F0E003808AC003908AD003A08AE003B08AF0007
:101F1E000130B0002F0DAF0CAE0CAD0CAC0CB00BF5
:101F2E00912F2F08BB002E08BA002D08B9002C08DF
:101F3E00B8000130BC070318BD0A0030BD073D08CC
:101F4E00803AFF0080307F02031DAF2FFF303C022E
:101F5E00031CB22FB32FBE2F7F3083120313BB008F
:101F6E008030BA000030B9000030B800F32F831271
:101F7E0003133D08803AFF0080307F02031DC92FF6
:101F8E0001303C020318CC2FCD2FD92F00308312F5
:101F9E000313BB000030BA000030B9000030B800A7
:101FAE00B101F32F831203133C08AC002C08B700C9
:101FBE00FF30B805FF30B9057F30BA050030BB05DC
:101FCE00371CEA2FEB2FEC2FBA173708AC00031093
:101FDE002C0CAD002D08BB003108AC002C08BB0446
:101FEE003B08A7003A08A6003908A5003808A40047
:101FFE0008000A168A15AB210A168A1183120313DA
:10200E001308080000307005F80000307105F90063
:10201E0080307205FA007F307305FB007B087A046E
:10202E0079047804031D1C281D2825280030F30090
:10203E000030F2000030F1000030F0000030740586
:10204E00F80000307505F90080307605FA007F3013
:10205E007705FB007B087A0479047804031D382881
:10206E00392841280030F7000030F6000030F50026
:10207E000030F400F31F4428452869280030F8008A
:10208E000030F9000030FA008030FB007008F802D2
:10209E007108031C710F54285528F9027208031C8D
:1020AE00720F5A285B28FA027308031C730F6028FC
:1020BE006128FB027B08F3007A08F2007908F10030
:1020CE007808F000F71F6C286D2891280030F80072
:1020DE000030F9000030FA008030FB007408F8027E
:1020EE007508031C750F7C287D28F9027608031CE1
:1020FE00760F82288328FA027708031C770F882828
:10210E008928FB027B08F7007A08F6007908F500AB
:10211E007808F4008030F3068030F70677087302F3
:10212E00031DA32876087202031DA32875087102E9
:10213E00031DA328740870020318A628A728A9282F
:10214E000310AA280314080083120313D1006E3063
:10215E005102031CB328B428C1293F30A700003018
:10216E00A6000030A5000030A4006430F600003058
:10217E00F7005108C200C3014208F8004308F900F5
:10218E000A168A15B2230A168A11760883120313C9
:10219E00C40001300310C40DFF3E031DD1280310EF
:1021AE00440D7D3E84000A128A150A200A168A11F1
:1021BE00C5000A128A150A200A168A11C6000A12CA
:1021CE008A150A200A168A11C7000A128A150A20D1
:1021DE000A168A11C8004808AB004708AA0046082C
:1021EE00A9004508A8000A128A159F240A168A110A
:1021FE00831203132708D0002608CF002508CE002F
:10220E002408CD000A30F6000030F7005108C20055
:10221E00C3014208F2004308F3006430F0000030BE
:10222E00F1000A168A1536230A168A117108F9006A
:10223E007008F8000A168A15B2230A168A11760853
:10224E0083120313C40001300310C40DFF3E031D9F
:10225E002B290310440D593E84000A128A150A20B8
:10226E000A168A11C5000A128A150A200A168A1140
:10227E00C6000A128A150A200A168A11C7000A1207
:10228E008A150A200A168A11C8004808A7004708AE
:10229E00A6004608A5004508A4005008AB004F084C
:1022AE00AA004E08A9004D08A8000A128A159F24FC
:1022BE000A168A11831203132708CC002608CB00B6
:1022CE002508CA002408C9000A30F0000030F100C9
:1022DE005108C200C3014208F2004308F3000A1677
:1022EE008A1536230A168A11700883120313C40046
:1022FE0001300310C40DFF3E031D80290310440D51
:10230E00353E84000A128A150A200A168A11C50063
:10231E000A128A150A200A168A11C6000A128A158E
:10232E000A200A168A11C7000A128A150A200A16EE
:10233E008A11C8004808A7004708A6004608A5004D
:10234E004508A4004C08AB004B08AA004A08A90097
:10235E004908A8000A128A159F240A168A118312A8
:10236E0003132708C1002608C0002508BF00240853
:10237E00BE00B52A0B305102031CC629C729722A8A
:10238E003F30A7000030A6000030A5000030A400AA
:10239E000A30F6000030F7005108C200C3014208AF
:1023AE00F8004308F9000A168A15B2230A168A1194
:1023BE00760883120313C40001300310C40DFF3ED0
:1023CE00031DE4290310440D593E84000A128A1598
:1023DE000A200A168A11C5000A128A150A200A1640
:1023EE008A11C6000A128A150A200A168A11C70017
:1023FE000A128A150A200A168A11C8004808AB006C
:10240E004708AA004608A9004508A8000A128A151E
:10241E009F240A168A11831203132708D000260858
:10242E00CF002508CE002408CD000A30F000003081
:10243E00F1005108C200C3014208F2004308F30044
:10244E000A168A1536230A168A1170088312031388
:10245E00C40001300310C40DFF3E031D312A0310CA
:10246E00440D353E84000A128A150A200A168A1176
:10247E00C5000A128A150A200A168A11C6000A1207
:10248E008A150A200A168A11C7000A128A150A200E
:10249E000A168A11C8004808A7004708A600460871
:1024AE00A5004508A4005008AB004F08AA004E082E
:1024BE00A9004D08A8000A128A159F240A168A112F
:1024CE00831203132708C1002608C0002508BF0089
:1024DE002408BE00B52A3F30A7000030A600003009
:1024EE00A5000030A4005108C20001300310C20D37
:1024FE00FF3E031D7D2A0310420D353E84000A1255
:10250E008A150A200A168A11C3000A128A150A2091
:10251E000A168A11C4000A128A150A200A168A118E
:10252E00C5000A128A150A200A168A11C600460824
:10253E00AB004508AA004408A9004308A8000A12E7
:10254E008A159F240A168A11831203132708C100C5
:10255E002608C0002508BF002408BE00080083120C
:10256E00031355088039DA005A08E2005508DA00DC
:10257E005A07DB005B08E400D41FC62AC72AC82A04
:10258E00641464080319CC2ACD2ADD2A640A031DBB
:10259E00D12AD22ADA2A0030D5000030D4000030F9
:1025AE00D3000030D200D417D501E52A0030D50073
:1025BE000030D4000030D3000030D20059088039EA
:1025CE00DA005A08E300630862060319EF2AF02ABC
:1025DE00F12A62175908DA005A07DB005B08E3009C
:1025EE00D81FFA2AFB2AFC2A631463080319002B4E
:1025FE00012B112B630A031D052B062B0E2B00300E
:10260E00D9000030D8000030D7000030D600D817DF
:10261E00D901192B0030D9000030D8000030D70076
:10262E000030D6006408630203181E2B1F2B632B89
:10263E00621F222B232B272B8030DA005A08E2064A
:10264E006408DA005A08E5006308DA005A08E40064
:10265E006508DA005A08E3005208DA005A08E50065
:10266E005608DA005A08D2006508DA005A08D60071
:10267E005308DA005A08E5005708DA005A08D30062
:10268E006508DA005A08D7005408DA005A08E5003F
:10269E005808DA005A08D4006508DA005A08D8003B
:1026AE005508DA005A08E5005908DA005A08D5002C
:1026BE006508DA005A08D900E5016308DA00DB0183
:1026CE005B08DD0064085A02DC00031CDD035D08B4
:1026DE00803AFF0080307F02031D772B1A305C0298
:1026EE00031C7A2B7B2BB82B83120313550854042F
:1026FE0053045204031D842B862B0130872B00308C
:10270E00DA005A08E5000030D5000030D400003061
:10271E00D3000030D2006308DA005A08E400C02B60
:10272E00651C9A2B9B2BA42B6508DA0003105A0C00
:10273E000138DB005B08E500A62B0310E50C521CEC
:10274E00A92BAA2BAB2BE5170130DA00550DD50CB2
:10275E00D40CD30CD20CDA0BAD2B0130DA005A08A4
:10276E00E4078312031363086402031CBF2BC02B00
:10277E00972B621BC32BC42B0F2C6408031DC82B75
:10278E00C92BD22B0030D5000030D4000030D3003E
:10279E000030D2003D2D5608D207570803110318FA
:1027AE00013E0319DB2BD307580803110318013E12
:1027BE000319E22BD407590803110318013E03191C
:1027CE00E92BD507551CEC2BED2BC32C651CF02BE0
:1027DE00F12BFA2B6508DA0003105A0C0138DB00D6
:1027EE005B08E500FC2B0310E50C521CFF2B002CA4
:1027FE00012CE5170130DA00550DD50CD40CD30C95
:10280E00D20CDA0B032C0130DA005A08E407C32C81
:10281E005508803AFF005908803A7F02031D212C8B
:10282E0058085402031D212C57085302031D212C56
:10283E00560852020318242C252C7D2CFF30DA006A
:10284E00FF30DB00FF30DC00FF30DD005608DE001D
:10285E005708DF005808E0005908E1005208DE0270
:10286E005308031C530F3C2C3D2CDF025408031C51
:10287E00540F422C432CE0025508031C550F482CD4
:10288E00492CE1025E08DA075F0803185F0F502C2F
:10289E00512CDB0760080318600F562C572CDC07F1
:1028AE0061080318610ADD075D08D5005C08D400D5
:1028BE005B08D3005A08D2008030DA005A08E206CC
:1028CE00E509E50A6508031D6D2C6E2C8B2C013075
:1028DE00D207003003180130D3070030031801303F
:1028EE00D407003003180130D5078B2C5608D202BE
:1028FE005708031C570FD3025808031C580FD40255
:10290E005908031C590FD502550854045304520498
:10291E00031D922C932CBF2C6508031D972C982C0D
:10292E00BF2C0030D5000030D4000030D300003072
:10293E00D2003D2D0130DA000310D20DD30DD40D8F
:10294E00D50DDA0BA32CE51FAD2CAE2CAF2C5214EB
:10295E00651CB22CB32CB62C0314E50DB82C031049
:10296E00E50D64080319BC2CBD2CBF2C0130E4020C
:10297E00D41FC22CC32CA12CE301E51FC72CC82CDD
:10298E00D62C65087F390319CD2CCE2CD12CE30122
:10299E00E30AD62C521CD42CD52CD62CCE2C630864
:1029AE000319DA2CDB2C0F2D0130D207003003185F
:1029BE000130D307003003180130D407003003185C
:1029CE000130D507551CEC2CED2C0F2D5208DA00DA
:1029DE005308DB005408DC005508DD000130DE0032
:1029EE005D0DDD0CDC0CDB0CDA0CDE0BF72C5D0860
:1029FE00D5005C08D4005B08D3005A08D200640AE4
:102A0E0003190A2D0B2D0F2D0130DA005A08E40799
:102A1E00640A0319132D142D192D6408031D182D86
:102A2E00192D272D0030D5000030D4000030D300F2
:102A3E000030D2006408031D252D262D272DE2011E
:102A4E00641C2A2D2B2D2D2DD417312D7F30DA001D
:102A5E005A08D4056408DA0003105A0CDB005B0830
:102A6E00D500E21F3B2D3C2D3D2DD51708008316BA
:102A7E000313C500A130A9002908B2000A128A1159
:102A8E00CF2F2530480603194D2D4E2D5A2D4808AF
:102A9E00A900450884002908831380000130A9008D
:102AAE002908C507452DB501B601B301B4012008AB
:102ABE0084000A128A150A200A168A110A168A1525
:102ACE00F4210A168A11031C6D2D6E2DAE2D831660
:102ADE000313B501B6010A30F0000030F100831681
:102AEE0003133608F3003508F2000A168A15BF22C2
:102AFE000A168A11710883160313B6007008B50002
:102B0E00200884000A128A150A200A168A11D03E5D
:102B1E00A900FF3003180030AA002908B5070318D2
:102B2E00B60A2A08B6070130A9002908A00720080E
:102B3E0084000A128A150A200A168A110A168A15A4
:102B4E00F4210A168A110318AD2DAE2D722D83169F
:102B5E000313200884000A128A150A200A168A1105
:102B6E002E3A031DBB2DBC2D012E34170130A900AA
:102B7E002908A007C601C701F02D0A30F000003069
:102B8E00F100831603134708F3004608F2000A16F5
:102B9E008A15BF220A168A11710883160313C700FD
:102BAE007008C600200884000A128A150A200A1628
:102BBE008A11D03EA900FF3003180030AA00290860
:102BCE00C6070318C70A2A08C7070130A900290833
:102BDE00A007200884000A128A150A200A168A11F4
:102BEE000A168A15F4210A168A110318FF2D002ED3
:102BFE00C42D072EC601C7013416072E3415292EF3
:102C0E00013083160313A007FF30200784000A1239
:102C1E008A150A200A168A11C800A900AA012A08D4
:102C2E00003A03191B2E452D2908003A0319FD2FD2
:102C3E00643A0319292E023A0319052E0F3A031985
:102C4E00292E452D00303305A90007303405AA0082
:102C5E0029082A040319342E372E0A128A11322E0D
:102C6E00341E3A2E3B2E3F2E0630C6000030C700D3
:102C7E003208840083130008C100840A0008C200D1
:102C8E00840A0008C300840A0008C4000430A900A6
:102C9E002908B2074408F3004308F2004208F10085
:102CAE004108F0000030F7000030F6000030F5006B
:102CBE000030F4000A168A1109200A168A11031828
:102CCE00692E6A2E872E831603134408F3004308D9
:102CDE00F2004208F1004108F0000A168A15C221DE
:102CEE000A168A11730883160313C4007208C300F0
:102CFE007108C2007008C1000330B3040030B40480
:102D0E0083160313BF01C0014408F3004308F20009
:102D1E004208F1004108F0000030F7000030F600E4
:102D2E000030F5000030F4000A168A15F6230A1654
:102D3E008A110318A32EA42E942F031083160313A7
:102D4E00430D440D823EBF00FF3003180030C0001B
:102D5E00FF30BF070318C00AFF30C0070330F00072
:102D6E000030F1004008F3003F08F2000A168A1501
:102D7E00BF220A168A11710883160313C000700849
:102D8E00BF000A30F7000030F8004008FA003F0894
:102D9E00F9000A128A15D7200A168A1178088316A6
:102DAE000313C0007708BF00C01FDE2EDF2EE52EF6
:102DBE00FF30BF070318C00AFF30C0073F03FF3ABA
:102DCE000A128A1540210A168A118312031341082A
:102DDE0083160313BA0083120313400883160313DA
:102DEE00B900831203133F0883160313B80083122E
:102DFE0003133E0883160313B7004408831203130C
:102E0E00A70083160313430883120313A600831629
:102E1E000313420883120313A500831603134108FC
:102E2E0083120313A400831603133A0883120313A9
:102E3E00AB0083160313390883120313AA008316FB
:102E4E000313380883120313A900831603133708DC
:102E5E0083120313A8000A128A159F240A168A11D8
:102E6E0083120313270883160313BA008312031366
:102E7E00260883160313B90083120313250883163D
:102E8E000313B80083120313240883160313B70029
:102E9E003A08F3003908F2003808F1003708F0005C
:102EAE003F30F7008030F6000030F5000030F400BF
:102EBE000A168A1109200A168A110318672F682F1D
:102ECE00712FFF3083160313BF070318C00AFF309C
:102EDE00C007942F831603133A08F3003908F20043
:102EEE003808F1003708F0004130F7002030F600C6
:102EFE000030F5000030F4000A168A1109200A1677
:102F0E008A11031C8B2F8C2F942F013083160313E1
:102F1E00BF070318C00A0030C00783160313470803
:102F2E00803AFF0080307F02031D9F2F0D30460236
:102F3E000318A22FA32FEA2F8316031346080A168F
:102F4E008A11AB200A168A11831203134108D50089
:102F5E004008D4003F08D3003E08D2008316031366
:102F6E00440883120313D9008316031343088312F4
:102F7E000313D80083160313420883120313D700DA
:102F8E0083160313410883120313D6000A168A11FF
:102F9E00B6220A168A1183120313550883160313D9
:102FAE00C40083120313540883160313C300831241
:102FBE000313530883160313C2008312031352081C
:102FCE0083160313C100831603134008803AFF00D3
:102FDE0080307F02031DF52F0A303F020318FA2FAF
:102FEE000A128A11E2290A128A11332A0A128A1146
:022FFE00E32FBF
:103334000C308316031399000800F0007008831200
:10334400031388000800F00070088312031393002D
:10335400080083160313141CB029B129AB290800F3
:1033640083160313181283120313981718160800F0
:1033740064008001840A0406031900340406BB298E
:1033840073087204710470040319C929CA29CC2969
:103394008030F3060800F00083160313981CD32929
:1033A400D429CE2970088312031399000800003031
:1033B4000A168A1554220A168A1501300A168A1525
:1033C40054220A168A1508008316031398168312CA
:1033D40003130C12831603130C128B130B1387178E
:1033E40007130800F100F0013A3071020318FB29B9
:1033F400FC29042A30307102031C012A022A042AFF
:10340400F001F00A700C0800F3008316031387120E
:10341400731D0D2A0E2A122A720894008715162A83
:1034240070087204940087117308710483120313E3
:1034340094000800F20083120313091472080A1698
:103444008A159F210A168A158312031389140D30D5
:10345400F100F10B2B2A8312031389100330F100BE
:10346400F10B322A08008316031788018901831699
:103474000313071087100711871786018801890134
:103484008312031386018801890107158714071421
:10349400F001F101F20120300A168A1506220A16FB
:1034A4008A150800F30083120313091073080A161F
:1034B4008A159F210A168A1583120313891406306C
:1034C400F2003030F100F10B652AF20B652A00009E
:1034D4008312031389100330F2009730F100F10BCB
:1034E400712AF20B712A762A0800F6007603031D6E
:1034F4007C2A7D2A892A7408803EF5007508F70025
:1035040077080A168A1554220A168A159A2A02304E
:103514007606031D8E2A8F2A9A2A7408C03EF50067
:103524007508F70077080A168A1554220A168A15B0
:103534000800803083120313E9066D08D5006C0877
:10354400D4006B08D3006A08D2006908D90068085F
:10355400D8006708D7006608D6000A168A11B62272
:103564000A168A15831203135508E9005408E80063
:103574005308E7005208E6000800F401F501701C46
:10358400C42AC52ACB2A7208F4070318F50A73085B
:10359400F50701300310F20DF30DFF3E031DCC2A95
:1035A40001300310F10CF00CFF3E031DD32A700808
:1035B4007104031DDE2ADF2AC12A7508F10074088C
:1035C400F0000800F800F401F5017008F200F301BE
:1035D4007208F6007308F700781CF12AF22AF82A18
:1035E4007608F4070318F50A7708F5070130031085
:1035F400F60DF70DFF3E031DF92A0310F80C7808A9
:10360400031D052B062BEE2A7508F1007408F00043
:103614000800F401222B740871078400720803184F
:10362400720AFF000A128A1500200A168A150A1661
:103634008A15CD210A168A150130F3007308F407A0
:1036440074087107840072080318720A8312031342
:10365400FF000A128A1500200A168A15003A031D73
:10366400342B352B0D2B08007008710403193B2BE8
:103674003C2B6B2BF501F50A4A2B01300310F00D9E
:10368400F10DFF3E031D402B0130F4007408F507D3
:10369400F11F4D2B4E2B3F2B71087302031D542B2E
:1036A40070087202031C572B582B5E2B7008F20211
:1036B4007108031CF303F30201300310F10CF00C46
:1036C400FF3E031D5F2B0130F502031D6A2B6B2B9C
:1036D4004E2B7308F1007208F0000800F801F9019C
:1036E400952B78087307F6007408F5000318F50A9B
:1036F400F81F7D2BF5037508F70077088312031371
:10370400FF00760884000A128A1500200A168A151A
:103714000A168A151C220A168A150130F80703189E
:10372400F90A0030F90778087307F6007408F50001
:103734000318F50AF81F9F2BF5037508F70077089F
:1037440083120313FF00760884000A128A150020EE
:103754000A168A15003A031DB02BB12B732B0800EF
:10376400FB01FC01760877040319B92BBA2BF12B62
:10377400FD01FD0AC82B01300310F60DF70DFF3EC5
:10378400031DBE2B0130FA007A08FD07F71FCB2B6F
:10379400CC2BBD2B01300310FB0DFC0DFF3E031D94
:1037A400CD2B77087902031DD92B76087802031CE8
:1037B400DC2BDD2BE42B7608F8027708031CF903D5
:1037C400F9027B1401300310F70CF60CFF3E031DC5
:1037D400E52B0130FD02031DF02BF12BCC2B7C08D3
:1037E400F7007B08F600080000307005F800003090
:1037F4007105F90080307205FA007F307305FB0013
:103804007B087A0479047804031D092C0A2C122CF1
:103814000030F3000030F2000030F1000030F0001E
:1038240000307405F80000307505F9008030760525
:10383400FA007F307705FB007B087A04790478046A
:10384400031D252C262C2E2C0030F7000030F6000A
:103854000030F5000030F40077087306031D3C2C9B
:1038640076087206031D3C2C75087106031D3C2C5A
:103874007408700603193F2C402C422C0310432C6F
:1038840003140800831203130910891000300A1668
:103894008A159F210A168A151A30F500F830F400AB
:1038A400F40B522CF50B522C000030300A168A15FA
:1038B40054220A168A150730F5007D30F400F40B03
:1038C400612CF50B612C30300A168A1554220A1625
:1038D4008A150F30F5004730F400F40B6F2CF50B0C
:1038E4006F2C742C30300A168A1554220A168A1545
:1038F40038300A168A1554220A168A150C300A160C
:103904008A1554220A168A1501300A168A15542279
:103914000A168A1506300A168A1554220A168A15BA
:10392400080083120313230822042104200403192A
:103934009C2C9D2CE02CA901A90AAD2C0130A800D7
:103944000310A00DA10DA20DA30DA80BA22C0130F4
:10395400A8002808A907A31FB02CB12CA02C230869
:103964002702031DBF2C22082602031DBF2C210899
:103974002502031DBF2C20082402031CC22CC32CC7
:10398400D12C2008A4022108031C210FA50222081F
:10399400031C220FA6022308031C230FA7020130D5
:1039A4000310A30CA20CA10CA00CFF3E031DD22CEF
:1039B4000130A902031DDF2CE02CB12C2708A30041
:1039C4002608A2002508A1002408A0000800003051
:1039D400FC000030FB000030FA000030F9007308EE
:1039E4007204710470040319F82CF92C462DFD019E
:1039F400FD0A092D0130F8000310F00DF10DF20D50
:103A0400F30DF80BFE2C0130F8007808FD07F31FC6
:103A14000C2D0D2DFC2C0130F8000310F90DFA0DBE
:103A2400FB0DFC0DF80B0F2D73087702031D242DDD
:103A340072087602031D242D71087502031D242DBE
:103A440070087402031C272D282D372D7008F402EA
:103A54007108031C710FF5027208031C720FF60241
:103A64007308031C730FF702791401300310F30C6D
:103A7400F20CF10CF00CFF3E031D382D0130FD0259
:103A8400031D452D462D0D2D7C08F3007B08F20007
:103A94007A08F1007908F000080003108312031378
:103AA400530D540DD5005508DB005B08031D5B2D39
:103AB4005C2D652D0030D4000030D3000030D200DE
:103AC4000030D100CA2D5108D5005208D600530841
:103AD400D7005408D8001F300310D80CD70CD60CCC
:103AE400D50CFF3E031D6E2D5508D9005908DA0088
:103AF400D317FF30D105FF30D205FF30D305003096
:103B0400D4059630DB02DB1F882D892DA32D5B089D
:103B1400803A973E03188F2D902D912D5C2D013006
:103B24000310D40CD30CD20CD10CFF3E031D922DE8
:103B34000130D5005508DB07031DA12DA22D912DC1
:103B4400BA2D20305B02031CA82DA92DB52D5C2DA8
:103B54000130D5000310D10DD20DD30DD40DD50BEA
:103B6400AC2D0130DB025B08031DB92DBA2DAA2D43
:103B74005A080319BE2DBF2DCA2DD109D209D30964
:103B8400D409D10A0319D20A0319D30A0319D40A8E
:103B94000800F80078080319D02DD12DE52DF31F66
:103BA400D42DD52DE52D7009FA007109FB00720999
:103BB400FC007309FD00FA0A0319FB0A0319FC0A45
:103BC4000319FD0AED2D7308FD007208FC0071084D
:103BD400FB007008FA007308720471047004031D7A
:103BE400F42DF52DFE2D0030F3000030F2000030EE
:103BF400F1000030F000842E9630F4007408F900CF
:103C0400102E0130F4007408F90701300310FD0C84
:103C1400FC0CFB0CFA0CFF3E031D082EFE307D0548
:103C2400031D152E162E032E322E0130F4007408B7
:103C3400F9070130FA07003003180130FB070030A0
:103C440003180130FC07003003180130FD07013070
:103C54000310FD0CFC0CFB0CFA0CFF3E031D2A2E7A
:103C6400FF307D05031D372E382E172E442E0130CC
:103C7400F9020130F4000310FA0DFB0DFC0DFD0DEB
:103C8400F40B3D2EFC1B472E482E4E2E023079029B
:103C940003184D2E4E2E392E7918512E522E5A2E8F
:103CA400FF30FA05FF30FB057F30FC05FF30FD05D2
:103CB4000310F90C7908F400F501F601F701183046
:103CC4000310F40DF50DF60DF70DFF3E031D622EE6
:103CD4007408FA047508FB047608FC047708FD04EC
:103CE40078080319762E772E7C2EF31F7A2E7B2EDE
:103CF4007C2EFD177D08F3007C08F2007B08F100A0
:103D04007A08F00008007008F8007108F9007208D9
:103D1400FA000310790D7A0DFB007B08831203135C
:103D2400A5002508031D972E982EA12E0030F30020
:103D34000030F2000030F1000030F000412F740830
:103D4400F8007508F9007608FA000310790D7A0D69
:103D5400FB007B08A4002408031DB12EB22EB32E51
:103D6400982EF117FF30F005FF30F1050030F20511
:103D7400F517FF30F405FF30F5050030F605003087
:103D8400A3000030A2000030A1000030A0007F306A
:103D9400A50298302407F8007808A5021830F80026
:103DA4007808A4000130F8000310A00DA10DA20DA5
:103DB400A30DF80BD62E76087202031DE72E7508A4
:103DC4007102031DE72E74087002031CEA2EEB2E09
:103DD400F62E7408F0027508031C750FF1027608BC
:103DE400031C760AF202201401300310F00DF10DC9
:103DF400F20DFF3E031DF72E0130A402031D032F15
:103E0400042FD42EA51F072F082F222F2508803A10
:103E1400973E03180E2F0F2F102F982E01300310EA
:103E2400A30CA20CA10CA00CFF3E031D112F01300A
:103E3400F8007808A507031D202F212F102F392FF4
:103E440018302502031C272F282F342F982E0130D9
:103E5400F8000310A00DA10DA20DA30DF80B2B2F3C
:103E64000130A5022508031D382F392F292F2308D7
:103E7400F3002208F2002108F1002008F0000800F5
:103E84000310720D730DF800780883120313A50054
:103E94002508031D4E2F4F2F582F0030F3000030FC
:103EA400F2000030F1000030F000FF2F0310760D17
:103EB400770DF8007808A4002408031D622F632FEF
:103EC400642F4F2FF217FF30F005FF30F105FF305C
:103ED400F2050030F305F617FF30F405FF30F50561
:103EE400FF30F6050030F7050030A3000030A200D3
:103EF4000030A1000030A0007F30A502A0302407CC
:103F0400F8007808A5022030F8007808A4000130F1
:103F1400F8000310A00DA10DA20DA30DF80B8B2F1B
:103F240077087302031DA02F76087202031DA02FC9
:103F340075087102031DA02F74087002031CA32FBF
:103F4400A42FB32F7408F0027508031C750FF10237
:103F54007608031C760FF2027708031C770FF3022E
:103F640020140130F8000310F00DF10DF20DF30DE3
:103F7400F80BB52F0130A402031DC12FC22F892FC6
:103F8400A51FC52FC62FE02F2508803A9F3E031892
:103F9400CC2FCD2FCE2F4F2F01300310A30CA20C0A
:103FA400A10CA00CFF3E031DCF2F0130F8007808B0
:103FB400A507031DDE2FDF2FCE2FF72F203025027C
:103FC400031CE52FE62FF22F4F2F0130F8000310CA
:103FD400A00DA10DA20DA30DF80BE92F0130A50230
:103FE4002508031DF62FF72FE72F2308F3002208D7
:0C3FF400F2002108F1002008F000080095
:04400E00D620FF3F7A
:00000001FF
