:020000040000FA
:060000000A128A11FB2F19
:100E3A00F00070088312031393000800831603134B
:100E4A00141C282F292F232F08000A128A1123275E
:100E5A000A128A118312031313080800F300831677
:100E6A0003138712731D3A2F3B2F3F2F72089400EA
:100E7A008715432F70087204940087117308710450
:100E8A00831203139400080083160317880189014B
:100E9A00831603130710871007118601880183122E
:100EAA00031386018801071587140714F001F1015D
:100EBA00F20120300A128A1133270A128A11080015
:100ECA000A128A1149270A128A1183120313071177
:100EDA000330F5009730F400F40B712FF50B712FE6
:100EEA00762F01300A128A111D270A128A110A1254
:100EFA008A112A270A128A118312031386000330E1
:100F0A00F5009730F400F40B882FF50B882F8D2FFE
:100F1A008312031307150330F5009730F400F40B1E
:100F2A00942FF50B942F992F8312031387100330F4
:100F3A00F5009730F400F40BA02FF50BA02FA52F86
:100F4A0001300A128A111D270A128A110A128A11FD
:100F5A002A270A128A118312031388000330F50024
:100F6A009730F400F40BB72FF50BB72FBC2F831271
:100F7A00031387140330F5009730F400F40BC32FE2
:100F8A00F50BC32FC82F8312031307100330F50084
:100F9A009730F400F40BCF2FF50BCF2FD42F01305D
:100FAA000A128A111D270A128A110A128A112A277D
:100FBA000A128A11F4007408F6000330F50097301B
:100FCA00F400F40BE62FF50BE62FEB2F8312031335
:100FDA0007140330F5009730F400F40BF22FF50BE9
:100FEA00F22FF72F6A2F0A128A110028F6018301BD
:060FFA000A128A11652FA6
:04400E00D620FF3F7A
:00000001FF
